{
  "contractName": "Queans",
  "abi": [
    {
      "inputs": [],
      "stateMutability": "nonpayable",
      "type": "constructor"
    },
    {
      "inputs": [],
      "name": "idm",
      "outputs": [
        {
          "internalType": "contract IIdentityRegistry",
          "name": "",
          "type": "address"
        }
      ],
      "stateMutability": "view",
      "type": "function",
      "constant": true
    },
    {
      "inputs": [
        {
          "internalType": "uint256",
          "name": "_startOfRelation",
          "type": "uint256"
        },
        {
          "internalType": "uint256",
          "name": "_questionCloseTime",
          "type": "uint256"
        },
        {
          "internalType": "string",
          "name": "_name",
          "type": "string"
        },
        {
          "internalType": "bool",
          "name": "_isPublic",
          "type": "bool"
        }
      ],
      "name": "addRelation",
      "outputs": [],
      "stateMutability": "payable",
      "type": "function",
      "payable": true
    },
    {
      "inputs": [
        {
          "internalType": "address[]",
          "name": "usersList",
          "type": "address[]"
        },
        {
          "internalType": "uint256",
          "name": "relationID",
          "type": "uint256"
        }
      ],
      "name": "addUsersToRelation",
      "outputs": [],
      "stateMutability": "nonpayable",
      "type": "function"
    },
    {
      "inputs": [
        {
          "internalType": "uint256",
          "name": "relationID",
          "type": "uint256"
        }
      ],
      "name": "changeRelationPhase",
      "outputs": [],
      "stateMutability": "nonpayable",
      "type": "function"
    },
    {
      "inputs": [
        {
          "internalType": "string",
          "name": "_text",
          "type": "string"
        },
        {
          "internalType": "uint256",
          "name": "relationID",
          "type": "uint256"
        }
      ],
      "name": "addQuestion",
      "outputs": [],
      "stateMutability": "payable",
      "type": "function",
      "payable": true
    },
    {
      "inputs": [
        {
          "internalType": "uint256",
          "name": "questionKey",
          "type": "uint256"
        },
        {
          "internalType": "uint256",
          "name": "relationID",
          "type": "uint256"
        }
      ],
      "name": "voteForQuestion",
      "outputs": [],
      "stateMutability": "payable",
      "type": "function",
      "payable": true
    },
    {
      "inputs": [
        {
          "internalType": "uint256",
          "name": "id",
          "type": "uint256"
        }
      ],
      "name": "getRelation",
      "outputs": [
        {
          "components": [
            {
              "internalType": "address",
              "name": "author",
              "type": "address"
            },
            {
              "internalType": "uint256",
              "name": "creationTime",
              "type": "uint256"
            },
            {
              "internalType": "bool",
              "name": "isPublic",
              "type": "bool"
            },
            {
              "internalType": "bool",
              "name": "votePhase",
              "type": "bool"
            },
            {
              "internalType": "address[]",
              "name": "privateList",
              "type": "address[]"
            },
            {
              "internalType": "uint256",
              "name": "ID",
              "type": "uint256"
            },
            {
              "internalType": "uint256",
              "name": "startOfRelation",
              "type": "uint256"
            },
            {
              "internalType": "uint256",
              "name": "questionCloseTime",
              "type": "uint256"
            },
            {
              "internalType": "string",
              "name": "name",
              "type": "string"
            },
            {
              "internalType": "uint256[]",
              "name": "questionsKeys",
              "type": "uint256[]"
            }
          ],
          "internalType": "struct Queans.Relation",
          "name": "relation",
          "type": "tuple"
        }
      ],
      "stateMutability": "view",
      "type": "function",
      "constant": true
    },
    {
      "inputs": [
        {
          "internalType": "address",
          "name": "author",
          "type": "address"
        },
        {
          "internalType": "uint256[]",
          "name": "numbers",
          "type": "uint256[]"
        }
      ],
      "name": "getRelationQuestionByAuthor",
      "outputs": [
        {
          "internalType": "uint256",
          "name": "questionID",
          "type": "uint256"
        }
      ],
      "stateMutability": "view",
      "type": "function",
      "constant": true
    },
    {
      "inputs": [
        {
          "internalType": "uint256",
          "name": "id",
          "type": "uint256"
        }
      ],
      "name": "getQuestion",
      "outputs": [
        {
          "components": [
            {
              "internalType": "string",
              "name": "text",
              "type": "string"
            },
            {
              "internalType": "address[]",
              "name": "votes",
              "type": "address[]"
            },
            {
              "internalType": "address",
              "name": "author",
              "type": "address"
            }
          ],
          "internalType": "struct Queans.Question",
          "name": "question",
          "type": "tuple"
        }
      ],
      "stateMutability": "view",
      "type": "function",
      "constant": true
    },
    {
      "inputs": [],
      "name": "getRelationsCount",
      "outputs": [
        {
          "internalType": "uint256",
          "name": "relLength",
          "type": "uint256"
        }
      ],
      "stateMutability": "view",
      "type": "function",
      "constant": true
    },
    {
      "inputs": [
        {
          "internalType": "uint256",
          "name": "relationID",
          "type": "uint256"
        }
      ],
      "name": "getPrivateRelationUserList",
      "outputs": [
        {
          "internalType": "address[]",
          "name": "privateList",
          "type": "address[]"
        }
      ],
      "stateMutability": "view",
      "type": "function",
      "constant": true
    }
  ],
  "bytecode": "0x608060405234801561001057600080fd5b5073b8a932afab7d56279247639094d066f46090648e600660006101000a81548173ffffffffffffffffffffffffffffffffffffffff021916908373ffffffffffffffffffffffffffffffffffffffff160217905550613443806100756000396000f3fe60806040526004361061009c5760003560e01c806392fd13221161006457806392fd13221461018b578063bbf03963146101c8578063be7e7297146101f3578063db88176f1461021c578063e90e7f0e14610259578063f7454d5f146102755761009c565b806308bb5858146100a1578063129cd33e146100ca5780633f48f8b6146100e6578063758cb363146101235780638ffe63431461014e575b600080fd5b3480156100ad57600080fd5b506100c860048036038101906100c39190611d74565b610291565b005b6100e460048036038101906100df9190611e85565b610466565b005b3480156100f257600080fd5b5061010d60048036038101906101089190611ee1565b610a55565b60405161011a9190611fcc565b60405180910390f35b34801561012f57600080fd5b50610138610af9565b6040516101459190611ffd565b60405180910390f35b34801561015a57600080fd5b5061017560048036038101906101709190611ee1565b610b03565b60405161018291906122c7565b60405180910390f35b34801561019757600080fd5b506101b260048036038101906101ad91906123ac565b610d5d565b6040516101bf9190611ffd565b60405180910390f35b3480156101d457600080fd5b506101dd610e05565b6040516101ea9190612467565b60405180910390f35b3480156101ff57600080fd5b5061021a60048036038101906102159190611ee1565b610e2b565b005b34801561022857600080fd5b50610243600480360381019061023e9190611ee1565b610f2a565b60405161025091906124d9565b60405180910390f35b610273600480360381019061026e9190612527565b6110cd565b005b61028f600480360381019061028a91906125aa565b611371565b005b61029a81610b03565b6000015173ffffffffffffffffffffffffffffffffffffffff163373ffffffffffffffffffffffffffffffffffffffff161461030b576040517f08c379a00000000000000000000000000000000000000000000000000000000081526004016103029061266d565b60405180910390fd5b61031481610b03565b604001511515600015151461035e576040517f08c379a0000000000000000000000000000000000000000000000000000000008152600401610355906126ff565b60405180910390fd5b6000151561036b82610b03565b606001511515146103b1576040517f08c379a00000000000000000000000000000000000000000000000000000000081526004016103a890612791565b60405180910390fd5b60005b825181101561046157600460008381526020019081526020016000206003018382815181106103e6576103e56127b1565b5b60200260200101519080600181540180825580915050600190039060005260206000200160009091909190916101000a81548173ffffffffffffffffffffffffffffffffffffffff021916908373ffffffffffffffffffffffffffffffffffffffff16021790555080806104599061280f565b9150506103b4565b505050565b60011515600660009054906101000a900473ffffffffffffffffffffffffffffffffffffffff1673ffffffffffffffffffffffffffffffffffffffff1663b5b90fd9336040518263ffffffff1660e01b81526004016104c59190612866565b602060405180830381865afa1580156104e2573d6000803e3d6000fd5b505050506040513d601f19601f820116820180604052508101906105069190612896565b151514610548576040517f08c379a000000000000000000000000000000000000000000000000000000000815260040161053f90612935565b60405180910390fd5b600015156105603360006117f990919063ffffffff16565b15150361057d5761057b33600061182990919063ffffffff16565b505b600115156105953360006117f990919063ffffffff16565b1515146105d7576040517f08c379a00000000000000000000000000000000000000000000000000000000081526004016105ce906129c7565b60405180910390fd5b3373ffffffffffffffffffffffffffffffffffffffff166004600083815260200190815260200160002060000160009054906101000a900473ffffffffffffffffffffffffffffffffffffffff1673ffffffffffffffffffffffffffffffffffffffff160361067b576040517f08c379a000000000000000000000000000000000000000000000000000000000815260040161067290612a59565b60405180910390fd5b600015156106913361068c84610b03565b611859565b1515146106d3576040517f08c379a00000000000000000000000000000000000000000000000000000000081526004016106ca90612aeb565b60405180910390fd5b600115156004600083815260200190815260200160002060020160019054906101000a900460ff1615151461073d576040517f08c379a000000000000000000000000000000000000000000000000000000000815260040161073490612b7d565b60405180910390fd5b633b9aca00341015610784576040517f08c379a000000000000000000000000000000000000000000000000000000000815260040161077b90612c0f565b60405180910390fd5b600015156004600083815260200190815260200160002060020160009054906101000a900460ff1615150361090f57600060046000838152602001908152602001600020600301805490501161080f576040517f08c379a000000000000000000000000000000000000000000000000000000000815260040161080690612c7b565b60405180910390fd5b6000805b61081c83610b03565b60800151518110156108c5573373ffffffffffffffffffffffffffffffffffffffff16600460008581526020019081526020016000206003018281548110610867576108666127b1565b5b9060005260206000200160009054906101000a900473ffffffffffffffffffffffffffffffffffffffff1673ffffffffffffffffffffffffffffffffffffffff16036108b257600191505b80806108bd9061280f565b915050610813565b50600115158115151461090d576040517f08c379a000000000000000000000000000000000000000000000000000000000815260040161090490612d0d565b60405180910390fd5b505b6060610919611a28565b83816000018190525081816020018190525033816040019073ffffffffffffffffffffffffffffffffffffffff16908173ffffffffffffffffffffffffffffffffffffffff168152505080600260006003548152602001908152602001600020600082015181600001908161098e9190612f2f565b5060208201518160010190805190602001906109ab929190611a5f565b5060408201518160020160006101000a81548173ffffffffffffffffffffffffffffffffffffffff021916908373ffffffffffffffffffffffffffffffffffffffff160217905550905050600460008481526020019081526020016000206008016003549080600181540180825580915050600190039060005260206000200160009091909190915055600160036000828254610a489190613001565b9250508190555050505050565b606060046000838152602001908152602001600020600301805480602002602001604051908101604052809291908181526020018280548015610aed57602002820191906000526020600020905b8160009054906101000a900473ffffffffffffffffffffffffffffffffffffffff1673ffffffffffffffffffffffffffffffffffffffff1681526020019060010190808311610aa3575b50505050509050919050565b6000600554905090565b610b0b611ae9565b60046000838152602001908152602001600020604051806101400160405290816000820160009054906101000a900473ffffffffffffffffffffffffffffffffffffffff1673ffffffffffffffffffffffffffffffffffffffff1673ffffffffffffffffffffffffffffffffffffffff168152602001600182015481526020016002820160009054906101000a900460ff161515151581526020016002820160019054906101000a900460ff1615151515815260200160038201805480602002602001604051908101604052809291908181526020018280548015610c4557602002820191906000526020600020905b8160009054906101000a900473ffffffffffffffffffffffffffffffffffffffff1673ffffffffffffffffffffffffffffffffffffffff1681526020019060010190808311610bfb575b50505050508152602001600482015481526020016005820154815260200160068201548152602001600782018054610c7c90612d5c565b80601f0160208091040260200160405190810160405280929190818152602001828054610ca890612d5c565b8015610cf55780601f10610cca57610100808354040283529160200191610cf5565b820191906000526020600020905b815481529060010190602001808311610cd857829003601f168201915b5050505050815260200160088201805480602002602001604051908101604052809291908181526020018280548015610d4d57602002820191906000526020600020905b815481526020019060010190808311610d39575b5050505050815250509050919050565b600080600090505b8251811015610dfd578373ffffffffffffffffffffffffffffffffffffffff16610da8848381518110610d9b57610d9a6127b1565b5b6020026020010151610f2a565b6040015173ffffffffffffffffffffffffffffffffffffffff1603610dea57828181518110610dda57610dd96127b1565b5b6020026020010151915050610dff565b8080610df59061280f565b915050610d65565b505b92915050565b600660009054906101000a900473ffffffffffffffffffffffffffffffffffffffff1681565b610e3481610b03565b6000015173ffffffffffffffffffffffffffffffffffffffff163373ffffffffffffffffffffffffffffffffffffffff1614610ea5576040517f08c379a0000000000000000000000000000000000000000000000000000000008152600401610e9c906130a7565b60405180910390fd5b60001515610eb282610b03565b60600151151514610ef8576040517f08c379a0000000000000000000000000000000000000000000000000000000008152600401610eef90613113565b60405180910390fd5b60016004600083815260200190815260200160002060020160016101000a81548160ff02191690831515021790555050565b610f32611a28565b60026000838152602001908152602001600020604051806060016040529081600082018054610f6090612d5c565b80601f0160208091040260200160405190810160405280929190818152602001828054610f8c90612d5c565b8015610fd95780601f10610fae57610100808354040283529160200191610fd9565b820191906000526020600020905b815481529060010190602001808311610fbc57829003601f168201915b505050505081526020016001820180548060200260200160405190810160405280929190818152602001828054801561106757602002820191906000526020600020905b8160009054906101000a900473ffffffffffffffffffffffffffffffffffffffff1673ffffffffffffffffffffffffffffffffffffffff168152602001906001019080831161101d575b505050505081526020016002820160009054906101000a900473ffffffffffffffffffffffffffffffffffffffff1673ffffffffffffffffffffffffffffffffffffffff1673ffffffffffffffffffffffffffffffffffffffff16815250509050919050565b60011515600660009054906101000a900473ffffffffffffffffffffffffffffffffffffffff1673ffffffffffffffffffffffffffffffffffffffff1663b5b90fd9336040518263ffffffff1660e01b815260040161112c9190612866565b602060405180830381865afa158015611149573d6000803e3d6000fd5b505050506040513d601f19601f8201168201806040525081019061116d9190612896565b1515146111af576040517f08c379a00000000000000000000000000000000000000000000000000000000081526004016111a690612935565b60405180910390fd5b600015156111c73360006117f990919063ffffffff16565b1515036111e4576111e233600061182990919063ffffffff16565b505b600115156111fc3360006117f990919063ffffffff16565b15151461123e576040517f08c379a0000000000000000000000000000000000000000000000000000000008152600401611235906129c7565b60405180910390fd5b633b9aca00341015611285576040517f08c379a000000000000000000000000000000000000000000000000000000000815260040161127c906131a5565b60405180910390fd5b60006004600060055481526020019081526020016000209050338160000160006101000a81548173ffffffffffffffffffffffffffffffffffffffff021916908373ffffffffffffffffffffffffffffffffffffffff160217905550428160010181905550818160020160006101000a81548160ff021916908315150217905550600554816004018190555060008160020160016101000a81548160ff021916908315150217905550848160050181905550838160060181905550828160070190816113519190612f2f565b50600560008154809291906113659061280f565b91905055505050505050565b60011515600660009054906101000a900473ffffffffffffffffffffffffffffffffffffffff1673ffffffffffffffffffffffffffffffffffffffff1663b5b90fd9336040518263ffffffff1660e01b81526004016113d09190612866565b602060405180830381865afa1580156113ed573d6000803e3d6000fd5b505050506040513d601f19601f820116820180604052508101906114119190612896565b151514611453576040517f08c379a000000000000000000000000000000000000000000000000000000000815260040161144a90612935565b60405180910390fd5b6000151561146b3360006117f990919063ffffffff16565b1515036114885761148633600061182990919063ffffffff16565b505b600115156114a03360006117f990919063ffffffff16565b1515146114e2576040517f08c379a00000000000000000000000000000000000000000000000000000000081526004016114d9906129c7565b60405180910390fd5b6114eb82610f2a565b6040015173ffffffffffffffffffffffffffffffffffffffff163373ffffffffffffffffffffffffffffffffffffffff160361155c576040517f08c379a000000000000000000000000000000000000000000000000000000000815260040161155390613237565b60405180910390fd5b633b9aca003410156115a3576040517f08c379a000000000000000000000000000000000000000000000000000000000815260040161159a906132c9565b60405180910390fd5b600015156115b133846118f6565b1515146115f3576040517f08c379a00000000000000000000000000000000000000000000000000000000081526004016115ea9061335b565b60405180910390fd5b600015156004600083815260200190815260200160002060020160009054906101000a900460ff1615150361177e57600060046000838152602001908152602001600020600301805490501161167e576040517f08c379a000000000000000000000000000000000000000000000000000000000815260040161167590612c7b565b60405180910390fd5b6000805b61168b83610b03565b6080015151811015611734573373ffffffffffffffffffffffffffffffffffffffff166004600085815260200190815260200160002060030182815481106116d6576116d56127b1565b5b9060005260206000200160009054906101000a900473ffffffffffffffffffffffffffffffffffffffff1673ffffffffffffffffffffffffffffffffffffffff160361172157600191505b808061172c9061280f565b915050611682565b50600115158115151461177c576040517f08c379a0000000000000000000000000000000000000000000000000000000008152600401611773906133ed565b60405180910390fd5b505b60026000838152602001908152602001600020600101339080600181540180825580915050600190039060005260206000200160009091909190916101000a81548173ffffffffffffffffffffffffffffffffffffffff021916908373ffffffffffffffffffffffffffffffffffffffff1602179055505050565b6000611821836000018373ffffffffffffffffffffffffffffffffffffffff1660001b611995565b905092915050565b6000611851836000018373ffffffffffffffffffffffffffffffffffffffff1660001b6119b8565b905092915050565b600080600090505b826101200151518110156118ea578373ffffffffffffffffffffffffffffffffffffffff166118ae84610120015183815181106118a1576118a06127b1565b5b6020026020010151610f2a565b6040015173ffffffffffffffffffffffffffffffffffffffff16036118d75760019150506118f0565b80806118e29061280f565b915050611861565b50600090505b92915050565b600080600090505b61190783610f2a565b6020015151811015611989578373ffffffffffffffffffffffffffffffffffffffff1661193384610f2a565b602001518281518110611949576119486127b1565b5b602002602001015173ffffffffffffffffffffffffffffffffffffffff160361197657600191505061198f565b80806119819061280f565b9150506118fe565b50600090505b92915050565b600080836001016000848152602001908152602001600020541415905092915050565b60006119c48383611995565b611a1d578260000182908060018154018082558091505060019003906000526020600020016000909190919091505582600001805490508360010160008481526020019081526020016000208190555060019050611a22565b600090505b92915050565b60405180606001604052806060815260200160608152602001600073ffffffffffffffffffffffffffffffffffffffff1681525090565b828054828255906000526020600020908101928215611ad8579160200282015b82811115611ad75782518260006101000a81548173ffffffffffffffffffffffffffffffffffffffff021916908373ffffffffffffffffffffffffffffffffffffffff16021790555091602001919060010190611a7f565b5b509050611ae59190611b56565b5090565b604051806101400160405280600073ffffffffffffffffffffffffffffffffffffffff168152602001600081526020016000151581526020016000151581526020016060815260200160008152602001600081526020016000815260200160608152602001606081525090565b5b80821115611b6f576000816000905550600101611b57565b5090565b6000604051905090565b600080fd5b600080fd5b600080fd5b6000601f19601f8301169050919050565b7f4e487b7100000000000000000000000000000000000000000000000000000000600052604160045260246000fd5b611bd582611b8c565b810181811067ffffffffffffffff82111715611bf457611bf3611b9d565b5b80604052505050565b6000611c07611b73565b9050611c138282611bcc565b919050565b600067ffffffffffffffff821115611c3357611c32611b9d565b5b602082029050602081019050919050565b600080fd5b600073ffffffffffffffffffffffffffffffffffffffff82169050919050565b6000611c7482611c49565b9050919050565b611c8481611c69565b8114611c8f57600080fd5b50565b600081359050611ca181611c7b565b92915050565b6000611cba611cb584611c18565b611bfd565b90508083825260208201905060208402830185811115611cdd57611cdc611c44565b5b835b81811015611d065780611cf28882611c92565b845260208401935050602081019050611cdf565b5050509392505050565b600082601f830112611d2557611d24611b87565b5b8135611d35848260208601611ca7565b91505092915050565b6000819050919050565b611d5181611d3e565b8114611d5c57600080fd5b50565b600081359050611d6e81611d48565b92915050565b60008060408385031215611d8b57611d8a611b7d565b5b600083013567ffffffffffffffff811115611da957611da8611b82565b5b611db585828601611d10565b9250506020611dc685828601611d5f565b9150509250929050565b600080fd5b600067ffffffffffffffff821115611df057611def611b9d565b5b611df982611b8c565b9050602081019050919050565b82818337600083830152505050565b6000611e28611e2384611dd5565b611bfd565b905082815260208101848484011115611e4457611e43611dd0565b5b611e4f848285611e06565b509392505050565b600082601f830112611e6c57611e6b611b87565b5b8135611e7c848260208601611e15565b91505092915050565b60008060408385031215611e9c57611e9b611b7d565b5b600083013567ffffffffffffffff811115611eba57611eb9611b82565b5b611ec685828601611e57565b9250506020611ed785828601611d5f565b9150509250929050565b600060208284031215611ef757611ef6611b7d565b5b6000611f0584828501611d5f565b91505092915050565b600081519050919050565b600082825260208201905092915050565b6000819050602082019050919050565b611f4381611c69565b82525050565b6000611f558383611f3a565b60208301905092915050565b6000602082019050919050565b6000611f7982611f0e565b611f838185611f19565b9350611f8e83611f2a565b8060005b83811015611fbf578151611fa68882611f49565b9750611fb183611f61565b925050600181019050611f92565b5085935050505092915050565b60006020820190508181036000830152611fe68184611f6e565b905092915050565b611ff781611d3e565b82525050565b60006020820190506120126000830184611fee565b92915050565b61202181611d3e565b82525050565b60008115159050919050565b61203c81612027565b82525050565b600082825260208201905092915050565b600061205e82611f0e565b6120688185612042565b935061207383611f2a565b8060005b838110156120a457815161208b8882611f49565b975061209683611f61565b925050600181019050612077565b5085935050505092915050565b600081519050919050565b600082825260208201905092915050565b60005b838110156120eb5780820151818401526020810190506120d0565b60008484015250505050565b6000612102826120b1565b61210c81856120bc565b935061211c8185602086016120cd565b61212581611b8c565b840191505092915050565b600081519050919050565b600082825260208201905092915050565b6000819050602082019050919050565b60006121688383612018565b60208301905092915050565b6000602082019050919050565b600061218c82612130565b612196818561213b565b93506121a18361214c565b8060005b838110156121d25781516121b9888261215c565b97506121c483612174565b9250506001810190506121a5565b5085935050505092915050565b6000610140830160008301516121f86000860182611f3a565b50602083015161220b6020860182612018565b50604083015161221e6040860182612033565b5060608301516122316060860182612033565b50608083015184820360808601526122498282612053565b91505060a083015161225e60a0860182612018565b5060c083015161227160c0860182612018565b5060e083015161228460e0860182612018565b5061010083015184820361010086015261229e82826120f7565b9150506101208301518482036101208601526122ba8282612181565b9150508091505092915050565b600060208201905081810360008301526122e181846121df565b905092915050565b600067ffffffffffffffff82111561230457612303611b9d565b5b602082029050602081019050919050565b6000612328612323846122e9565b611bfd565b9050808382526020820190506020840283018581111561234b5761234a611c44565b5b835b8181101561237457806123608882611d5f565b84526020840193505060208101905061234d565b5050509392505050565b600082601f83011261239357612392611b87565b5b81356123a3848260208601612315565b91505092915050565b600080604083850312156123c3576123c2611b7d565b5b60006123d185828601611c92565b925050602083013567ffffffffffffffff8111156123f2576123f1611b82565b5b6123fe8582860161237e565b9150509250929050565b6000819050919050565b600061242d61242861242384611c49565b612408565b611c49565b9050919050565b600061243f82612412565b9050919050565b600061245182612434565b9050919050565b61246181612446565b82525050565b600060208201905061247c6000830184612458565b92915050565b6000606083016000830151848203600086015261249f82826120f7565b915050602083015184820360208601526124b98282612053565b91505060408301516124ce6040860182611f3a565b508091505092915050565b600060208201905081810360008301526124f38184612482565b905092915050565b61250481612027565b811461250f57600080fd5b50565b600081359050612521816124fb565b92915050565b6000806000806080858703121561254157612540611b7d565b5b600061254f87828801611d5f565b945050602061256087828801611d5f565b935050604085013567ffffffffffffffff81111561258157612580611b82565b5b61258d87828801611e57565b925050606061259e87828801612512565b91505092959194509250565b600080604083850312156125c1576125c0611b7d565b5b60006125cf85828601611d5f565b92505060206125e085828601611d5f565b9150509250929050565b600082825260208201905092915050565b7f596f75206d7573742062652063726561746f72206f662072656c6174696f6e2060008201527f746f206164642075736572730000000000000000000000000000000000000000602082015250565b6000612657602c836125ea565b9150612662826125fb565b604082019050919050565b600060208201905081810360008301526126868161264a565b9050919050565b7f596f752063616e20616464207573657273206f6e6c7920746f2070726976617460008201527f652072656c6174696f6e00000000000000000000000000000000000000000000602082015250565b60006126e9602a836125ea565b91506126f48261268d565b604082019050919050565b60006020820190508181036000830152612718816126dc565b9050919050565b7f596f752063616e206e6f742061646420757365727320696e20766f746520706860008201527f6173650000000000000000000000000000000000000000000000000000000000602082015250565b600061277b6023836125ea565b91506127868261271f565b604082019050919050565b600060208201905081810360008301526127aa8161276e565b9050919050565b7f4e487b7100000000000000000000000000000000000000000000000000000000600052603260045260246000fd5b7f4e487b7100000000000000000000000000000000000000000000000000000000600052601160045260246000fd5b600061281a82611d3e565b91507fffffffffffffffffffffffffffffffffffffffffffffffffffffffffffffffff820361284c5761284b6127e0565b5b600182019050919050565b61286081611c69565b82525050565b600060208201905061287b6000830184612857565b92915050565b600081519050612890816124fb565b92915050565b6000602082840312156128ac576128ab611b7d565b5b60006128ba84828501612881565b91505092915050565b7f5573657220646f6573206e6f742068617665207665726966696564206964656e60008201527f7469747900000000000000000000000000000000000000000000000000000000602082015250565b600061291f6024836125ea565b915061292a826128c3565b604082019050919050565b6000602082019050818103600083015261294e81612912565b9050919050565b7f55736572206973206e6f7420616464656420746f20636f6e7472616374206c6960008201527f7374000000000000000000000000000000000000000000000000000000000000602082015250565b60006129b16022836125ea565b91506129bc82612955565b604082019050919050565b600060208201905081810360008301526129e0816129a4565b9050919050565b7f52656c6174696f6e20617574686f722063616e206e6f7420616464207175657360008201527f74696f6e7320746f206869732f686572206f776e2072656c6174696f6e730000602082015250565b6000612a43603e836125ea565b9150612a4e826129e7565b604082019050919050565b60006020820190508181036000830152612a7281612a36565b9050919050565b7f5573657220697320616c7265616479206164646564207175657374696f6e207460008201527f6f20746869732072656c6174696f6e0000000000000000000000000000000000602082015250565b6000612ad5602f836125ea565b9150612ae082612a79565b604082019050919050565b60006020820190508181036000830152612b0481612ac8565b9050919050565b7f596f752063616e20616464207175657374696f6e73206f6e6c7920696e20766f60008201527f7465506861736500000000000000000000000000000000000000000000000000602082015250565b6000612b676027836125ea565b9150612b7282612b0b565b604082019050919050565b60006020820190508181036000830152612b9681612b5a565b9050919050565b7f596f75206d75737420706179206174206c6561737420312045544820746f206160008201527f64645175657374696f6e00000000000000000000000000000000000000000000602082015250565b6000612bf9602a836125ea565b9150612c0482612b9d565b604082019050919050565b60006020820190508181036000830152612c2881612bec565b9050919050565b7f52656c6174696f6e206c697374206f6620757365727320697320656d70747900600082015250565b6000612c65601f836125ea565b9150612c7082612c2f565b602082019050919050565b60006020820190508181036000830152612c9481612c58565b9050919050565b7f53656e646572206d75737420626520616464656420746f20707269766174652060008201527f72656c6174696f6e000000000000000000000000000000000000000000000000602082015250565b6000612cf76028836125ea565b9150612d0282612c9b565b604082019050919050565b60006020820190508181036000830152612d2681612cea565b9050919050565b7f4e487b7100000000000000000000000000000000000000000000000000000000600052602260045260246000fd5b60006002820490506001821680612d7457607f821691505b602082108103612d8757612d86612d2d565b5b50919050565b60008190508160005260206000209050919050565b60006020601f8301049050919050565b600082821b905092915050565b600060088302612def7fffffffffffffffffffffffffffffffffffffffffffffffffffffffffffffffff82612db2565b612df98683612db2565b95508019841693508086168417925050509392505050565b6000612e2c612e27612e2284611d3e565b612408565b611d3e565b9050919050565b6000819050919050565b612e4683612e11565b612e5a612e5282612e33565b848454612dbf565b825550505050565b600090565b612e6f612e62565b612e7a818484612e3d565b505050565b5b81811015612e9e57612e93600082612e67565b600181019050612e80565b5050565b601f821115612ee357612eb481612d8d565b612ebd84612da2565b81016020851015612ecc578190505b612ee0612ed885612da2565b830182612e7f565b50505b505050565b600082821c905092915050565b6000612f0660001984600802612ee8565b1980831691505092915050565b6000612f1f8383612ef5565b9150826002028217905092915050565b612f38826120b1565b67ffffffffffffffff811115612f5157612f50611b9d565b5b612f5b8254612d5c565b612f66828285612ea2565b600060209050601f831160018114612f995760008415612f87578287015190505b612f918582612f13565b865550612ff9565b601f198416612fa786612d8d565b60005b82811015612fcf57848901518255600182019150602085019450602081019050612faa565b86831015612fec5784890151612fe8601f891682612ef5565b8355505b6001600288020188555050505b505050505050565b600061300c82611d3e565b915061301783611d3e565b925082820190508082111561302f5761302e6127e0565b5b92915050565b7f596f75206d7573742062652063726561746f72206f662072656c6174696f6e2060008201527f746f206368616e67652074686520706861736500000000000000000000000000602082015250565b60006130916033836125ea565b915061309c82613035565b604082019050919050565b600060208201905081810360008301526130c081613084565b9050919050565b7f596f752063616e206368616e6765207068617365206f6e6c79206f6e63652100600082015250565b60006130fd601f836125ea565b9150613108826130c7565b602082019050919050565b6000602082019050818103600083015261312c816130f0565b9050919050565b7f596f75206d75737420706179206174206c6561737420312045544820746f206160008201527f646452656c6174696f6e00000000000000000000000000000000000000000000602082015250565b600061318f602a836125ea565b915061319a82613133565b604082019050919050565b600060208201905081810360008301526131be81613182565b9050919050565b7f596f752063616e206e6f7420766f746520666f7220796f7572206f776e20717560008201527f657374696f6e0000000000000000000000000000000000000000000000000000602082015250565b60006132216026836125ea565b915061322c826131c5565b604082019050919050565b6000602082019050818103600083015261325081613214565b9050919050565b7f596f75206d75737420706179206174206c6561737420312045544820746f207660008201527f6f74650000000000000000000000000000000000000000000000000000000000602082015250565b60006132b36023836125ea565b91506132be82613257565b604082019050919050565b600060208201905081810360008301526132e2816132a6565b9050919050565b7f596f7520616c726561647920766f74656420666f72207468697320717565737460008201527f696f6e0000000000000000000000000000000000000000000000000000000000602082015250565b60006133456023836125ea565b9150613350826132e9565b604082019050919050565b6000602082019050818103600083015261337481613338565b9050919050565b7f53656e646572206d75737420626520616464656420746f20707269766174652060008201527f72656c6174696f6e20746f20766f746500000000000000000000000000000000602082015250565b60006133d76030836125ea565b91506133e28261337b565b604082019050919050565b60006020820190508181036000830152613406816133ca565b905091905056fea2646970667358221220836737d25fbcb5421cdb789768c240c988168018f99b62705406f26e28dc2abc64736f6c63430008110033",
  "immutableReferences": {},
  "source": "// SPDX-License-Identifier: MIT\r\npragma solidity ^0.8.17;\r\n\r\nimport \"./lib/IIdentityRegistry.sol\";\r\nimport \"./identityRegistry.sol\";\r\nimport \"@openzeppelin/contracts/utils/structs/EnumerableSet.sol\";\r\n\r\ncontract Queans {\r\n\r\n    using EnumerableSet for EnumerableSet.AddressSet;\r\n\r\n    EnumerableSet.AddressSet users;\r\n\r\n    mapping(uint=>Question) questions;\r\n    uint numQuestions;\r\n\r\n    mapping(uint=>Relation) relations;\r\n    uint numRelations;\r\n\r\n    IIdentityRegistry public idm; \r\n\r\n    constructor() {  \r\n        idm = IdentityRegistry(address(0xB8a932aFAb7D56279247639094D066F46090648e));\r\n    }\r\n\r\n    struct Question {\r\n        string text;\r\n        address[] votes;\r\n        address author;\r\n    }\r\n\r\n    struct Relation {\r\n        address author;\r\n        uint creationTime; \r\n        bool isPublic; \r\n        bool votePhase; \r\n        address[] privateList; \r\n        uint ID;\r\n        uint startOfRelation; \r\n        uint questionCloseTime; \r\n        string name; \r\n        uint[] questionsKeys;\r\n    }\r\n\r\n    /**\r\n     * Creates new relation based on moderator specification. Array of invited people and array of questions are added through addUsersToRelation and addQuestion functions.\r\n     */\r\n    function addRelation(uint _startOfRelation, uint _questionCloseTime, string memory _name, bool _isPublic) payable public { //create relation?\r\n        require(idm.verifyIdentity(msg.sender) == true, \"User does not have verified identity\");\r\n        if(users.contains(msg.sender) == false) {\r\n            users.add(msg.sender);\r\n        }\r\n        require(users.contains(msg.sender) == true, \"User is not added to contract list\");\r\n        require(msg.value >= 1 gwei, \"You must pay at least 1 ETH to addRelation\");\r\n        Relation storage r = relations[numRelations];\r\n        r.author = msg.sender;\r\n        r.creationTime = block.timestamp;\r\n        r.isPublic = _isPublic;\r\n        r.ID = numRelations;\r\n        r.votePhase = false;\r\n        r.startOfRelation = _startOfRelation;\r\n        r.questionCloseTime = _questionCloseTime;\r\n        r.name = _name;\r\n        numRelations++;\r\n    }\r\n\r\n    /**\r\n     * Adds new users (addresses) to private relation. \r\n     */\r\n    function addUsersToRelation(address[] memory usersList, uint relationID) public {\r\n        require(msg.sender == getRelation(relationID).author, \"You must be creator of relation to add users\");\r\n        require(false == getRelation(relationID).isPublic, \"You can add users only to private relation\");\r\n        require(getRelation(relationID).votePhase == false, \"You can not add users in vote phase\");\r\n        for(uint i = 0; i < usersList.length; i++) {\r\n            relations[relationID].privateList.push(usersList[i]);\r\n        }\r\n    }\r\n\r\n    /**\r\n     * Changes relation phase from preparation to vote. \r\n     */\r\n    function changeRelationPhase(uint relationID) public {\r\n        require(msg.sender == getRelation(relationID).author, \"You must be creator of relation to change the phase\");\r\n        require(getRelation(relationID).votePhase == false, \"You can change phase only once!\");\r\n        relations[relationID].votePhase = true;\r\n    }\r\n\r\n    /**\r\n     * Adds new question to specified relation. \r\n     */\r\n    function addQuestion(string memory _text, uint relationID) payable public {\r\n        require(idm.verifyIdentity(msg.sender) == true, \"User does not have verified identity\");\r\n        if(users.contains(msg.sender) == false) {\r\n            users.add(msg.sender);\r\n        }\r\n        require(users.contains(msg.sender) == true, \"User is not added to contract list\");\r\n        require(relations[relationID].author != msg.sender, \"Relation author can not add questions to his/her own relations\");\r\n        require(checkUserQuestion(msg.sender, getRelation(relationID)) == false, \"User is already added question to this relation\");\r\n        require(relations[relationID].votePhase == true, \"You can add questions only in votePhase\");\r\n        require(msg.value >= 1 gwei, \"You must pay at least 1 ETH to addQuestion\");\r\n        if(relations[relationID].isPublic == false) {\r\n                require(relations[relationID].privateList.length > 0, \"Relation list of users is empty\");\r\n                bool inList = false;\r\n                for(uint i = 0; i < getRelation(relationID).privateList.length; i++) {\r\n                    if (relations[relationID].privateList[i] == msg.sender) {\r\n                        inList = true;\r\n                    }\r\n                }\r\n                require(inList == true, \"Sender must be added to private relation\");\r\n        }\r\n        address[] memory questionVotes;\r\n        Question memory que;\r\n        que.text = _text;\r\n        que.votes = questionVotes;\r\n        que.author = msg.sender;\r\n        questions[numQuestions] = que;\r\n        relations[relationID].questionsKeys.push(numQuestions);\r\n        numQuestions += 1;\r\n    }\r\n\r\n    /**\r\n     * Upvotes specied question.\r\n     */\r\n    function voteForQuestion(uint questionKey, uint relationID) payable public {\r\n        require(idm.verifyIdentity(msg.sender) == true, \"User does not have verified identity\");\r\n        if(users.contains(msg.sender) == false) {\r\n            users.add(msg.sender);\r\n        }\r\n        require(users.contains(msg.sender) == true, \"User is not added to contract list\");\r\n        require(msg.sender != getQuestion(questionKey).author, \"You can not vote for your own question\");\r\n        require(msg.value >= 1 gwei, \"You must pay at least 1 ETH to vote\");\r\n        require(getVoter(msg.sender, questionKey) == false, \"You already voted for this question\");\r\n        if(relations[relationID].isPublic == false) {\r\n        require(relations[relationID].privateList.length > 0, \"Relation list of users is empty\");\r\n                bool inList = false;\r\n                for(uint i = 0; i < getRelation(relationID).privateList.length; i++) {\r\n                    if (relations[relationID].privateList[i] == msg.sender) {\r\n                        inList = true;\r\n                    }\r\n                }\r\n                require(inList == true, \"Sender must be added to private relation to vote\");\r\n        }\r\n        questions[questionKey].votes.push(msg.sender);\r\n    }\r\n\r\n    /**\r\n     * Returns true if user voted for specified question, otherwise false.\r\n     */\r\n    function getVoter(address voter, uint questionKey) private view returns(bool response){\r\n        for(uint i = 0; i < getQuestion(questionKey).votes.length; i++) {\r\n            if (getQuestion(questionKey).votes[i] == voter) {\r\n                return true;\r\n            }\r\n        }\r\n        return false;\r\n    }\r\n\r\n    /**\r\n     * Returns relation with specified ID.\r\n     */\r\n    function getRelation(uint id) public view returns(Relation memory relation) {\r\n        return relations[id];\r\n    }\r\n\r\n    /**\r\n     * Returns true if user already sent question to specified relation, otherwise false.\r\n     */\r\n    function checkUserQuestion(address userAddr, Relation memory relation) private view returns(bool) {\r\n        for(uint i = 0; i < relation.questionsKeys.length; i++) {\r\n            if (getQuestion(relation.questionsKeys[i]).author == userAddr)\r\n                return true;\r\n        }\r\n        return false;\r\n    }\r\n\r\n    /**\r\n     * Returns question id if user added question to specific relation.\r\n     */\r\n    function getRelationQuestionByAuthor(address author, uint [] memory numbers) public view returns(uint questionID) {\r\n        for(uint i = 0; i < numbers.length; i++) { \r\n            if(getQuestion(numbers[i]).author == author) {\r\n                return numbers[i];\r\n            }\r\n        }\r\n    }\r\n\r\n    /**\r\n     * Returns question based on its ID.\r\n     */\r\n    function getQuestion(uint id) public view returns(Question memory question) {\r\n        return questions[id];\r\n    }\r\n\r\n    /**\r\n     * Returns number of relations.\r\n     */\r\n    function getRelationsCount() public view returns(uint relLength) {\r\n        return numRelations;\r\n    }\r\n\r\n    /**\r\n     * Returns list of invited people to specified relation. \r\n     */\r\n    function getPrivateRelationUserList(uint relationID) public view returns(address[] memory privateList) {\r\n        return relations[relationID].privateList;\r\n    }\r\n}\r\n",
  "sourcePath": "C:\\Users\\Kuba\\Desktop\\Creator_app\\src\\contracts\\Queans.sol",
  "compiler": {
    "name": "solc",
    "version": "0.8.17+commit.8df45f5f.Emscripten.clang"
  },
  "schemaVersion": "3.4.11",
  "updatedAt": "2023-04-25T14:41:24.463Z",
  "networkType": "ethereum",
  "devdoc": {
    "kind": "dev",
    "methods": {},
    "version": 1
  },
  "userdoc": {
    "kind": "user",
    "methods": {
      "addQuestion(string,uint256)": {
        "notice": "Adds new question to specified relation. "
      },
      "addRelation(uint256,uint256,string,bool)": {
        "notice": "Creates new relation based on moderator specification. Array of invited people and array of questions are added through addUsersToRelation and addQuestion functions."
      },
      "addUsersToRelation(address[],uint256)": {
        "notice": "Adds new users (addresses) to private relation. "
      },
      "changeRelationPhase(uint256)": {
        "notice": "Changes relation phase from preparation to vote. "
      },
      "getPrivateRelationUserList(uint256)": {
        "notice": "Returns list of invited people to specified relation. "
      },
      "getQuestion(uint256)": {
        "notice": "Returns question based on its ID."
      },
      "getRelation(uint256)": {
        "notice": "Returns relation with specified ID."
      },
      "getRelationQuestionByAuthor(address,uint256[])": {
        "notice": "Returns question id if user added question to specific relation."
      },
      "getRelationsCount()": {
        "notice": "Returns number of relations."
      },
      "voteForQuestion(uint256,uint256)": {
        "notice": "Upvotes specied question."
      }
    },
    "version": 1
  }
}