{
  "contractName": "IdentityRegistry",
  "abi": [
    {
      "inputs": [],
      "stateMutability": "nonpayable",
      "type": "constructor"
    },
    {
      "anonymous": false,
      "inputs": [
        {
          "indexed": false,
          "internalType": "address",
          "name": "idprovider",
          "type": "address"
        }
      ],
      "name": "IdentityProviderAdded",
      "type": "event"
    },
    {
      "anonymous": false,
      "inputs": [
        {
          "indexed": false,
          "internalType": "address",
          "name": "idprovider",
          "type": "address"
        }
      ],
      "name": "IdentityProviderRemoved",
      "type": "event"
    },
    {
      "anonymous": false,
      "inputs": [
        {
          "indexed": false,
          "internalType": "address",
          "name": "idprovider",
          "type": "address"
        }
      ],
      "name": "IdentityProviderUpdated",
      "type": "event"
    },
    {
      "inputs": [],
      "name": "expirationDays",
      "outputs": [
        {
          "internalType": "uint256",
          "name": "",
          "type": "uint256"
        }
      ],
      "stateMutability": "view",
      "type": "function"
    },
    {
      "inputs": [],
      "name": "idmAdmins",
      "outputs": [
        {
          "internalType": "contract MultisigActionMembers",
          "name": "",
          "type": "address"
        }
      ],
      "stateMutability": "view",
      "type": "function"
    },
    {
      "inputs": [
        {
          "internalType": "address",
          "name": "",
          "type": "address"
        }
      ],
      "name": "idpMetadata",
      "outputs": [
        {
          "internalType": "string",
          "name": "name",
          "type": "string"
        },
        {
          "internalType": "string",
          "name": "did",
          "type": "string"
        },
        {
          "internalType": "uint256",
          "name": "timestamp",
          "type": "uint256"
        },
        {
          "internalType": "bool",
          "name": "valid",
          "type": "bool"
        }
      ],
      "stateMutability": "view",
      "type": "function"
    },
    {
      "inputs": [
        {
          "internalType": "address",
          "name": "",
          "type": "address"
        }
      ],
      "name": "registry",
      "outputs": [
        {
          "internalType": "uint256",
          "name": "timestamp",
          "type": "uint256"
        },
        {
          "internalType": "bool",
          "name": "valid",
          "type": "bool"
        }
      ],
      "stateMutability": "view",
      "type": "function"
    },
    {
      "inputs": [
        {
          "internalType": "address",
          "name": "userAddr",
          "type": "address"
        }
      ],
      "name": "verifyIdentity",
      "outputs": [
        {
          "internalType": "bool",
          "name": "",
          "type": "bool"
        }
      ],
      "stateMutability": "view",
      "type": "function"
    },
    {
      "inputs": [],
      "name": "getIDPs",
      "outputs": [
        {
          "internalType": "address[]",
          "name": "",
          "type": "address[]"
        }
      ],
      "stateMutability": "view",
      "type": "function"
    },
    {
      "inputs": [
        {
          "internalType": "address",
          "name": "idprovider",
          "type": "address"
        },
        {
          "internalType": "string",
          "name": "did",
          "type": "string"
        },
        {
          "internalType": "string",
          "name": "name",
          "type": "string"
        }
      ],
      "name": "addIdentityProvider",
      "outputs": [
        {
          "internalType": "bool",
          "name": "",
          "type": "bool"
        }
      ],
      "stateMutability": "nonpayable",
      "type": "function"
    },
    {
      "inputs": [
        {
          "internalType": "address",
          "name": "idprovider",
          "type": "address"
        }
      ],
      "name": "delIdentityProvider",
      "outputs": [
        {
          "internalType": "bool",
          "name": "",
          "type": "bool"
        }
      ],
      "stateMutability": "nonpayable",
      "type": "function"
    },
    {
      "inputs": [
        {
          "internalType": "address",
          "name": "idprovider",
          "type": "address"
        },
        {
          "internalType": "string",
          "name": "did",
          "type": "string"
        },
        {
          "internalType": "string",
          "name": "name",
          "type": "string"
        }
      ],
      "name": "updateIdentityProvider",
      "outputs": [
        {
          "internalType": "bool",
          "name": "",
          "type": "bool"
        }
      ],
      "stateMutability": "nonpayable",
      "type": "function"
    },
    {
      "inputs": [
        {
          "internalType": "uint256",
          "name": "newExpiration",
          "type": "uint256"
        }
      ],
      "name": "updateExpiration",
      "outputs": [
        {
          "internalType": "bool",
          "name": "",
          "type": "bool"
        }
      ],
      "stateMutability": "nonpayable",
      "type": "function"
    },
    {
      "inputs": [
        {
          "internalType": "address",
          "name": "userAddr",
          "type": "address"
        }
      ],
      "name": "revokeUser",
      "outputs": [
        {
          "internalType": "bool",
          "name": "",
          "type": "bool"
        }
      ],
      "stateMutability": "nonpayable",
      "type": "function"
    },
    {
      "inputs": [
        {
          "internalType": "address",
          "name": "userAddr",
          "type": "address"
        }
      ],
      "name": "reactivateUser",
      "outputs": [
        {
          "internalType": "bool",
          "name": "",
          "type": "bool"
        }
      ],
      "stateMutability": "nonpayable",
      "type": "function"
    },
    {
      "inputs": [
        {
          "internalType": "address",
          "name": "userAddr",
          "type": "address"
        }
      ],
      "name": "renewExpiredUser",
      "outputs": [
        {
          "internalType": "bool",
          "name": "",
          "type": "bool"
        }
      ],
      "stateMutability": "nonpayable",
      "type": "function"
    },
    {
      "inputs": [
        {
          "internalType": "bytes32",
          "name": "hash",
          "type": "bytes32"
        },
        {
          "internalType": "address",
          "name": "idpAddress",
          "type": "address"
        },
        {
          "internalType": "address",
          "name": "userAddr",
          "type": "address"
        },
        {
          "internalType": "uint8",
          "name": "sig_v",
          "type": "uint8"
        },
        {
          "internalType": "bytes32",
          "name": "sig_r",
          "type": "bytes32"
        },
        {
          "internalType": "bytes32",
          "name": "sig_s",
          "type": "bytes32"
        }
      ],
      "name": "addVerifiedUser",
      "outputs": [],
      "stateMutability": "nonpayable",
      "type": "function"
    }
  ],
  "bytecode": "0x6080604052618e946005553480156200001757600080fd5b506000600167ffffffffffffffff81111562000038576200003762000149565b5b604051908082528060200260200182016040528015620000675781602001602082028036833780820191505090505b509050338160008151811062000082576200008162000178565b5b602002602001019073ffffffffffffffffffffffffffffffffffffffff16908173ffffffffffffffffffffffffffffffffffffffff168152505080604051620000cb906200013b565b620000d791906200030a565b604051809103906000f080158015620000f4573d6000803e3d6000fd5b506000806101000a81548173ffffffffffffffffffffffffffffffffffffffff021916908373ffffffffffffffffffffffffffffffffffffffff1602179055505062000343565b6133888062002e8d83390190565b7f4e487b7100000000000000000000000000000000000000000000000000000000600052604160045260246000fd5b7f4e487b7100000000000000000000000000000000000000000000000000000000600052603260045260246000fd5b600081519050919050565b600082825260208201905092915050565b6000819050602082019050919050565b600073ffffffffffffffffffffffffffffffffffffffff82169050919050565b60006200020082620001d3565b9050919050565b6200021281620001f3565b82525050565b600062000226838362000207565b60208301905092915050565b6000602082019050919050565b60006200024c82620001a7565b620002588185620001b2565b93506200026583620001c3565b8060005b838110156200029c57815162000280888262000218565b97506200028d8362000232565b92505060018101905062000269565b5085935050505092915050565b600082825260208201905092915050565b7f4964656e74697479204d616e6167656d656e742041646d696e73000000000000600082015250565b6000620002f2601a83620002a9565b9150620002ff82620002ba565b602082019050919050565b600060408201905081810360008301526200032681846200023f565b905081810360208301526200033b81620002e3565b905092915050565b612b3a80620003536000396000f3fe608060405234801561001057600080fd5b50600436106100ea5760003560e01c80639eea6f991161008c578063c65fbf1f11610066578063c65fbf1f1461029a578063d291b866146102cd578063ef097fc4146102e9578063f0e6257c14610319576100ea565b80639eea6f991461022e578063a739a2e41461024c578063b5b90fd91461026a576100ea565b80637071a0f6116100c85780637071a0f61461016e57806381a294571461019e57806399817511146101ce5780639d3358e9146101fe576100ea565b8063038defd7146100ef5780630835f09d146101205780634b4198f21461013e575b600080fd5b610109600480360381019061010491906119df565b610349565b604051610117929190611a40565b60405180910390f35b61012861037a565b6040516101359190611b27565b60405180910390f35b610158600480360381019061015391906119df565b610462565b6040516101659190611b49565b60405180910390f35b610188600480360381019061018391906119df565b610643565b6040516101959190611b49565b60405180910390f35b6101b860048036038101906101b391906119df565b6107f6565b6040516101c59190611b49565b60405180910390f35b6101e860048036038101906101e39190611bc9565b6109bd565b6040516101f59190611b49565b60405180910390f35b61021860048036038101906102139190611bc9565b610d39565b6040516102259190611b49565b60405180910390f35b610236610f5a565b6040516102439190611c5e565b60405180910390f35b610254610f60565b6040516102619190611cd8565b60405180910390f35b610284600480360381019061027f91906119df565b610f84565b6040516102919190611b49565b60405180910390f35b6102b460048036038101906102af91906119df565b611086565b6040516102c49493929190611d83565b60405180910390f35b6102e760048036038101906102e29190611e45565b6111d3565b005b61030360048036038101906102fe91906119df565b611383565b6040516103109190611b49565b60405180910390f35b610333600480360381019061032e9190611efe565b61154a565b6040516103409190611b49565b60405180910390f35b60046020528060005260406000206000915090508060000154908060010160009054906101000a900460ff16905082565b60606000610388600161163b565b67ffffffffffffffff8111156103a1576103a0611f2b565b5b6040519080825280602002602001820160405280156103cf5781602001602082028036833780820191505090505b50905060005b6103df600161163b565b81101561045a576103fa81600161165090919063ffffffff16565b82828151811061040d5761040c611f5a565b5b602002602001019073ffffffffffffffffffffffffffffffffffffffff16908173ffffffffffffffffffffffffffffffffffffffff1681525050808061045290611fb8565b9150506103d5565b508091505090565b600061047882600161166a90919063ffffffff16565b6104b7576040517f08c379a00000000000000000000000000000000000000000000000000000000081526004016104ae90612072565b60405180910390fd5b60006001836040516020016104cd929190612178565b604051602081830303815290604052905060008054906101000a900473ffffffffffffffffffffffffffffffffffffffff1673ffffffffffffffffffffffffffffffffffffffff16637e3ff48d82336040518363ffffffff1660e01b8152600401610539929190612208565b6020604051808303816000875af1158015610558573d6000803e3d6000fd5b505050506040513d601f19601f8201168201806040525081019061057c9190612264565b1515600015150361059157600091505061063e565b6105a583600161169a90919063ffffffff16565b506000600360008573ffffffffffffffffffffffffffffffffffffffff1673ffffffffffffffffffffffffffffffffffffffff16815260200190815260200160002060030160006101000a81548160ff0219169083151502179055507f5f4d9edfb10d99c2262b543b69b77a342522837e1a1bb3262717c2c04ecab5d5836040516106309190612291565b60405180910390a160019150505b919050565b6000600460008373ffffffffffffffffffffffffffffffffffffffff1673ffffffffffffffffffffffffffffffffffffffff168152602001908152602001600020600001546000036106ca576040517f08c379a00000000000000000000000000000000000000000000000000000000081526004016106c1906122f8565b60405180910390fd5b60006006836040516020016106e0929190612178565b604051602081830303815290604052905060008054906101000a900473ffffffffffffffffffffffffffffffffffffffff1673ffffffffffffffffffffffffffffffffffffffff16637e3ff48d82336040518363ffffffff1660e01b815260040161074c929190612208565b6020604051808303816000875af115801561076b573d6000803e3d6000fd5b505050506040513d601f19601f8201168201806040525081019061078f9190612264565b151560001515036107a45760009150506107f1565b42600460008573ffffffffffffffffffffffffffffffffffffffff1673ffffffffffffffffffffffffffffffffffffffff1681526020019081526020016000206000018190555060019150505b919050565b6000600460008373ffffffffffffffffffffffffffffffffffffffff1673ffffffffffffffffffffffffffffffffffffffff1681526020019081526020016000206000015460000361087d576040517f08c379a0000000000000000000000000000000000000000000000000000000008152600401610874906122f8565b60405180910390fd5b6000600583604051602001610893929190612178565b604051602081830303815290604052905060008054906101000a900473ffffffffffffffffffffffffffffffffffffffff1673ffffffffffffffffffffffffffffffffffffffff16637e3ff48d82336040518363ffffffff1660e01b81526004016108ff929190612208565b6020604051808303816000875af115801561091e573d6000803e3d6000fd5b505050506040513d601f19601f820116820180604052508101906109429190612264565b151560001515036109575760009150506109b8565b6001600460008573ffffffffffffffffffffffffffffffffffffffff1673ffffffffffffffffffffffffffffffffffffffff16815260200190815260200160002060010160006101000a81548160ff02191690831515021790555060019150505b919050565b60006109d386600161166a90919063ffffffff16565b15610a13576040517f08c379a0000000000000000000000000000000000000000000000000000000008152600401610a0a90612364565b60405180910390fd5b6000808787878787604051602001610a30969594939291906123c3565b6040516020818303038152906040529050600360008873ffffffffffffffffffffffffffffffffffffffff1673ffffffffffffffffffffffffffffffffffffffff16815260200190815260200160002060020154600003610bd057604051806080016040528085858080601f016020809104026020016040519081016040528093929190818152602001838380828437600081840152601f19601f82011690508083019250505050505050815260200187878080601f016020809104026020016040519081016040528093929190818152602001838380828437600081840152601f19601f82011690508083019250505050505050815260200142815260200160001515815250600360008973ffffffffffffffffffffffffffffffffffffffff1673ffffffffffffffffffffffffffffffffffffffff1681526020019081526020016000206000820151816000019081610b8b919061260f565b506020820151816001019081610ba1919061260f565b506040820151816002015560608201518160030160006101000a81548160ff0219169083151502179055509050505b60008054906101000a900473ffffffffffffffffffffffffffffffffffffffff1673ffffffffffffffffffffffffffffffffffffffff16637e3ff48d82336040518363ffffffff1660e01b8152600401610c2b929190612208565b6020604051808303816000875af1158015610c4a573d6000803e3d6000fd5b505050506040513d601f19601f82011682018060405250810190610c6e9190612264565b15156000151503610c83576000915050610d30565b610c978760016116ca90919063ffffffff16565b506001600360008973ffffffffffffffffffffffffffffffffffffffff1673ffffffffffffffffffffffffffffffffffffffff16815260200190815260200160002060030160006101000a81548160ff0219169083151502179055507fa885c0a202d9c728f3e159840be354fe62d3ba5a40e54fa169c3adcf08cf489987604051610d229190612291565b60405180910390a160019150505b95945050505050565b6000610d4f86600161166a90919063ffffffff16565b610d8e576040517f08c379a0000000000000000000000000000000000000000000000000000000008152600401610d8590612072565b60405180910390fd5b600060028787878787604051602001610dac969594939291906123c3565b604051602081830303815290604052905060008054906101000a900473ffffffffffffffffffffffffffffffffffffffff1673ffffffffffffffffffffffffffffffffffffffff16637e3ff48d82336040518363ffffffff1660e01b8152600401610e18929190612208565b6020604051808303816000875af1158015610e37573d6000803e3d6000fd5b505050506040513d601f19601f82011682018060405250810190610e5b9190612264565b15156000151503610e70576000915050610f51565b8585600360008a73ffffffffffffffffffffffffffffffffffffffff1673ffffffffffffffffffffffffffffffffffffffff1681526020019081526020016000206001019182610ec19291906126ec565b508383600360008a73ffffffffffffffffffffffffffffffffffffffff1673ffffffffffffffffffffffffffffffffffffffff1681526020019081526020016000206000019182610f139291906126ec565b507ff2524531ffe0f0fdf6add004f1264b84fbc0d844157c541dcd7536321c61b80b87604051610f439190612291565b60405180910390a160019150505b95945050505050565b60055481565b60008054906101000a900473ffffffffffffffffffffffffffffffffffffffff1681565b6000600460008373ffffffffffffffffffffffffffffffffffffffff1673ffffffffffffffffffffffffffffffffffffffff1681526020019081526020016000206000015460001461107c576000600460008473ffffffffffffffffffffffffffffffffffffffff1673ffffffffffffffffffffffffffffffffffffffff16815260200190815260200160002090508060010160009054906101000a900460ff16611033576000915050611081565b620151804261104291906127eb565b60055462015180836000015461105891906127eb565b611062919061281c565b1015611072576000915050611081565b6001915050611081565b600090505b919050565b60036020528060005260406000206000915090508060000180546110a99061243c565b80601f01602080910402602001604051908101604052809291908181526020018280546110d59061243c565b80156111225780601f106110f757610100808354040283529160200191611122565b820191906000526020600020905b81548152906001019060200180831161110557829003601f168201915b5050505050908060010180546111379061243c565b80601f01602080910402602001604051908101604052809291908181526020018280546111639061243c565b80156111b05780601f10611185576101008083540402835291602001916111b0565b820191906000526020600020905b81548152906001019060200180831161119357829003601f168201915b5050505050908060020154908060030160009054906101000a900460ff16905084565b6111e785600161166a90919063ffffffff16565b611226576040517f08c379a000000000000000000000000000000000000000000000000000000000815260040161121d906128c2565b60405180910390fd5b600460008573ffffffffffffffffffffffffffffffffffffffff1673ffffffffffffffffffffffffffffffffffffffff168152602001908152602001600020600001546000146112ab576040517f08c379a00000000000000000000000000000000000000000000000000000000081526004016112a29061292e565b60405180910390fd5b6112b886868585856116fa565b6112f7576040517f08c379a00000000000000000000000000000000000000000000000000000000081526004016112ee906129c0565b60405180910390fd5b604051806040016040528042815260200160011515815250600460008673ffffffffffffffffffffffffffffffffffffffff1673ffffffffffffffffffffffffffffffffffffffff1681526020019081526020016000206000820151816000015560208201518160010160006101000a81548160ff021916908315150217905550905050505050505050565b6000600460008373ffffffffffffffffffffffffffffffffffffffff1673ffffffffffffffffffffffffffffffffffffffff1681526020019081526020016000206000015460000361140a576040517f08c379a0000000000000000000000000000000000000000000000000000000008152600401611401906122f8565b60405180910390fd5b6000600483604051602001611420929190612178565b604051602081830303815290604052905060008054906101000a900473ffffffffffffffffffffffffffffffffffffffff1673ffffffffffffffffffffffffffffffffffffffff16637e3ff48d82336040518363ffffffff1660e01b815260040161148c929190612208565b6020604051808303816000875af11580156114ab573d6000803e3d6000fd5b505050506040513d601f19601f820116820180604052508101906114cf9190612264565b151560001515036114e4576000915050611545565b6000600460008573ffffffffffffffffffffffffffffffffffffffff1673ffffffffffffffffffffffffffffffffffffffff16815260200190815260200160002060010160006101000a81548160ff02191690831515021790555060019150505b919050565b60008060036005548460405160200161156593929190612a01565b604051602081830303815290604052905060008054906101000a900473ffffffffffffffffffffffffffffffffffffffff1673ffffffffffffffffffffffffffffffffffffffff16637e3ff48d82336040518363ffffffff1660e01b81526004016115d1929190612208565b6020604051808303816000875af11580156115f0573d6000803e3d6000fd5b505050506040513d601f19601f820116820180604052508101906116149190612264565b15156000151503611629576000915050611636565b8260058190555060019150505b919050565b600061164982600001611794565b9050919050565b600061165f83600001836117a5565b60001c905092915050565b6000611692836000018373ffffffffffffffffffffffffffffffffffffffff1660001b6117d0565b905092915050565b60006116c2836000018373ffffffffffffffffffffffffffffffffffffffff1660001b6117f3565b905092915050565b60006116f2836000018373ffffffffffffffffffffffffffffffffffffffff1660001b611907565b905092915050565b60006001868585856040516000815260200160405260405161171f9493929190612a5c565b6020604051602081039080840390855afa158015611741573d6000803e3d6000fd5b5050506020604051035173ffffffffffffffffffffffffffffffffffffffff168573ffffffffffffffffffffffffffffffffffffffff1603611786576001905061178b565b600090505b95945050505050565b600081600001805490509050919050565b60008260000182815481106117bd576117bc611f5a565b5b9060005260206000200154905092915050565b600080836001016000848152602001908152602001600020541415905092915050565b600080836001016000848152602001908152602001600020549050600081146118fb5760006001826118259190612aa1565b905060006001866000018054905061183d9190612aa1565b90508181146118ac57600086600001828154811061185e5761185d611f5a565b5b906000526020600020015490508087600001848154811061188257611881611f5a565b5b90600052602060002001819055508387600101600083815260200190815260200160002081905550505b856000018054806118c0576118bf612ad5565b5b600190038181906000526020600020016000905590558560010160008681526020019081526020016000206000905560019350505050611901565b60009150505b92915050565b600061191383836117d0565b61196c578260000182908060018154018082558091505060019003906000526020600020016000909190919091505582600001805490508360010160008481526020019081526020016000208190555060019050611971565b600090505b92915050565b600080fd5b600080fd5b600073ffffffffffffffffffffffffffffffffffffffff82169050919050565b60006119ac82611981565b9050919050565b6119bc816119a1565b81146119c757600080fd5b50565b6000813590506119d9816119b3565b92915050565b6000602082840312156119f5576119f4611977565b5b6000611a03848285016119ca565b91505092915050565b6000819050919050565b611a1f81611a0c565b82525050565b60008115159050919050565b611a3a81611a25565b82525050565b6000604082019050611a556000830185611a16565b611a626020830184611a31565b9392505050565b600081519050919050565b600082825260208201905092915050565b6000819050602082019050919050565b611a9e816119a1565b82525050565b6000611ab08383611a95565b60208301905092915050565b6000602082019050919050565b6000611ad482611a69565b611ade8185611a74565b9350611ae983611a85565b8060005b83811015611b1a578151611b018882611aa4565b9750611b0c83611abc565b925050600181019050611aed565b5085935050505092915050565b60006020820190508181036000830152611b418184611ac9565b905092915050565b6000602082019050611b5e6000830184611a31565b92915050565b600080fd5b600080fd5b600080fd5b60008083601f840112611b8957611b88611b64565b5b8235905067ffffffffffffffff811115611ba657611ba5611b69565b5b602083019150836001820283011115611bc257611bc1611b6e565b5b9250929050565b600080600080600060608688031215611be557611be4611977565b5b6000611bf3888289016119ca565b955050602086013567ffffffffffffffff811115611c1457611c1361197c565b5b611c2088828901611b73565b9450945050604086013567ffffffffffffffff811115611c4357611c4261197c565b5b611c4f88828901611b73565b92509250509295509295909350565b6000602082019050611c736000830184611a16565b92915050565b6000819050919050565b6000611c9e611c99611c9484611981565b611c79565b611981565b9050919050565b6000611cb082611c83565b9050919050565b6000611cc282611ca5565b9050919050565b611cd281611cb7565b82525050565b6000602082019050611ced6000830184611cc9565b92915050565b600081519050919050565b600082825260208201905092915050565b60005b83811015611d2d578082015181840152602081019050611d12565b60008484015250505050565b6000601f19601f8301169050919050565b6000611d5582611cf3565b611d5f8185611cfe565b9350611d6f818560208601611d0f565b611d7881611d39565b840191505092915050565b60006080820190508181036000830152611d9d8187611d4a565b90508181036020830152611db18186611d4a565b9050611dc06040830185611a16565b611dcd6060830184611a31565b95945050505050565b6000819050919050565b611de981611dd6565b8114611df457600080fd5b50565b600081359050611e0681611de0565b92915050565b600060ff82169050919050565b611e2281611e0c565b8114611e2d57600080fd5b50565b600081359050611e3f81611e19565b92915050565b60008060008060008060c08789031215611e6257611e61611977565b5b6000611e7089828a01611df7565b9650506020611e8189828a016119ca565b9550506040611e9289828a016119ca565b9450506060611ea389828a01611e30565b9350506080611eb489828a01611df7565b92505060a0611ec589828a01611df7565b9150509295509295509295565b611edb81611a0c565b8114611ee657600080fd5b50565b600081359050611ef881611ed2565b92915050565b600060208284031215611f1457611f13611977565b5b6000611f2284828501611ee9565b91505092915050565b7f4e487b7100000000000000000000000000000000000000000000000000000000600052604160045260246000fd5b7f4e487b7100000000000000000000000000000000000000000000000000000000600052603260045260246000fd5b7f4e487b7100000000000000000000000000000000000000000000000000000000600052601160045260246000fd5b6000611fc382611a0c565b91507fffffffffffffffffffffffffffffffffffffffffffffffffffffffffffffffff8203611ff557611ff4611f89565b5b600182019050919050565b7f4964656e746974792070726f766964657220646f6573206e6f7420657869737460008201527f2e00000000000000000000000000000000000000000000000000000000000000602082015250565b600061205c602183611cfe565b915061206782612000565b604082019050919050565b6000602082019050818103600083015261208b8161204f565b9050919050565b7f4e487b7100000000000000000000000000000000000000000000000000000000600052602160045260246000fd5b600781106120d2576120d1612092565b5b50565b60008190506120e3826120c1565b919050565b60006120f3826120d5565b9050919050565b60008160f81b9050919050565b6000612112826120fa565b9050919050565b61212a612125826120e8565b612107565b82525050565b60008160601b9050919050565b600061214882612130565b9050919050565b600061215a8261213d565b9050919050565b61217261216d826119a1565b61214f565b82525050565b60006121848285612119565b6001820191506121948284612161565b6014820191508190509392505050565b600081519050919050565b600082825260208201905092915050565b60006121cb826121a4565b6121d581856121af565b93506121e5818560208601611d0f565b6121ee81611d39565b840191505092915050565b612202816119a1565b82525050565b6000604082019050818103600083015261222281856121c0565b905061223160208301846121f9565b9392505050565b61224181611a25565b811461224c57600080fd5b50565b60008151905061225e81612238565b92915050565b60006020828403121561227a57612279611977565b5b60006122888482850161224f565b91505092915050565b60006020820190506122a660008301846121f9565b92915050565b7f546865207573657220646f6573206e6f742065786973742e0000000000000000600082015250565b60006122e2601883611cfe565b91506122ed826122ac565b602082019050919050565b60006020820190508181036000830152612311816122d5565b9050919050565b7f4964656e746974792070726f766964657220616c72656164792065786973742e600082015250565b600061234e602083611cfe565b915061235982612318565b602082019050919050565b6000602082019050818103600083015261237d81612341565b9050919050565b600081905092915050565b82818337600083830152505050565b60006123aa8385612384565b93506123b783858461238f565b82840190509392505050565b60006123cf8289612119565b6001820191506123df8288612161565b6014820191506123f082868861239e565b91506123fd82848661239e565b9150819050979650505050505050565b7f4e487b7100000000000000000000000000000000000000000000000000000000600052602260045260246000fd5b6000600282049050600182168061245457607f821691505b6020821081036124675761246661240d565b5b50919050565b60008190508160005260206000209050919050565b60006020601f8301049050919050565b600082821b905092915050565b6000600883026124cf7fffffffffffffffffffffffffffffffffffffffffffffffffffffffffffffffff82612492565b6124d98683612492565b95508019841693508086168417925050509392505050565b600061250c61250761250284611a0c565b611c79565b611a0c565b9050919050565b6000819050919050565b612526836124f1565b61253a61253282612513565b84845461249f565b825550505050565b600090565b61254f612542565b61255a81848461251d565b505050565b5b8181101561257e57612573600082612547565b600181019050612560565b5050565b601f8211156125c3576125948161246d565b61259d84612482565b810160208510156125ac578190505b6125c06125b885612482565b83018261255f565b50505b505050565b600082821c905092915050565b60006125e6600019846008026125c8565b1980831691505092915050565b60006125ff83836125d5565b9150826002028217905092915050565b61261882611cf3565b67ffffffffffffffff81111561263157612630611f2b565b5b61263b825461243c565b612646828285612582565b600060209050601f8311600181146126795760008415612667578287015190505b61267185826125f3565b8655506126d9565b601f1984166126878661246d565b60005b828110156126af5784890151825560018201915060208501945060208101905061268a565b868310156126cc57848901516126c8601f8916826125d5565b8355505b6001600288020188555050505b505050505050565b600082905092915050565b6126f683836126e1565b67ffffffffffffffff81111561270f5761270e611f2b565b5b612719825461243c565b612724828285612582565b6000601f8311600181146127535760008415612741578287013590505b61274b85826125f3565b8655506127b3565b601f1984166127618661246d565b60005b8281101561278957848901358255600182019150602085019450602081019050612764565b868310156127a657848901356127a2601f8916826125d5565b8355505b6001600288020188555050505b50505050505050565b7f4e487b7100000000000000000000000000000000000000000000000000000000600052601260045260246000fd5b60006127f682611a0c565b915061280183611a0c565b925082612811576128106127bc565b5b828204905092915050565b600061282782611a0c565b915061283283611a0c565b925082820190508082111561284a57612849611f89565b5b92915050565b7f5061737365642061646472657373206f66206e6f6e2d6578697374696e67206960008201527f64656e746974792070726f76696465722e000000000000000000000000000000602082015250565b60006128ac603183611cfe565b91506128b782612850565b604082019050919050565b600060208201905081810360008301526128db8161289f565b9050919050565b7f546865207573657220616c7265616479206578697374732e0000000000000000600082015250565b6000612918601883611cfe565b9150612923826128e2565b602082019050919050565b600060208201905081810360008301526129478161290b565b9050919050565b7f45637265636f7665723a207369676e6174757265206f66206964656e7469747960008201527f2070726f7669646572206973206e6f7420636f72726563742e00000000000000602082015250565b60006129aa603983611cfe565b91506129b58261294e565b604082019050919050565b600060208201905081810360008301526129d98161299d565b9050919050565b6000819050919050565b6129fb6129f682611a0c565b6129e0565b82525050565b6000612a0d8286612119565b600182019150612a1d82856129ea565b602082019150612a2d82846129ea565b602082019150819050949350505050565b612a4781611dd6565b82525050565b612a5681611e0c565b82525050565b6000608082019050612a716000830187612a3e565b612a7e6020830186612a4d565b612a8b6040830185612a3e565b612a986060830184612a3e565b95945050505050565b6000612aac82611a0c565b9150612ab783611a0c565b9250828203905081811115612acf57612ace611f89565b5b92915050565b7f4e487b7100000000000000000000000000000000000000000000000000000000600052603160045260246000fdfea2646970667358221220f60ff5e94974313f4133cfa10e73229f905a87618d85952ea951d28cc8a8726464736f6c6343000811003360806040523480156200001157600080fd5b5060405162003388380380620033888339818101604052810190620000379190620005d5565b8181620000596200004d6200016160201b60201c565b6200016960201b60201c565b80600390816200006a9190620008a5565b5060005b825181101562000156578281815181106200008e576200008d6200098c565b5b602002602001015173ffffffffffffffffffffffffffffffffffffffff16600073ffffffffffffffffffffffffffffffffffffffff160362000107576040517f08c379a0000000000000000000000000000000000000000000000000000000008152600401620000fe9062000a1c565b60405180910390fd5b6200013f8382815181106200012157620001206200098c565b5b602002602001015160016200022d60201b620016ed1790919060201c565b5080806200014d9062000a6d565b9150506200006e565b505050505062000aba565b600033905090565b60008060009054906101000a900473ffffffffffffffffffffffffffffffffffffffff169050816000806101000a81548173ffffffffffffffffffffffffffffffffffffffff021916908373ffffffffffffffffffffffffffffffffffffffff1602179055508173ffffffffffffffffffffffffffffffffffffffff168173ffffffffffffffffffffffffffffffffffffffff167f8be0079c531659141344cd1fd0a4f28419497f9722a3daafe3b4186f6b6457e060405160405180910390a35050565b60006200025d836000018373ffffffffffffffffffffffffffffffffffffffff1660001b6200026560201b60201c565b905092915050565b6000620002798383620002df60201b60201c565b620002d4578260000182908060018154018082558091505060019003906000526020600020016000909190919091505582600001805490508360010160008481526020019081526020016000208190555060019050620002d9565b600090505b92915050565b600080836001016000848152602001908152602001600020541415905092915050565b6000604051905090565b600080fd5b600080fd5b600080fd5b6000601f19601f8301169050919050565b7f4e487b7100000000000000000000000000000000000000000000000000000000600052604160045260246000fd5b62000366826200031b565b810181811067ffffffffffffffff821117156200038857620003876200032c565b5b80604052505050565b60006200039d62000302565b9050620003ab82826200035b565b919050565b600067ffffffffffffffff821115620003ce57620003cd6200032c565b5b602082029050602081019050919050565b600080fd5b600073ffffffffffffffffffffffffffffffffffffffff82169050919050565b60006200041182620003e4565b9050919050565b620004238162000404565b81146200042f57600080fd5b50565b600081519050620004438162000418565b92915050565b6000620004606200045a84620003b0565b62000391565b90508083825260208201905060208402830185811115620004865762000485620003df565b5b835b81811015620004b357806200049e888262000432565b84526020840193505060208101905062000488565b5050509392505050565b600082601f830112620004d557620004d462000316565b5b8151620004e784826020860162000449565b91505092915050565b600080fd5b600067ffffffffffffffff8211156200051357620005126200032c565b5b6200051e826200031b565b9050602081019050919050565b60005b838110156200054b5780820151818401526020810190506200052e565b60008484015250505050565b60006200056e6200056884620004f5565b62000391565b9050828152602081018484840111156200058d576200058c620004f0565b5b6200059a8482856200052b565b509392505050565b600082601f830112620005ba57620005b962000316565b5b8151620005cc84826020860162000557565b91505092915050565b60008060408385031215620005ef57620005ee6200030c565b5b600083015167ffffffffffffffff81111562000610576200060f62000311565b5b6200061e85828601620004bd565b925050602083015167ffffffffffffffff81111562000642576200064162000311565b5b6200065085828601620005a2565b9150509250929050565b600081519050919050565b7f4e487b7100000000000000000000000000000000000000000000000000000000600052602260045260246000fd5b60006002820490506001821680620006ad57607f821691505b602082108103620006c357620006c262000665565b5b50919050565b60008190508160005260206000209050919050565b60006020601f8301049050919050565b600082821b905092915050565b6000600883026200072d7fffffffffffffffffffffffffffffffffffffffffffffffffffffffffffffffff82620006ee565b620007398683620006ee565b95508019841693508086168417925050509392505050565b6000819050919050565b6000819050919050565b600062000786620007806200077a8462000751565b6200075b565b62000751565b9050919050565b6000819050919050565b620007a28362000765565b620007ba620007b1826200078d565b848454620006fb565b825550505050565b600090565b620007d1620007c2565b620007de81848462000797565b505050565b5b818110156200080657620007fa600082620007c7565b600181019050620007e4565b5050565b601f82111562000855576200081f81620006c9565b6200082a84620006de565b810160208510156200083a578190505b620008526200084985620006de565b830182620007e3565b50505b505050565b600082821c905092915050565b60006200087a600019846008026200085a565b1980831691505092915050565b600062000895838362000867565b9150826002028217905092915050565b620008b0826200065a565b67ffffffffffffffff811115620008cc57620008cb6200032c565b5b620008d8825462000694565b620008e58282856200080a565b600060209050601f8311600181146200091d576000841562000908578287015190505b62000914858262000887565b86555062000984565b601f1984166200092d86620006c9565b60005b82811015620009575784890151825560018201915060208501945060208101905062000930565b8683101562000977578489015162000973601f89168262000867565b8355505b6001600288020188555050505b505050505050565b7f4e487b7100000000000000000000000000000000000000000000000000000000600052603260045260246000fd5b600082825260208201905092915050565b7f5a65726f2061646472657373207061737365642e000000000000000000000000600082015250565b600062000a04601483620009bb565b915062000a1182620009cc565b602082019050919050565b6000602082019050818103600083015262000a3781620009f5565b9050919050565b7f4e487b7100000000000000000000000000000000000000000000000000000000600052601160045260246000fd5b600062000a7a8262000751565b91507fffffffffffffffffffffffffffffffffffffffffffffffffffffffffffffffff820362000aaf5762000aae62000a3e565b5b600182019050919050565b6128be8062000aca6000396000f3fe608060405234801561001057600080fd5b50600436106101165760003560e01c80637e3ff48d116100a2578063a230c52411610071578063a230c52414610309578063ca6d56dc14610339578063d218e60c14610355578063f2fde38b14610385578063f32d30a7146103a157610116565b80637e3ff48d1461027f57806381b89421146102af5780638da5cb5b146102cd5780639eab5253146102eb57610116565b80635569e65f116100e95780635569e65f146101c7578063609f3993146101f7578063659667d714610215578063715018a614610245578063729018a51461024f57610116565b806309905afe1461011b5780630b1ca49a1461014b57806320e7a940146101675780632c80177e14610197575b600080fd5b61013560048036038101906101309190611cf3565b6103d1565b6040516101429190611d3b565b60405180910390f35b61016560048036038101906101609190611db4565b6104db565b005b610181600480360381019061017c9190611db4565b6106a1565b60405161018e9190611e9f565b60405180910390f35b6101b160048036038101906101ac9190611cf3565b610842565b6040516101be9190611f51565b60405180910390f35b6101e160048036038101906101dc9190611cf3565b6108e2565b6040516101ee9190611e9f565b60405180910390f35b6101ff6109ff565b60405161020c9190611fc8565b60405180910390f35b61022f600480360381019061022a9190611cf3565b610a8d565b60405161023c9190611e9f565b60405180910390f35b61024d610baa565b005b61026960048036038101906102649190611db4565b610bbe565b6040516102769190611e9f565b60405180910390f35b6102996004803603810190610294919061204f565b610d5f565b6040516102a69190611d3b565b60405180910390f35b6102b7610f08565b6040516102c4919061216d565b60405180910390f35b6102d5610fc2565b6040516102e2919061219e565b60405180910390f35b6102f3610feb565b6040516103009190611e9f565b60405180910390f35b610323600480360381019061031e9190611db4565b6110d3565b6040516103309190611d3b565b60405180910390f35b610353600480360381019061034e9190611db4565b6110f0565b005b61036f600480360381019061036a9190611db4565b6112b6565b60405161037c9190611e9f565b60405180910390f35b61039f600480360381019061039a9190611db4565b611457565b005b6103bb60048036038101906103b69190611db4565b6114da565b6040516103c89190611d3b565b60405180910390f35b60006103dc336110d3565b61041b576040517f08c379a00000000000000000000000000000000000000000000000000000000081526004016104129061222b565b60405180910390fd5b61044033600b60008581526020019081526020016000206116ed90919063ffffffff16565b5061046861045f600b600085815260200190815260200160002061171d565b61ffff16611732565b156104d157610476826117c3565b610491600b6000848152602001908152602001600020611815565b7fe9ce83cfa6d68ebf6fd914cf4c019bfe4b01414791d0705ebbb67445e6cfabf0826040516104c0919061225a565b60405180910390a1600190506104d6565b600090505b919050565b6104e4336110d3565b610523576040517f08c379a000000000000000000000000000000000000000000000000000000000815260040161051a9061222b565b60405180910390fd5b61057433600560008473ffffffffffffffffffffffffffffffffffffffff1673ffffffffffffffffffffffffffffffffffffffff1681526020019081526020016000206116ed90919063ffffffff16565b506105c46105bf600560008473ffffffffffffffffffffffffffffffffffffffff1673ffffffffffffffffffffffffffffffffffffffff16815260200190815260200160002061171d565b611732565b1561069e576105dd81600161185590919063ffffffff16565b1561061e577f6e76fb4c77256006d9c38ec7d82b45a8c8f3c27b1d6766fffc42dfb8de68449281604051610611919061219e565b60405180910390a1610656565b7fa64ad4db878396be678e69ce4a12a7e9d176a72de6fe6654328fbcd4c594e3e18160405161064d919061219e565b60405180910390a15b61069d600560008373ffffffffffffffffffffffffffffffffffffffff1673ffffffffffffffffffffffffffffffffffffffff168152602001908152602001600020611815565b5b50565b606060006106ec600560008573ffffffffffffffffffffffffffffffffffffffff1673ffffffffffffffffffffffffffffffffffffffff16815260200190815260200160002061171d565b67ffffffffffffffff81111561070557610704612275565b5b6040519080825280602002602001820160405280156107335781602001602082028036833780820191505090505b50905060005b610780600560008673ffffffffffffffffffffffffffffffffffffffff1673ffffffffffffffffffffffffffffffffffffffff16815260200190815260200160002061171d565b811015610838576107d881600560008773ffffffffffffffffffffffffffffffffffffffff1673ffffffffffffffffffffffffffffffffffffffff16815260200190815260200160002061188590919063ffffffff16565b8282815181106107eb576107ea6122a4565b5b602002602001019073ffffffffffffffffffffffffffffffffffffffff16908173ffffffffffffffffffffffffffffffffffffffff168152505080806108309061230c565b915050610739565b5080915050919050565b600a602052806000526040600020600091509050805461086190612383565b80601f016020809104026020016040519081016040528092919081815260200182805461088d90612383565b80156108da5780601f106108af576101008083540402835291602001916108da565b820191906000526020600020905b8154815290600101906020018083116108bd57829003601f168201915b505050505081565b60606000610901600b600085815260200190815260200160002061171d565b67ffffffffffffffff81111561091a57610919612275565b5b6040519080825280602002602001820160405280156109485781602001602082028036833780820191505090505b50905060005b610969600b600086815260200190815260200160002061171d565b8110156109f55761099581600b600087815260200190815260200160002061188590919063ffffffff16565b8282815181106109a8576109a76122a4565b5b602002602001019073ffffffffffffffffffffffffffffffffffffffff16908173ffffffffffffffffffffffffffffffffffffffff168152505080806109ed9061230c565b91505061094e565b5080915050919050565b60038054610a0c90612383565b80601f0160208091040260200160405190810160405280929190818152602001828054610a3890612383565b8015610a855780601f10610a5a57610100808354040283529160200191610a85565b820191906000526020600020905b815481529060010190602001808311610a6857829003601f168201915b505050505081565b60606000610aac6007600085815260200190815260200160002061171d565b67ffffffffffffffff811115610ac557610ac4612275565b5b604051908082528060200260200182016040528015610af35781602001602082028036833780820191505090505b50905060005b610b146007600086815260200190815260200160002061171d565b811015610ba057610b40816007600087815260200190815260200160002061188590919063ffffffff16565b828281518110610b5357610b526122a4565b5b602002602001019073ffffffffffffffffffffffffffffffffffffffff16908173ffffffffffffffffffffffffffffffffffffffff16815250508080610b989061230c565b915050610af9565b5080915050919050565b610bb261189f565b610bbc600061191d565b565b60606000610c09600660008573ffffffffffffffffffffffffffffffffffffffff1673ffffffffffffffffffffffffffffffffffffffff16815260200190815260200160002061171d565b67ffffffffffffffff811115610c2257610c21612275565b5b604051908082528060200260200182016040528015610c505781602001602082028036833780820191505090505b50905060005b610c9d600660008673ffffffffffffffffffffffffffffffffffffffff1673ffffffffffffffffffffffffffffffffffffffff16815260200190815260200160002061171d565b811015610d5557610cf581600660008773ffffffffffffffffffffffffffffffffffffffff1673ffffffffffffffffffffffffffffffffffffffff16815260200190815260200160002061188590919063ffffffff16565b828281518110610d0857610d076122a4565b5b602002602001019073ffffffffffffffffffffffffffffffffffffffff16908173ffffffffffffffffffffffffffffffffffffffff16815250508080610d4d9061230c565b915050610c56565b5080915050919050565b6000610d6961189f565b610d72826110d3565b610db1576040517f08c379a0000000000000000000000000000000000000000000000000000000008152600401610da89061222b565b60405180910390fd5b60008484604051610dc39291906123f3565b60405180910390209050610de86007600083815260200190815260200160002061171d565b600003610e2857610e038160086119e190919063ffffffff16565b508484600a60008481526020019081526020016000209182610e269291906125c3565b505b610e4d83600760008481526020019081526020016000206116ed90919063ffffffff16565b507f795bfb891c75f9bcffdcac584f35e744ba9b15466c398433de8f6785a6b6e45181604051610e7d919061225a565b60405180910390a1610eac610ea36007600084815260200190815260200160002061171d565b61ffff16611732565b15610efb57610eba816117c3565b7f2f0d996ad85185c5122ef0a1d66e1fe4200b53669c11a14a881853ee57e2e78781604051610ee9919061225a565b60405180910390a16001915050610f01565b60009150505b9392505050565b60606000610f1660086119f8565b67ffffffffffffffff811115610f2f57610f2e612275565b5b604051908082528060200260200182016040528015610f5d5781602001602082028036833780820191505090505b50905060005b610f6d60086119f8565b811015610fba57610f88816008611a0d90919063ffffffff16565b828281518110610f9b57610f9a6122a4565b5b6020026020010181815250508080610fb29061230c565b915050610f63565b508091505090565b60008060009054906101000a900473ffffffffffffffffffffffffffffffffffffffff16905090565b60606000610ff9600161171d565b67ffffffffffffffff81111561101257611011612275565b5b6040519080825280602002602001820160405280156110405781602001602082028036833780820191505090505b50905060005b611050600161171d565b8110156110cb5761106b81600161188590919063ffffffff16565b82828151811061107e5761107d6122a4565b5b602002602001019073ffffffffffffffffffffffffffffffffffffffff16908173ffffffffffffffffffffffffffffffffffffffff168152505080806110c39061230c565b915050611046565b508091505090565b60006110e9826001611a2490919063ffffffff16565b9050919050565b6110f9336110d3565b611138576040517f08c379a000000000000000000000000000000000000000000000000000000000815260040161112f9061222b565b60405180910390fd5b61118933600460008473ffffffffffffffffffffffffffffffffffffffff1673ffffffffffffffffffffffffffffffffffffffff1681526020019081526020016000206116ed90919063ffffffff16565b506111d96111d4600460008473ffffffffffffffffffffffffffffffffffffffff1673ffffffffffffffffffffffffffffffffffffffff16815260200190815260200160002061171d565b611732565b156112b3576111f28160016116ed90919063ffffffff16565b15611233577fb251eb052afc73ffd02ffe85ad79990a8b3fed60d76dbc2fa2fdd7123dffd91481604051611226919061219e565b60405180910390a161126b565b7f7d4732c82306ef43f491dc73eb3bf3771d63c00f52f1da3df1408a5a46186deb81604051611262919061219e565b60405180910390a15b6112b2600460008373ffffffffffffffffffffffffffffffffffffffff1673ffffffffffffffffffffffffffffffffffffffff168152602001908152602001600020611815565b5b50565b60606000611301600460008573ffffffffffffffffffffffffffffffffffffffff1673ffffffffffffffffffffffffffffffffffffffff16815260200190815260200160002061171d565b67ffffffffffffffff81111561131a57611319612275565b5b6040519080825280602002602001820160405280156113485781602001602082028036833780820191505090505b50905060005b611395600460008673ffffffffffffffffffffffffffffffffffffffff1673ffffffffffffffffffffffffffffffffffffffff16815260200190815260200160002061171d565b81101561144d576113ed81600460008773ffffffffffffffffffffffffffffffffffffffff1673ffffffffffffffffffffffffffffffffffffffff16815260200190815260200160002061188590919063ffffffff16565b828281518110611400576113ff6122a4565b5b602002602001019073ffffffffffffffffffffffffffffffffffffffff16908173ffffffffffffffffffffffffffffffffffffffff168152505080806114459061230c565b91505061134e565b5080915050919050565b61145f61189f565b600073ffffffffffffffffffffffffffffffffffffffff168173ffffffffffffffffffffffffffffffffffffffff16036114ce576040517f08c379a00000000000000000000000000000000000000000000000000000000081526004016114c590612705565b60405180910390fd5b6114d78161191d565b50565b60006114e5336110d3565b611524576040517f08c379a000000000000000000000000000000000000000000000000000000000815260040161151b9061222b565b60405180910390fd5b61157533600660008573ffffffffffffffffffffffffffffffffffffffff1673ffffffffffffffffffffffffffffffffffffffff1681526020019081526020016000206116ed90919063ffffffff16565b506115c96115c0600660008573ffffffffffffffffffffffffffffffffffffffff1673ffffffffffffffffffffffffffffffffffffffff16815260200190815260200160002061171d565b61ffff16611732565b156116e357611615600560008473ffffffffffffffffffffffffffffffffffffffff1673ffffffffffffffffffffffffffffffffffffffff168152602001908152602001600020611815565b61165c600460008473ffffffffffffffffffffffffffffffffffffffff1673ffffffffffffffffffffffffffffffffffffffff168152602001908152602001600020611815565b6116a3600660008473ffffffffffffffffffffffffffffffffffffffff1673ffffffffffffffffffffffffffffffffffffffff168152602001908152602001600020611815565b7fef161b07968a19b6c6185c1da97cd9a7832348adee88af313aaa93c4363ec583826040516116d2919061219e565b60405180910390a1600190506116e8565b600090505b919050565b6000611715836000018373ffffffffffffffffffffffffffffffffffffffff1660001b611a54565b905092915050565b600061172b82600001611ac4565b9050919050565b60008061173f600161171d565b9050600181148015611752575060018310155b156117615760019150506117be565b600281148015611772575060028310155b156117815760019150506117be565b6002811180156117a95750600160028261179b9190612754565b6117a59190612785565b8310155b156117b85760019150506117be565b60009150505b919050565b6117de60076000838152602001908152602001600020611815565b600a600082815260200190815260200160002060006117fd9190611c56565b611811816008611ad590919063ffffffff16565b5050565b5b61181f8161171d565b6000146118525761184c61183d60008361188590919063ffffffff16565b8261185590919063ffffffff16565b50611816565b50565b600061187d836000018373ffffffffffffffffffffffffffffffffffffffff1660001b611aec565b905092915050565b60006118948360000183611c00565b60001c905092915050565b6118a7611c2b565b73ffffffffffffffffffffffffffffffffffffffff166118c5610fc2565b73ffffffffffffffffffffffffffffffffffffffff161461191b576040517f08c379a000000000000000000000000000000000000000000000000000000000815260040161191290612805565b60405180910390fd5b565b60008060009054906101000a900473ffffffffffffffffffffffffffffffffffffffff169050816000806101000a81548173ffffffffffffffffffffffffffffffffffffffff021916908373ffffffffffffffffffffffffffffffffffffffff1602179055508173ffffffffffffffffffffffffffffffffffffffff168173ffffffffffffffffffffffffffffffffffffffff167f8be0079c531659141344cd1fd0a4f28419497f9722a3daafe3b4186f6b6457e060405160405180910390a35050565b60006119f08360000183611a54565b905092915050565b6000611a0682600001611ac4565b9050919050565b6000611a1c8360000183611c00565b905092915050565b6000611a4c836000018373ffffffffffffffffffffffffffffffffffffffff1660001b611c33565b905092915050565b6000611a608383611c33565b611ab9578260000182908060018154018082558091505060019003906000526020600020016000909190919091505582600001805490508360010160008481526020019081526020016000208190555060019050611abe565b600090505b92915050565b600081600001805490509050919050565b6000611ae48360000183611aec565b905092915050565b60008083600101600084815260200190815260200160002054905060008114611bf4576000600182611b1e9190612825565b9050600060018660000180549050611b369190612825565b9050818114611ba5576000866000018281548110611b5757611b566122a4565b5b9060005260206000200154905080876000018481548110611b7b57611b7a6122a4565b5b90600052602060002001819055508387600101600083815260200190815260200160002081905550505b85600001805480611bb957611bb8612859565b5b600190038181906000526020600020016000905590558560010160008681526020019081526020016000206000905560019350505050611bfa565b60009150505b92915050565b6000826000018281548110611c1857611c176122a4565b5b9060005260206000200154905092915050565b600033905090565b600080836001016000848152602001908152602001600020541415905092915050565b508054611c6290612383565b6000825580601f10611c745750611c93565b601f016020900490600052602060002090810190611c929190611c96565b5b50565b5b80821115611caf576000816000905550600101611c97565b5090565b600080fd5b600080fd5b6000819050919050565b611cd081611cbd565b8114611cdb57600080fd5b50565b600081359050611ced81611cc7565b92915050565b600060208284031215611d0957611d08611cb3565b5b6000611d1784828501611cde565b91505092915050565b60008115159050919050565b611d3581611d20565b82525050565b6000602082019050611d506000830184611d2c565b92915050565b600073ffffffffffffffffffffffffffffffffffffffff82169050919050565b6000611d8182611d56565b9050919050565b611d9181611d76565b8114611d9c57600080fd5b50565b600081359050611dae81611d88565b92915050565b600060208284031215611dca57611dc9611cb3565b5b6000611dd884828501611d9f565b91505092915050565b600081519050919050565b600082825260208201905092915050565b6000819050602082019050919050565b611e1681611d76565b82525050565b6000611e288383611e0d565b60208301905092915050565b6000602082019050919050565b6000611e4c82611de1565b611e568185611dec565b9350611e6183611dfd565b8060005b83811015611e92578151611e798882611e1c565b9750611e8483611e34565b925050600181019050611e65565b5085935050505092915050565b60006020820190508181036000830152611eb98184611e41565b905092915050565b600081519050919050565b600082825260208201905092915050565b60005b83811015611efb578082015181840152602081019050611ee0565b60008484015250505050565b6000601f19601f8301169050919050565b6000611f2382611ec1565b611f2d8185611ecc565b9350611f3d818560208601611edd565b611f4681611f07565b840191505092915050565b60006020820190508181036000830152611f6b8184611f18565b905092915050565b600081519050919050565b600082825260208201905092915050565b6000611f9a82611f73565b611fa48185611f7e565b9350611fb4818560208601611edd565b611fbd81611f07565b840191505092915050565b60006020820190508181036000830152611fe28184611f8f565b905092915050565b600080fd5b600080fd5b600080fd5b60008083601f84011261200f5761200e611fea565b5b8235905067ffffffffffffffff81111561202c5761202b611fef565b5b60208301915083600182028301111561204857612047611ff4565b5b9250929050565b60008060006040848603121561206857612067611cb3565b5b600084013567ffffffffffffffff81111561208657612085611cb8565b5b61209286828701611ff9565b935093505060206120a586828701611d9f565b9150509250925092565b600081519050919050565b600082825260208201905092915050565b6000819050602082019050919050565b6120e481611cbd565b82525050565b60006120f683836120db565b60208301905092915050565b6000602082019050919050565b600061211a826120af565b61212481856120ba565b935061212f836120cb565b8060005b8381101561216057815161214788826120ea565b975061215283612102565b925050600181019050612133565b5085935050505092915050565b60006020820190508181036000830152612187818461210f565b905092915050565b61219881611d76565b82525050565b60006020820190506121b3600083018461218f565b92915050565b7f43616e2062652063616c6c6564206f6e6c792062792061206d656d626572206f60008201527f662074686520726f6c652e000000000000000000000000000000000000000000602082015250565b6000612215602b83611f7e565b9150612220826121b9565b604082019050919050565b6000602082019050818103600083015261224481612208565b9050919050565b61225481611cbd565b82525050565b600060208201905061226f600083018461224b565b92915050565b7f4e487b7100000000000000000000000000000000000000000000000000000000600052604160045260246000fd5b7f4e487b7100000000000000000000000000000000000000000000000000000000600052603260045260246000fd5b7f4e487b7100000000000000000000000000000000000000000000000000000000600052601160045260246000fd5b6000819050919050565b600061231782612302565b91507fffffffffffffffffffffffffffffffffffffffffffffffffffffffffffffffff8203612349576123486122d3565b5b600182019050919050565b7f4e487b7100000000000000000000000000000000000000000000000000000000600052602260045260246000fd5b6000600282049050600182168061239b57607f821691505b6020821081036123ae576123ad612354565b5b50919050565b600081905092915050565b82818337600083830152505050565b60006123da83856123b4565b93506123e78385846123bf565b82840190509392505050565b60006124008284866123ce565b91508190509392505050565b600082905092915050565b60008190508160005260206000209050919050565b60006020601f8301049050919050565b600082821b905092915050565b6000600883026124797fffffffffffffffffffffffffffffffffffffffffffffffffffffffffffffffff8261243c565b612483868361243c565b95508019841693508086168417925050509392505050565b6000819050919050565b60006124c06124bb6124b684612302565b61249b565b612302565b9050919050565b6000819050919050565b6124da836124a5565b6124ee6124e6826124c7565b848454612449565b825550505050565b600090565b6125036124f6565b61250e8184846124d1565b505050565b5b81811015612532576125276000826124fb565b600181019050612514565b5050565b601f8211156125775761254881612417565b6125518461242c565b81016020851015612560578190505b61257461256c8561242c565b830182612513565b50505b505050565b600082821c905092915050565b600061259a6000198460080261257c565b1980831691505092915050565b60006125b38383612589565b9150826002028217905092915050565b6125cd838361240c565b67ffffffffffffffff8111156125e6576125e5612275565b5b6125f08254612383565b6125fb828285612536565b6000601f83116001811461262a5760008415612618578287013590505b61262285826125a7565b86555061268a565b601f19841661263886612417565b60005b828110156126605784890135825560018201915060208501945060208101905061263b565b8683101561267d5784890135612679601f891682612589565b8355505b6001600288020188555050505b50505050505050565b7f4f776e61626c653a206e6577206f776e657220697320746865207a65726f206160008201527f6464726573730000000000000000000000000000000000000000000000000000602082015250565b60006126ef602683611f7e565b91506126fa82612693565b604082019050919050565b6000602082019050818103600083015261271e816126e2565b9050919050565b7f4e487b7100000000000000000000000000000000000000000000000000000000600052601260045260246000fd5b600061275f82612302565b915061276a83612302565b92508261277a57612779612725565b5b828204905092915050565b600061279082612302565b915061279b83612302565b92508282019050808211156127b3576127b26122d3565b5b92915050565b7f4f776e61626c653a2063616c6c6572206973206e6f7420746865206f776e6572600082015250565b60006127ef602083611f7e565b91506127fa826127b9565b602082019050919050565b6000602082019050818103600083015261281e816127e2565b9050919050565b600061283082612302565b915061283b83612302565b9250828203905081811115612853576128526122d3565b5b92915050565b7f4e487b7100000000000000000000000000000000000000000000000000000000600052603160045260246000fdfea264697066735822122018242e81d08a4e76e34c2a0f8ea8030cc0e42eaae7a83c44cca3017a769bfd4b64736f6c63430008110033",
  "immutableReferences": {},
  "source": "// SPDX-License-Identifier: MIT\r\npragma solidity ^0.8.17;\r\n\r\nimport \"./lib/MultisigActionMembers.sol\";\r\nimport \"./lib/IIdentityRegistry.sol\";\r\nimport \"@openzeppelin/contracts/utils/structs/EnumerableSet.sol\";\r\n\r\ncontract IdentityRegistry is IIdentityRegistry {\r\n    using EnumerableSet for EnumerableSet.AddressSet;\r\n\r\n    // Identity management admins - can be validators, maintainers, etc\r\n    MultisigActionMembers public idmAdmins;\r\n\r\n    // Possible multisig actions for Idm admins\r\n    enum ActionsIdm { ADD_IDP, DEL_IDP,  UPDATE_IDP, UPDATE_EXPIRATION, REVOKE_USER, REACTIVATE_USER, RENEW_EXPIRED_USER }\r\n\r\n    // All valid external identity providers who provide signed minimal verifiable credentials of users (did + GEN address).\r\n    EnumerableSet.AddressSet idProviders;\r\n\r\n    struct ProviderMeta {\r\n        string name;\r\n        string did;     // DID registered in Identity Management blockchain - i.e., Hyperledger Indy\r\n        uint timestamp; // of inserting the first request for inclusion\r\n        bool valid;\r\n    }\r\n    mapping(address => ProviderMeta) public idpMetadata; // Note that this contains also yet unapproved identity providers\r\n\r\n    // Registry of users with verified identities\r\n    struct UserMeta {\r\n        uint timestamp; // of inserting\r\n        bool valid;\r\n    }\r\n    mapping(address => UserMeta) public registry; // mapping of user blockchain addresses to metadata\r\n    uint public expirationDays = 36500; // default expiration in days (100 years)\r\n\r\n    // event UserIsInvalidated(address userAddr);\r\n    // event UserIsExpired(address userAddr);\r\n    event IdentityProviderAdded(address idprovider);\r\n    event IdentityProviderRemoved(address idprovider);\r\n    event IdentityProviderUpdated(address idprovider);\r\n\r\n    /**\r\n     * Initializes identity registry contract with the sender as the first member of idmAdmins role.\r\n     */\r\n    constructor() {\r\n        address[] memory _idmAdmins = new address[](1);\r\n        _idmAdmins[0] = msg.sender; // add the sender as the first member of the role\r\n        idmAdmins  = new MultisigActionMembers(_idmAdmins, \"Identity Management Admins\");\r\n    }\r\n\r\n    /**\r\n     * Called by other contracts to verify identity of users.\r\n     */\r\n    function verifyIdentity(address userAddr) external override view returns(bool){\r\n\r\n        if(0 != registry[userAddr].timestamp){\r\n            UserMeta storage u = registry[userAddr];\r\n            if(!u.valid){\r\n                // emit UserIsInvalidated(userAddr);\r\n                return false;\r\n            }\r\n            if(u.timestamp / 1 days + expirationDays < block.timestamp / 1 days){\r\n                // emit UserIsExpired(userAddr);\r\n                return false;\r\n            }\r\n            return true;\r\n        }\r\n        return false;\r\n    }\r\n\r\n\r\n    ////////////////////////////\r\n    ///// Public Getters   /////\r\n    ////////////////////////////   \r\n\r\n    function getIDPs() external view returns (address [] memory) {\r\n        address[] memory idps = new address[](idProviders.length());\r\n        for (uint i = 0; i < idProviders.length(); i++) {\r\n            idps[i] = idProviders.at(i);\r\n        }\r\n        return idps;\r\n    }\r\n\r\n    //////////////////////////////////////////////////////////////////////////////////\r\n    /////////////// Management of IDPs and Expiration by Multisig Admins /////////////\r\n    //////////////////////////////////////////////////////////////////////////////////\r\n\r\n    /**\r\n     * Called by idmAdmins to insert/delete/update identity providers.\r\n     */\r\n    function addIdentityProvider(address idprovider, string calldata did, string calldata name) public returns(bool) {\r\n        require(!idProviders.contains(idprovider), \"Identity provider already exist.\");\r\n\r\n        bytes memory action_params = abi.encodePacked(ActionsIdm.ADD_IDP, idprovider, did, name);\r\n        \r\n        if(0 == idpMetadata[idprovider].timestamp){ // create meta entry for easier parsing by DAPPs\r\n                idpMetadata[idprovider] = ProviderMeta(name, did, block.timestamp, false);\r\n        }\r\n        \r\n        if(false == idmAdmins.approveAction(action_params, msg.sender)){            \r\n            return false; // we do not have enough signatures yet\r\n        }\r\n\r\n        idProviders.add(idprovider); // we have enough signatures, so add the new valid identity provider\r\n        idpMetadata[idprovider].valid = true;\r\n        emit IdentityProviderAdded(idprovider);\r\n        return true;\r\n    }\r\n\r\n    function delIdentityProvider(address idprovider) public returns(bool) {\r\n        require(idProviders.contains(idprovider), \"Identity provider does not exist.\");\r\n\r\n        bytes memory action_params = abi.encodePacked(ActionsIdm.DEL_IDP, idprovider);\r\n        if(false == idmAdmins.approveAction(action_params, msg.sender)){\r\n            return false; // we do not have enough signatures yet\r\n        }\r\n\r\n        idProviders.remove(idprovider); // we have enough signatures, so remove the provider\r\n        idpMetadata[idprovider].valid = false;\r\n        emit IdentityProviderRemoved(idprovider);\r\n        return true;\r\n    }\r\n\r\n    function updateIdentityProvider(address idprovider, string calldata did, string calldata name) public returns(bool) {\r\n        require(idProviders.contains(idprovider), \"Identity provider does not exist.\");\r\n\r\n        bytes memory action_params = abi.encodePacked(ActionsIdm.UPDATE_IDP, idprovider, did, name);\r\n        if(false == idmAdmins.approveAction(action_params, msg.sender)){\r\n            return false; // we do not have enough signatures yet\r\n        }\r\n\r\n        // we have enough signatures, so update the provider\r\n        idpMetadata[idprovider].did = did;\r\n        idpMetadata[idprovider].name = name;\r\n        emit IdentityProviderUpdated(idprovider);\r\n        return true;\r\n    }\r\n\r\n    /**\r\n     * Update the global expiration interval in days.\r\n     */\r\n    function updateExpiration(uint256 newExpiration) public returns(bool) {\r\n\r\n        bytes memory action_params = abi.encodePacked(ActionsIdm.UPDATE_EXPIRATION, expirationDays, newExpiration);\r\n        if(false == idmAdmins.approveAction(action_params, msg.sender)){\r\n            return false; // we do not have enough signatures yet\r\n        }\r\n\r\n        // we have enough signatures, so adjust new expiration interval\r\n        expirationDays = newExpiration;\r\n        return true;\r\n    }\r\n\r\n    function revokeUser(address userAddr) public returns(bool) {\r\n        require(0 != registry[userAddr].timestamp, \"The user does not exist.\");\r\n\r\n        bytes memory action_params = abi.encodePacked(ActionsIdm.REVOKE_USER, userAddr);\r\n        if(false == idmAdmins.approveAction(action_params, msg.sender)){\r\n            return false; // we do not have enough signatures yet\r\n        }\r\n\r\n        // we have enough signatures, so invalidate the user\r\n        registry[userAddr].valid = false;\r\n        return true;\r\n    }\r\n\r\n    /**\r\n     * It reactivates an already revoked user, e.g., by accident.\r\n     */\r\n    function reactivateUser(address userAddr) public returns(bool) {\r\n        require(0 != registry[userAddr].timestamp, \"The user does not exist.\");\r\n\r\n        bytes memory action_params = abi.encodePacked(ActionsIdm.REACTIVATE_USER, userAddr);\r\n        if(false == idmAdmins.approveAction(action_params, msg.sender)){\r\n            return false; // we do not have enough signatures yet\r\n        }\r\n\r\n        // we have enough signatures, so reactivate the user\r\n        registry[userAddr].valid = true;\r\n        return true;\r\n    }\r\n\r\n    function renewExpiredUser(address userAddr) public returns(bool) {\r\n        require(0 != registry[userAddr].timestamp, \"The user does not exist.\");\r\n\r\n        bytes memory action_params = abi.encodePacked(ActionsIdm.RENEW_EXPIRED_USER, userAddr);\r\n        if(false == idmAdmins.approveAction(action_params, msg.sender)){\r\n            return false; // we do not have enough signatures yet\r\n        }\r\n\r\n        // we have enough signatures, so renew the user\r\n        registry[userAddr].timestamp = block.timestamp;\r\n        return true;\r\n    }\r\n\r\n    /////////////////////////////////////////////////////////////\r\n    /////////// Management of User Identities by IDPs ///////////\r\n    /////////////////////////////////////////////////////////////\r\n\r\n    /**\r\n     * This method is called by anybody who provides a signed minimal verifiable credentials (userAddr + \" person with legitimate identity\") of a user\r\n     * by a valid identity provider (represented by idpAddress).\r\n     * Note that identity provider does not call this contract, she only signs VCs and relays them to anybody who will call this method.\r\n     *\r\n     * IH: I think that only idmAdmins should call this method and they might also request some larger than minimal VCs to verify off-chain name and others.\r\n     */\r\n    function addVerifiedUser(bytes32 hash, address idpAddress, address userAddr, uint8 sig_v, bytes32 sig_r, bytes32 sig_s) public {\r\n\r\n        require(idProviders.contains(idpAddress), \"Passed address of non-existing identity provider.\");\r\n        require(0 == registry[userAddr].timestamp, \"The user already exists.\");\r\n        //bytes memory data = abi.encodePacked(userAddr, \" is person with legitimate identity at contract address \", address(this));\r\n        require(_validSignature(hash, idpAddress, sig_v, sig_r, sig_s), \"Ecrecover: signature of identity provider is not correct.\");\r\n\r\n        // add the user with verified identity\r\n        registry[userAddr] = UserMeta(block.timestamp, true);\r\n    }\r\n\r\n    ////////////////////////////////////////////////////\r\n    /////////// Private & internal functions ///////////\r\n    ////////////////////////////////////////////////////\r\n\r\n    function _validSignature(bytes32 hash, address PK, uint8 sig_v, bytes32 sig_r, bytes32 sig_s) private pure returns (bool) {\r\n        //bytes32 hash = keccak256(abi.encodePacked(data));\r\n        if(PK == ecrecover(hash, sig_v, sig_r, sig_s)){\r\n          return true;\r\n        }else{\r\n          return false;\r\n        }\r\n    }\r\n    \r\n}",
  "sourcePath": "C:\\Users\\Kuba\\Desktop\\IDM_app\\src\\contracts\\identityRegistry.sol",
  "compiler": {
    "name": "solc",
    "version": "0.8.17+commit.8df45f5f.Emscripten.clang"
  },
  "schemaVersion": "3.4.11",
  "updatedAt": "2023-04-25T11:54:13.906Z",
  "devdoc": {
    "kind": "dev",
    "methods": {},
    "version": 1
  },
  "userdoc": {
    "kind": "user",
    "methods": {
      "addIdentityProvider(address,string,string)": {
        "notice": "Called by idmAdmins to insert/delete/update identity providers."
      },
      "addVerifiedUser(bytes32,address,address,uint8,bytes32,bytes32)": {
        "notice": "This method is called by anybody who provides a signed minimal verifiable credentials (userAddr + \" person with legitimate identity\") of a user by a valid identity provider (represented by idpAddress). Note that identity provider does not call this contract, she only signs VCs and relays them to anybody who will call this method. IH: I think that only idmAdmins should call this method and they might also request some larger than minimal VCs to verify off-chain name and others."
      },
      "constructor": {
        "notice": "Initializes identity registry contract with the sender as the first member of idmAdmins role."
      },
      "reactivateUser(address)": {
        "notice": "It reactivates an already revoked user, e.g., by accident."
      },
      "updateExpiration(uint256)": {
        "notice": "Update the global expiration interval in days."
      },
      "verifyIdentity(address)": {
        "notice": "Called by other contracts to verify identity of users."
      }
    },
    "version": 1
  }
}