{
  "contractName": "MultisigMembers",
  "abi": [
    {
      "inputs": [
        {
          "internalType": "address[]",
          "name": "_members",
          "type": "address[]"
        },
        {
          "internalType": "string",
          "name": "_roleName",
          "type": "string"
        }
      ],
      "stateMutability": "nonpayable",
      "type": "constructor"
    },
    {
      "anonymous": false,
      "inputs": [
        {
          "indexed": false,
          "internalType": "address",
          "name": "account",
          "type": "address"
        }
      ],
      "name": "MemberAdded",
      "type": "event"
    },
    {
      "anonymous": false,
      "inputs": [
        {
          "indexed": false,
          "internalType": "address",
          "name": "existingAccount",
          "type": "address"
        }
      ],
      "name": "MemberNotAdded",
      "type": "event"
    },
    {
      "anonymous": false,
      "inputs": [
        {
          "indexed": false,
          "internalType": "address",
          "name": "nonExistingAccount",
          "type": "address"
        }
      ],
      "name": "MemberNotRemoved",
      "type": "event"
    },
    {
      "anonymous": false,
      "inputs": [
        {
          "indexed": false,
          "internalType": "address",
          "name": "account",
          "type": "address"
        }
      ],
      "name": "MemberRemoved",
      "type": "event"
    },
    {
      "anonymous": false,
      "inputs": [
        {
          "indexed": true,
          "internalType": "address",
          "name": "previousOwner",
          "type": "address"
        },
        {
          "indexed": true,
          "internalType": "address",
          "name": "newOwner",
          "type": "address"
        }
      ],
      "name": "OwnershipTransferred",
      "type": "event"
    },
    {
      "anonymous": false,
      "inputs": [
        {
          "indexed": false,
          "internalType": "address",
          "name": "member",
          "type": "address"
        }
      ],
      "name": "StaleApprovalCleaned",
      "type": "event"
    },
    {
      "inputs": [],
      "name": "owner",
      "outputs": [
        {
          "internalType": "address",
          "name": "",
          "type": "address"
        }
      ],
      "stateMutability": "view",
      "type": "function"
    },
    {
      "inputs": [],
      "name": "renounceOwnership",
      "outputs": [],
      "stateMutability": "nonpayable",
      "type": "function"
    },
    {
      "inputs": [],
      "name": "roleName",
      "outputs": [
        {
          "internalType": "string",
          "name": "",
          "type": "string"
        }
      ],
      "stateMutability": "view",
      "type": "function"
    },
    {
      "inputs": [
        {
          "internalType": "address",
          "name": "newOwner",
          "type": "address"
        }
      ],
      "name": "transferOwnership",
      "outputs": [],
      "stateMutability": "nonpayable",
      "type": "function"
    },
    {
      "inputs": [
        {
          "internalType": "address",
          "name": "account",
          "type": "address"
        }
      ],
      "name": "isMember",
      "outputs": [
        {
          "internalType": "bool",
          "name": "",
          "type": "bool"
        }
      ],
      "stateMutability": "view",
      "type": "function"
    },
    {
      "inputs": [
        {
          "internalType": "address",
          "name": "account",
          "type": "address"
        }
      ],
      "name": "addMember",
      "outputs": [],
      "stateMutability": "nonpayable",
      "type": "function"
    },
    {
      "inputs": [
        {
          "internalType": "address",
          "name": "account",
          "type": "address"
        }
      ],
      "name": "removeMember",
      "outputs": [],
      "stateMutability": "nonpayable",
      "type": "function"
    },
    {
      "inputs": [],
      "name": "getMembers",
      "outputs": [
        {
          "internalType": "address[]",
          "name": "",
          "type": "address[]"
        }
      ],
      "stateMutability": "view",
      "type": "function"
    },
    {
      "inputs": [
        {
          "internalType": "address",
          "name": "member",
          "type": "address"
        }
      ],
      "name": "getAddApprovals",
      "outputs": [
        {
          "internalType": "address[]",
          "name": "",
          "type": "address[]"
        }
      ],
      "stateMutability": "view",
      "type": "function"
    },
    {
      "inputs": [
        {
          "internalType": "address",
          "name": "member",
          "type": "address"
        }
      ],
      "name": "getDelApprovals",
      "outputs": [
        {
          "internalType": "address[]",
          "name": "",
          "type": "address[]"
        }
      ],
      "stateMutability": "view",
      "type": "function"
    },
    {
      "inputs": [
        {
          "internalType": "address",
          "name": "member",
          "type": "address"
        }
      ],
      "name": "getCleanupApprovals",
      "outputs": [
        {
          "internalType": "address[]",
          "name": "",
          "type": "address[]"
        }
      ],
      "stateMutability": "view",
      "type": "function"
    },
    {
      "inputs": [
        {
          "internalType": "address",
          "name": "account",
          "type": "address"
        }
      ],
      "name": "delStaleMemberApproval",
      "outputs": [
        {
          "internalType": "bool",
          "name": "",
          "type": "bool"
        }
      ],
      "stateMutability": "nonpayable",
      "type": "function"
    }
  ],
  "bytecode": "0x60806040523480156200001157600080fd5b5060405162002537380380620025378339818101604052810190620000379190620005d1565b620000576200004b6200015d60201b60201c565b6200016560201b60201c565b8060039081620000689190620008a1565b5060005b825181101562000154578281815181106200008c576200008b62000988565b5b602002602001015173ffffffffffffffffffffffffffffffffffffffff16600073ffffffffffffffffffffffffffffffffffffffff160362000105576040517f08c379a0000000000000000000000000000000000000000000000000000000008152600401620000fc9062000a18565b60405180910390fd5b6200013d8382815181106200011f576200011e62000988565b5b602002602001015160016200022960201b62000f361790919060201c565b5080806200014b9062000a69565b9150506200006c565b50505062000ab6565b600033905090565b60008060009054906101000a900473ffffffffffffffffffffffffffffffffffffffff169050816000806101000a81548173ffffffffffffffffffffffffffffffffffffffff021916908373ffffffffffffffffffffffffffffffffffffffff1602179055508173ffffffffffffffffffffffffffffffffffffffff168173ffffffffffffffffffffffffffffffffffffffff167f8be0079c531659141344cd1fd0a4f28419497f9722a3daafe3b4186f6b6457e060405160405180910390a35050565b600062000259836000018373ffffffffffffffffffffffffffffffffffffffff1660001b6200026160201b60201c565b905092915050565b6000620002758383620002db60201b60201c565b620002d0578260000182908060018154018082558091505060019003906000526020600020016000909190919091505582600001805490508360010160008481526020019081526020016000208190555060019050620002d5565b600090505b92915050565b600080836001016000848152602001908152602001600020541415905092915050565b6000604051905090565b600080fd5b600080fd5b600080fd5b6000601f19601f8301169050919050565b7f4e487b7100000000000000000000000000000000000000000000000000000000600052604160045260246000fd5b620003628262000317565b810181811067ffffffffffffffff8211171562000384576200038362000328565b5b80604052505050565b600062000399620002fe565b9050620003a7828262000357565b919050565b600067ffffffffffffffff821115620003ca57620003c962000328565b5b602082029050602081019050919050565b600080fd5b600073ffffffffffffffffffffffffffffffffffffffff82169050919050565b60006200040d82620003e0565b9050919050565b6200041f8162000400565b81146200042b57600080fd5b50565b6000815190506200043f8162000414565b92915050565b60006200045c6200045684620003ac565b6200038d565b90508083825260208201905060208402830185811115620004825762000481620003db565b5b835b81811015620004af57806200049a88826200042e565b84526020840193505060208101905062000484565b5050509392505050565b600082601f830112620004d157620004d062000312565b5b8151620004e384826020860162000445565b91505092915050565b600080fd5b600067ffffffffffffffff8211156200050f576200050e62000328565b5b6200051a8262000317565b9050602081019050919050565b60005b83811015620005475780820151818401526020810190506200052a565b60008484015250505050565b60006200056a6200056484620004f1565b6200038d565b905082815260208101848484011115620005895762000588620004ec565b5b6200059684828562000527565b509392505050565b600082601f830112620005b657620005b562000312565b5b8151620005c884826020860162000553565b91505092915050565b60008060408385031215620005eb57620005ea62000308565b5b600083015167ffffffffffffffff8111156200060c576200060b6200030d565b5b6200061a85828601620004b9565b925050602083015167ffffffffffffffff8111156200063e576200063d6200030d565b5b6200064c858286016200059e565b9150509250929050565b600081519050919050565b7f4e487b7100000000000000000000000000000000000000000000000000000000600052602260045260246000fd5b60006002820490506001821680620006a957607f821691505b602082108103620006bf57620006be62000661565b5b50919050565b60008190508160005260206000209050919050565b60006020601f8301049050919050565b600082821b905092915050565b600060088302620007297fffffffffffffffffffffffffffffffffffffffffffffffffffffffffffffffff82620006ea565b620007358683620006ea565b95508019841693508086168417925050509392505050565b6000819050919050565b6000819050919050565b6000620007826200077c62000776846200074d565b62000757565b6200074d565b9050919050565b6000819050919050565b6200079e8362000761565b620007b6620007ad8262000789565b848454620006f7565b825550505050565b600090565b620007cd620007be565b620007da81848462000793565b505050565b5b818110156200080257620007f6600082620007c3565b600181019050620007e0565b5050565b601f82111562000851576200081b81620006c5565b6200082684620006da565b8101602085101562000836578190505b6200084e6200084585620006da565b830182620007df565b50505b505050565b600082821c905092915050565b6000620008766000198460080262000856565b1980831691505092915050565b600062000891838362000863565b9150826002028217905092915050565b620008ac8262000656565b67ffffffffffffffff811115620008c857620008c762000328565b5b620008d4825462000690565b620008e182828562000806565b600060209050601f83116001811462000919576000841562000904578287015190505b62000910858262000883565b86555062000980565b601f1984166200092986620006c5565b60005b8281101562000953578489015182556001820191506020850194506020810190506200092c565b868310156200097357848901516200096f601f89168262000863565b8355505b6001600288020188555050505b505050505050565b7f4e487b7100000000000000000000000000000000000000000000000000000000600052603260045260246000fd5b600082825260208201905092915050565b7f5a65726f2061646472657373207061737365642e000000000000000000000000600082015250565b600062000a00601483620009b7565b915062000a0d82620009c8565b602082019050919050565b6000602082019050818103600083015262000a3381620009f1565b9050919050565b7f4e487b7100000000000000000000000000000000000000000000000000000000600052601160045260246000fd5b600062000a76826200074d565b91507fffffffffffffffffffffffffffffffffffffffffffffffffffffffffffffffff820362000aab5762000aaa62000a3a565b5b600182019050919050565b611a718062000ac66000396000f3fe608060405234801561001057600080fd5b50600436106100b45760003560e01c80639eab5253116100715780639eab52531461017b578063a230c52414610199578063ca6d56dc146101c9578063d218e60c146101e5578063f2fde38b14610215578063f32d30a714610231576100b4565b80630b1ca49a146100b957806320e7a940146100d5578063609f399314610105578063715018a614610123578063729018a51461012d5780638da5cb5b1461015d575b600080fd5b6100d360048036038101906100ce9190611456565b610261565b005b6100ef60048036038101906100ea9190611456565b610427565b6040516100fc9190611541565b60405180910390f35b61010d6105c8565b60405161011a91906115f3565b60405180910390f35b61012b610656565b005b61014760048036038101906101429190611456565b61066a565b6040516101549190611541565b60405180910390f35b61016561080b565b6040516101729190611624565b60405180910390f35b610183610834565b6040516101909190611541565b60405180910390f35b6101b360048036038101906101ae9190611456565b61091c565b6040516101c0919061165a565b60405180910390f35b6101e360048036038101906101de9190611456565b610939565b005b6101ff60048036038101906101fa9190611456565b610aff565b60405161020c9190611541565b60405180910390f35b61022f600480360381019061022a9190611456565b610ca0565b005b61024b60048036038101906102469190611456565b610d23565b604051610258919061165a565b60405180910390f35b61026a3361091c565b6102a9576040517f08c379a00000000000000000000000000000000000000000000000000000000081526004016102a0906116e7565b60405180910390fd5b6102fa33600560008473ffffffffffffffffffffffffffffffffffffffff1673ffffffffffffffffffffffffffffffffffffffff168152602001908152602001600020610f3690919063ffffffff16565b5061034a610345600560008473ffffffffffffffffffffffffffffffffffffffff1673ffffffffffffffffffffffffffffffffffffffff168152602001908152602001600020610f66565b610f7b565b156104245761036381600161100c90919063ffffffff16565b156103a4577f6e76fb4c77256006d9c38ec7d82b45a8c8f3c27b1d6766fffc42dfb8de684492816040516103979190611624565b60405180910390a16103dc565b7fa64ad4db878396be678e69ce4a12a7e9d176a72de6fe6654328fbcd4c594e3e1816040516103d39190611624565b60405180910390a15b610423600560008373ffffffffffffffffffffffffffffffffffffffff1673ffffffffffffffffffffffffffffffffffffffff16815260200190815260200160002061103c565b5b50565b60606000610472600560008573ffffffffffffffffffffffffffffffffffffffff1673ffffffffffffffffffffffffffffffffffffffff168152602001908152602001600020610f66565b67ffffffffffffffff81111561048b5761048a611707565b5b6040519080825280602002602001820160405280156104b95781602001602082028036833780820191505090505b50905060005b610506600560008673ffffffffffffffffffffffffffffffffffffffff1673ffffffffffffffffffffffffffffffffffffffff168152602001908152602001600020610f66565b8110156105be5761055e81600560008773ffffffffffffffffffffffffffffffffffffffff1673ffffffffffffffffffffffffffffffffffffffff16815260200190815260200160002061107c90919063ffffffff16565b82828151811061057157610570611736565b5b602002602001019073ffffffffffffffffffffffffffffffffffffffff16908173ffffffffffffffffffffffffffffffffffffffff168152505080806105b69061179e565b9150506104bf565b5080915050919050565b600380546105d590611815565b80601f016020809104026020016040519081016040528092919081815260200182805461060190611815565b801561064e5780601f106106235761010080835404028352916020019161064e565b820191906000526020600020905b81548152906001019060200180831161063157829003601f168201915b505050505081565b61065e611096565b6106686000611114565b565b606060006106b5600660008573ffffffffffffffffffffffffffffffffffffffff1673ffffffffffffffffffffffffffffffffffffffff168152602001908152602001600020610f66565b67ffffffffffffffff8111156106ce576106cd611707565b5b6040519080825280602002602001820160405280156106fc5781602001602082028036833780820191505090505b50905060005b610749600660008673ffffffffffffffffffffffffffffffffffffffff1673ffffffffffffffffffffffffffffffffffffffff168152602001908152602001600020610f66565b811015610801576107a181600660008773ffffffffffffffffffffffffffffffffffffffff1673ffffffffffffffffffffffffffffffffffffffff16815260200190815260200160002061107c90919063ffffffff16565b8282815181106107b4576107b3611736565b5b602002602001019073ffffffffffffffffffffffffffffffffffffffff16908173ffffffffffffffffffffffffffffffffffffffff168152505080806107f99061179e565b915050610702565b5080915050919050565b60008060009054906101000a900473ffffffffffffffffffffffffffffffffffffffff16905090565b606060006108426001610f66565b67ffffffffffffffff81111561085b5761085a611707565b5b6040519080825280602002602001820160405280156108895781602001602082028036833780820191505090505b50905060005b6108996001610f66565b811015610914576108b481600161107c90919063ffffffff16565b8282815181106108c7576108c6611736565b5b602002602001019073ffffffffffffffffffffffffffffffffffffffff16908173ffffffffffffffffffffffffffffffffffffffff1681525050808061090c9061179e565b91505061088f565b508091505090565b60006109328260016111d890919063ffffffff16565b9050919050565b6109423361091c565b610981576040517f08c379a0000000000000000000000000000000000000000000000000000000008152600401610978906116e7565b60405180910390fd5b6109d233600460008473ffffffffffffffffffffffffffffffffffffffff1673ffffffffffffffffffffffffffffffffffffffff168152602001908152602001600020610f3690919063ffffffff16565b50610a22610a1d600460008473ffffffffffffffffffffffffffffffffffffffff1673ffffffffffffffffffffffffffffffffffffffff168152602001908152602001600020610f66565b610f7b565b15610afc57610a3b816001610f3690919063ffffffff16565b15610a7c577fb251eb052afc73ffd02ffe85ad79990a8b3fed60d76dbc2fa2fdd7123dffd91481604051610a6f9190611624565b60405180910390a1610ab4565b7f7d4732c82306ef43f491dc73eb3bf3771d63c00f52f1da3df1408a5a46186deb81604051610aab9190611624565b60405180910390a15b610afb600460008373ffffffffffffffffffffffffffffffffffffffff1673ffffffffffffffffffffffffffffffffffffffff16815260200190815260200160002061103c565b5b50565b60606000610b4a600460008573ffffffffffffffffffffffffffffffffffffffff1673ffffffffffffffffffffffffffffffffffffffff168152602001908152602001600020610f66565b67ffffffffffffffff811115610b6357610b62611707565b5b604051908082528060200260200182016040528015610b915781602001602082028036833780820191505090505b50905060005b610bde600460008673ffffffffffffffffffffffffffffffffffffffff1673ffffffffffffffffffffffffffffffffffffffff168152602001908152602001600020610f66565b811015610c9657610c3681600460008773ffffffffffffffffffffffffffffffffffffffff1673ffffffffffffffffffffffffffffffffffffffff16815260200190815260200160002061107c90919063ffffffff16565b828281518110610c4957610c48611736565b5b602002602001019073ffffffffffffffffffffffffffffffffffffffff16908173ffffffffffffffffffffffffffffffffffffffff16815250508080610c8e9061179e565b915050610b97565b5080915050919050565b610ca8611096565b600073ffffffffffffffffffffffffffffffffffffffff168173ffffffffffffffffffffffffffffffffffffffff1603610d17576040517f08c379a0000000000000000000000000000000000000000000000000000000008152600401610d0e906118b8565b60405180910390fd5b610d2081611114565b50565b6000610d2e3361091c565b610d6d576040517f08c379a0000000000000000000000000000000000000000000000000000000008152600401610d64906116e7565b60405180910390fd5b610dbe33600660008573ffffffffffffffffffffffffffffffffffffffff1673ffffffffffffffffffffffffffffffffffffffff168152602001908152602001600020610f3690919063ffffffff16565b50610e12610e09600660008573ffffffffffffffffffffffffffffffffffffffff1673ffffffffffffffffffffffffffffffffffffffff168152602001908152602001600020610f66565b61ffff16610f7b565b15610f2c57610e5e600560008473ffffffffffffffffffffffffffffffffffffffff1673ffffffffffffffffffffffffffffffffffffffff16815260200190815260200160002061103c565b610ea5600460008473ffffffffffffffffffffffffffffffffffffffff1673ffffffffffffffffffffffffffffffffffffffff16815260200190815260200160002061103c565b610eec600660008473ffffffffffffffffffffffffffffffffffffffff1673ffffffffffffffffffffffffffffffffffffffff16815260200190815260200160002061103c565b7fef161b07968a19b6c6185c1da97cd9a7832348adee88af313aaa93c4363ec58382604051610f1b9190611624565b60405180910390a160019050610f31565b600090505b919050565b6000610f5e836000018373ffffffffffffffffffffffffffffffffffffffff1660001b611208565b905092915050565b6000610f7482600001611278565b9050919050565b600080610f886001610f66565b9050600181148015610f9b575060018310155b15610faa576001915050611007565b600281148015610fbb575060028310155b15610fca576001915050611007565b600281118015610ff257506001600282610fe49190611907565b610fee9190611938565b8310155b15611001576001915050611007565b60009150505b919050565b6000611034836000018373ffffffffffffffffffffffffffffffffffffffff1660001b611289565b905092915050565b5b61104681610f66565b6000146110795761107361106460008361107c90919063ffffffff16565b8261100c90919063ffffffff16565b5061103d565b50565b600061108b836000018361139d565b60001c905092915050565b61109e6113c8565b73ffffffffffffffffffffffffffffffffffffffff166110bc61080b565b73ffffffffffffffffffffffffffffffffffffffff1614611112576040517f08c379a0000000000000000000000000000000000000000000000000000000008152600401611109906119b8565b60405180910390fd5b565b60008060009054906101000a900473ffffffffffffffffffffffffffffffffffffffff169050816000806101000a81548173ffffffffffffffffffffffffffffffffffffffff021916908373ffffffffffffffffffffffffffffffffffffffff1602179055508173ffffffffffffffffffffffffffffffffffffffff168173ffffffffffffffffffffffffffffffffffffffff167f8be0079c531659141344cd1fd0a4f28419497f9722a3daafe3b4186f6b6457e060405160405180910390a35050565b6000611200836000018373ffffffffffffffffffffffffffffffffffffffff1660001b6113d0565b905092915050565b600061121483836113d0565b61126d578260000182908060018154018082558091505060019003906000526020600020016000909190919091505582600001805490508360010160008481526020019081526020016000208190555060019050611272565b600090505b92915050565b600081600001805490509050919050565b600080836001016000848152602001908152602001600020549050600081146113915760006001826112bb91906119d8565b90506000600186600001805490506112d391906119d8565b90508181146113425760008660000182815481106112f4576112f3611736565b5b906000526020600020015490508087600001848154811061131857611317611736565b5b90600052602060002001819055508387600101600083815260200190815260200160002081905550505b8560000180548061135657611355611a0c565b5b600190038181906000526020600020016000905590558560010160008681526020019081526020016000206000905560019350505050611397565b60009150505b92915050565b60008260000182815481106113b5576113b4611736565b5b9060005260206000200154905092915050565b600033905090565b600080836001016000848152602001908152602001600020541415905092915050565b600080fd5b600073ffffffffffffffffffffffffffffffffffffffff82169050919050565b6000611423826113f8565b9050919050565b61143381611418565b811461143e57600080fd5b50565b6000813590506114508161142a565b92915050565b60006020828403121561146c5761146b6113f3565b5b600061147a84828501611441565b91505092915050565b600081519050919050565b600082825260208201905092915050565b6000819050602082019050919050565b6114b881611418565b82525050565b60006114ca83836114af565b60208301905092915050565b6000602082019050919050565b60006114ee82611483565b6114f8818561148e565b93506115038361149f565b8060005b8381101561153457815161151b88826114be565b9750611526836114d6565b925050600181019050611507565b5085935050505092915050565b6000602082019050818103600083015261155b81846114e3565b905092915050565b600081519050919050565b600082825260208201905092915050565b60005b8381101561159d578082015181840152602081019050611582565b60008484015250505050565b6000601f19601f8301169050919050565b60006115c582611563565b6115cf818561156e565b93506115df81856020860161157f565b6115e8816115a9565b840191505092915050565b6000602082019050818103600083015261160d81846115ba565b905092915050565b61161e81611418565b82525050565b60006020820190506116396000830184611615565b92915050565b60008115159050919050565b6116548161163f565b82525050565b600060208201905061166f600083018461164b565b92915050565b7f43616e2062652063616c6c6564206f6e6c792062792061206d656d626572206f60008201527f662074686520726f6c652e000000000000000000000000000000000000000000602082015250565b60006116d1602b8361156e565b91506116dc82611675565b604082019050919050565b60006020820190508181036000830152611700816116c4565b9050919050565b7f4e487b7100000000000000000000000000000000000000000000000000000000600052604160045260246000fd5b7f4e487b7100000000000000000000000000000000000000000000000000000000600052603260045260246000fd5b7f4e487b7100000000000000000000000000000000000000000000000000000000600052601160045260246000fd5b6000819050919050565b60006117a982611794565b91507fffffffffffffffffffffffffffffffffffffffffffffffffffffffffffffffff82036117db576117da611765565b5b600182019050919050565b7f4e487b7100000000000000000000000000000000000000000000000000000000600052602260045260246000fd5b6000600282049050600182168061182d57607f821691505b6020821081036118405761183f6117e6565b5b50919050565b7f4f776e61626c653a206e6577206f776e657220697320746865207a65726f206160008201527f6464726573730000000000000000000000000000000000000000000000000000602082015250565b60006118a260268361156e565b91506118ad82611846565b604082019050919050565b600060208201905081810360008301526118d181611895565b9050919050565b7f4e487b7100000000000000000000000000000000000000000000000000000000600052601260045260246000fd5b600061191282611794565b915061191d83611794565b92508261192d5761192c6118d8565b5b828204905092915050565b600061194382611794565b915061194e83611794565b925082820190508082111561196657611965611765565b5b92915050565b7f4f776e61626c653a2063616c6c6572206973206e6f7420746865206f776e6572600082015250565b60006119a260208361156e565b91506119ad8261196c565b602082019050919050565b600060208201905081810360008301526119d181611995565b9050919050565b60006119e382611794565b91506119ee83611794565b9250828203905081811115611a0657611a05611765565b5b92915050565b7f4e487b7100000000000000000000000000000000000000000000000000000000600052603160045260246000fdfea2646970667358221220cef89a98c07806409466d9f1d59b0a088cb0c70180a1e832de729c1ce4f4724d64736f6c63430008110033",
  "immutableReferences": {},
  "source": "// SPDX-License-Identifier: MIT\r\npragma solidity ^0.8.0;\r\n\r\nimport \"@openzeppelin/contracts/utils/structs/EnumerableSet.sol\";\r\nimport \"@openzeppelin/contracts/access/Ownable.sol\";\r\n\r\n/**\r\n * The role object encapsulating multiple users.\r\n * The management of users (adding, removing) is made through threshold-based multisig.\r\n *\r\n * All methods of this contract can be called directly by members (not through other contract).\r\n */\r\ncontract MultisigMembers is Ownable {\r\n    using EnumerableSet for EnumerableSet.AddressSet;\r\n\r\n    EnumerableSet.AddressSet members; // all members of the current role\r\n    string public roleName;\r\n\r\n    mapping(address => EnumerableSet.AddressSet) addApprovals; // Approvals for addition of new members (i.e., address in the key)\r\n    mapping(address => EnumerableSet.AddressSet) delApprovals; // Approvals for deletion of existing members (i.e., address in the key)\r\n\r\n    // Serves for clean-up of stale unapproved member additions/deletions.\r\n    mapping(address => EnumerableSet.AddressSet) cleanupMemberApprovals;\r\n\r\n    event MemberAdded(address account);\r\n    event MemberRemoved(address account);\r\n    event MemberNotAdded(address existingAccount);\r\n    event MemberNotRemoved(address nonExistingAccount);\r\n    event StaleApprovalCleaned(address member);\r\n\r\n    ////////////////////\r\n\r\n    /**\r\n     * Create a role contract with the initial set of members.\r\n     */\r\n    constructor (address[] memory _members, string memory _roleName) {\r\n        roleName = _roleName;\r\n\r\n        for(uint i = 0; i < _members.length; i++){\r\n            require(address(0x0) != _members[i], \"Zero address passed.\");\r\n            members.add(_members[i]);\r\n        }\r\n    }\r\n\r\n    function isMember(address account) public view returns (bool) {\r\n        return members.contains(account);\r\n    }\r\n\r\n    function addMember(address account) public {\r\n        require(isMember(msg.sender), \"Can be called only by a member of the role.\");\r\n\r\n        addApprovals[account].add(msg.sender);\r\n        if (_thresholdOfSignersMet(addApprovals[account].length())) {\r\n            if(members.add(account)){\r\n                emit MemberAdded(account);\r\n            }else{\r\n                emit MemberNotAdded(account);\r\n            }\r\n            deleteEnumerableAddrSet(addApprovals[account]);\r\n        }\r\n    }\r\n\r\n    function removeMember(address account) public {\r\n        require(isMember(msg.sender), \"Can be called only by a member of the role.\");\r\n\r\n        delApprovals[account].add(msg.sender);\r\n        if (_thresholdOfSignersMet(delApprovals[account].length())){\r\n            if(members.remove(account)){\r\n                emit MemberRemoved(account);\r\n            } else {\r\n                emit MemberNotRemoved(account);\r\n            }\r\n            deleteEnumerableAddrSet(delApprovals[account]);\r\n        }\r\n    }\r\n\r\n    ////////////////////////////\r\n    ///// Public Getters   /////\r\n    ////////////////////////////\r\n\r\n    function getMembers() external view returns (address [] memory) {\r\n        address[] memory allMembers = new address[](members.length());\r\n        for (uint256 i = 0; i < members.length(); i++) {\r\n            allMembers[i] = members.at(i);\r\n        }\r\n        return allMembers;\r\n    }\r\n\r\n    function getAddApprovals(address member) external view returns (address [] memory) {\r\n        address[] memory approvals = new address[](addApprovals[member].length());\r\n        for (uint256 i = 0; i < addApprovals[member].length(); i++) {\r\n            approvals[i] = addApprovals[member].at(i);\r\n        }\r\n        return approvals;\r\n    }\r\n    \r\n    function getDelApprovals(address member) external view returns (address [] memory) {\r\n        address[] memory approvals = new address[](delApprovals[member].length());\r\n        for (uint256 i = 0; i < delApprovals[member].length(); i++) {\r\n            approvals[i] = delApprovals[member].at(i);\r\n        }\r\n        return approvals;\r\n    }\r\n\r\n    function getCleanupApprovals(address member) external view returns (address [] memory) {\r\n        address[] memory approvals = new address[](cleanupMemberApprovals[member].length());\r\n        for (uint256 i = 0; i < cleanupMemberApprovals[member].length(); i++) {\r\n            approvals[i] = cleanupMemberApprovals[member].at(i);\r\n        }\r\n        return approvals;\r\n    }\r\n\r\n    ////////////////////////////\r\n    ///// Clean Up Methods /////\r\n    ////////////////////////////\r\n\r\n    /**\r\n     * Should be called from time to time to clean up not approved members.\r\n     * NOTE: the number of members might decrease and previously unapproved additions/deletions of members\r\n     * might become eligible.\r\n     */\r\n    function delStaleMemberApproval(address account) public returns (bool) {\r\n        require(isMember(msg.sender), \"Can be called only by a member of the role.\");\r\n\r\n        cleanupMemberApprovals[account].add(msg.sender);\r\n        if (_thresholdOfSignersMet(uint16(cleanupMemberApprovals[account].length()))){\r\n            deleteEnumerableAddrSet(delApprovals[account]);\r\n            deleteEnumerableAddrSet(addApprovals[account]);\r\n            deleteEnumerableAddrSet(cleanupMemberApprovals[account]);\r\n            emit StaleApprovalCleaned(account);\r\n            return true;\r\n        }\r\n        return false;\r\n    }\r\n\r\n    ////////////////////////////////////////////////////\r\n    /////////// Private & internal functions ///////////\r\n    ////////////////////////////////////////////////////\r\n\r\n    function _thresholdOfSignersMet(uint256 obtained) internal view returns (bool){\r\n        uint256 total = members.length();\r\n        if(total == 1 && obtained >= 1) // >= is for situations where the number of members was decreased and actions did not finish\r\n            return true;\r\n        else if(total == 2 && obtained >= 2) // >= is for situations where the number of members was decreased and actions did not finish\r\n                return true;\r\n        else if(total > 2 && obtained >= total / 2 + 1)\r\n            return true;\r\n        else\r\n            return false;\r\n    }\r\n\r\n    /**\r\n     * Delete of non-atomic type EnumerableSet.AddressSet\r\n     */\r\n    function deleteEnumerableAddrSet(EnumerableSet.AddressSet storage s) internal {\r\n        while(0 != s.length()){ \r\n            s.remove(s.at(0));\r\n        }\r\n    }\r\n}\r\n",
  "sourcePath": "C:\\Users\\Kuba\\Desktop\\IDM_app\\src\\contracts\\lib\\MultisigMembers.sol",
  "compiler": {
    "name": "solc",
    "version": "0.8.17+commit.8df45f5f.Emscripten.clang"
  },
  "schemaVersion": "3.4.11",
  "updatedAt": "2023-04-25T11:54:13.926Z",
  "devdoc": {
    "kind": "dev",
    "methods": {
      "owner()": {
        "details": "Returns the address of the current owner."
      },
      "renounceOwnership()": {
        "details": "Leaves the contract without owner. It will not be possible to call `onlyOwner` functions anymore. Can only be called by the current owner. NOTE: Renouncing ownership will leave the contract without an owner, thereby removing any functionality that is only available to the owner."
      },
      "transferOwnership(address)": {
        "details": "Transfers ownership of the contract to a new account (`newOwner`). Can only be called by the current owner."
      }
    },
    "version": 1
  },
  "userdoc": {
    "kind": "user",
    "methods": {
      "constructor": {
        "notice": "Create a role contract with the initial set of members."
      },
      "delStaleMemberApproval(address)": {
        "notice": "Should be called from time to time to clean up not approved members. NOTE: the number of members might decrease and previously unapproved additions/deletions of members might become eligible."
      }
    },
    "notice": "The role object encapsulating multiple users. The management of users (adding, removing) is made through threshold-based multisig. All methods of this contract can be called directly by members (not through other contract).",
    "version": 1
  }
}