{
  "contractName": "Queans",
  "abi": [
    {
      "inputs": [],
      "stateMutability": "nonpayable",
      "type": "constructor"
    },
    {
      "inputs": [],
      "name": "idm",
      "outputs": [
        {
          "internalType": "contract IIdentityRegistry",
          "name": "",
          "type": "address"
        }
      ],
      "stateMutability": "view",
      "type": "function",
      "constant": true
    },
    {
      "inputs": [
        {
          "internalType": "address",
          "name": "addr",
          "type": "address"
        }
      ],
      "name": "update",
      "outputs": [],
      "stateMutability": "nonpayable",
      "type": "function"
    },
    {
      "inputs": [
        {
          "internalType": "address",
          "name": "walletAddress",
          "type": "address"
        }
      ],
      "name": "addUser",
      "outputs": [],
      "stateMutability": "nonpayable",
      "type": "function"
    },
    {
      "inputs": [
        {
          "internalType": "uint256",
          "name": "questionKey",
          "type": "uint256"
        },
        {
          "internalType": "uint256",
          "name": "relationID",
          "type": "uint256"
        }
      ],
      "name": "voteForQuestion",
      "outputs": [],
      "stateMutability": "payable",
      "type": "function",
      "payable": true
    },
    {
      "inputs": [
        {
          "internalType": "uint256",
          "name": "_startOfRelation",
          "type": "uint256"
        },
        {
          "internalType": "uint256",
          "name": "_questionCloseTime",
          "type": "uint256"
        },
        {
          "internalType": "string",
          "name": "_name",
          "type": "string"
        },
        {
          "internalType": "string",
          "name": "_description",
          "type": "string"
        },
        {
          "internalType": "bool",
          "name": "_isPublic",
          "type": "bool"
        }
      ],
      "name": "addRelation",
      "outputs": [],
      "stateMutability": "payable",
      "type": "function",
      "payable": true
    },
    {
      "inputs": [
        {
          "internalType": "uint256",
          "name": "relationID",
          "type": "uint256"
        }
      ],
      "name": "changeRelationPhase",
      "outputs": [],
      "stateMutability": "nonpayable",
      "type": "function"
    },
    {
      "inputs": [
        {
          "internalType": "address[]",
          "name": "usersList",
          "type": "address[]"
        },
        {
          "internalType": "uint256",
          "name": "relationID",
          "type": "uint256"
        }
      ],
      "name": "addUsersToRelation",
      "outputs": [],
      "stateMutability": "nonpayable",
      "type": "function"
    },
    {
      "inputs": [
        {
          "internalType": "uint256",
          "name": "id",
          "type": "uint256"
        }
      ],
      "name": "getRelation",
      "outputs": [
        {
          "components": [
            {
              "internalType": "address",
              "name": "author",
              "type": "address"
            },
            {
              "internalType": "uint256",
              "name": "creationTime",
              "type": "uint256"
            },
            {
              "internalType": "bool",
              "name": "isPublic",
              "type": "bool"
            },
            {
              "internalType": "bool",
              "name": "votePhase",
              "type": "bool"
            },
            {
              "internalType": "address[]",
              "name": "privateList",
              "type": "address[]"
            },
            {
              "internalType": "uint256",
              "name": "ID",
              "type": "uint256"
            },
            {
              "internalType": "uint256",
              "name": "startOfRelation",
              "type": "uint256"
            },
            {
              "internalType": "uint256",
              "name": "questionCloseTime",
              "type": "uint256"
            },
            {
              "internalType": "string",
              "name": "name",
              "type": "string"
            },
            {
              "internalType": "string",
              "name": "description",
              "type": "string"
            },
            {
              "internalType": "uint256[]",
              "name": "questionsKeys",
              "type": "uint256[]"
            }
          ],
          "internalType": "struct Queans.Relation",
          "name": "relation",
          "type": "tuple"
        }
      ],
      "stateMutability": "view",
      "type": "function",
      "constant": true
    },
    {
      "inputs": [
        {
          "internalType": "string",
          "name": "_text",
          "type": "string"
        },
        {
          "internalType": "uint256",
          "name": "relationID",
          "type": "uint256"
        }
      ],
      "name": "addQuestion",
      "outputs": [],
      "stateMutability": "payable",
      "type": "function",
      "payable": true
    },
    {
      "inputs": [
        {
          "internalType": "address",
          "name": "author",
          "type": "address"
        },
        {
          "internalType": "uint256[]",
          "name": "numbers",
          "type": "uint256[]"
        }
      ],
      "name": "getRelationQuestionByAuthor",
      "outputs": [
        {
          "internalType": "uint256",
          "name": "questionID",
          "type": "uint256"
        }
      ],
      "stateMutability": "view",
      "type": "function",
      "constant": true
    },
    {
      "inputs": [
        {
          "internalType": "uint256",
          "name": "id",
          "type": "uint256"
        }
      ],
      "name": "getQuestion",
      "outputs": [
        {
          "components": [
            {
              "internalType": "string",
              "name": "text",
              "type": "string"
            },
            {
              "internalType": "address[]",
              "name": "votes",
              "type": "address[]"
            },
            {
              "internalType": "address",
              "name": "author",
              "type": "address"
            }
          ],
          "internalType": "struct Queans.Question",
          "name": "question",
          "type": "tuple"
        }
      ],
      "stateMutability": "view",
      "type": "function",
      "constant": true
    },
    {
      "inputs": [],
      "name": "getQuestionsCount",
      "outputs": [
        {
          "internalType": "uint256",
          "name": "queLenght",
          "type": "uint256"
        }
      ],
      "stateMutability": "view",
      "type": "function",
      "constant": true
    },
    {
      "inputs": [
        {
          "internalType": "uint256",
          "name": "relationID",
          "type": "uint256"
        }
      ],
      "name": "getPrivateRelationUserList",
      "outputs": [
        {
          "internalType": "address[]",
          "name": "privateList",
          "type": "address[]"
        }
      ],
      "stateMutability": "view",
      "type": "function",
      "constant": true
    }
  ],
  "bytecode": "0x608060405234801561001057600080fd5b5033600660006101000a81548173ffffffffffffffffffffffffffffffffffffffff021916908373ffffffffffffffffffffffffffffffffffffffff160217905550613854806100616000396000f3fe6080604052600436106100c25760003560e01c80638ffe63431161007f578063be7e729711610059578063be7e72971461025c578063c2e112d214610285578063db88176f146102b0578063f7454d5f146102ed576100c2565b80638ffe6343146101b757806392fd1322146101f4578063bbf0396314610231576100c2565b806308bb5858146100c7578063129cd33e146100f05780631c1b87721461010c5780633f48f8b614610135578063421b2d8b1461017257806382bc5d011461019b575b600080fd5b3480156100d357600080fd5b506100ee60048036038101906100e99190611fe8565b610309565b005b61010a600480360381019061010591906120f9565b6104de565b005b34801561011857600080fd5b50610133600480360381019061012e9190612155565b610a95565b005b34801561014157600080fd5b5061015c60048036038101906101579190612182565b610b69565b604051610169919061226d565b60405180910390f35b34801561017e57600080fd5b5061019960048036038101906101949190612155565b610c0d565b005b6101b560048036038101906101b091906122c7565b610d61565b005b3480156101c357600080fd5b506101de60048036038101906101d99190612182565b610fe0565b6040516101eb9190612639565b60405180910390f35b34801561020057600080fd5b5061021b6004803603810190610216919061271e565b6112cc565b6040516102289190612789565b60405180910390f35b34801561023d57600080fd5b50610246611374565b6040516102539190612803565b60405180910390f35b34801561026857600080fd5b50610283600480360381019061027e9190612182565b61139a565b005b34801561029157600080fd5b5061029a611499565b6040516102a79190612789565b60405180910390f35b3480156102bc57600080fd5b506102d760048036038101906102d29190612182565b6114a3565b6040516102e49190612875565b60405180910390f35b61030760048036038101906103029190612897565b611646565b005b61031281610fe0565b6000015173ffffffffffffffffffffffffffffffffffffffff163373ffffffffffffffffffffffffffffffffffffffff1614610383576040517f08c379a000000000000000000000000000000000000000000000000000000000815260040161037a9061295a565b60405180910390fd5b61038c81610fe0565b60400151151560001515146103d6576040517f08c379a00000000000000000000000000000000000000000000000000000000081526004016103cd906129ec565b60405180910390fd5b600015156103e382610fe0565b60600151151514610429576040517f08c379a000000000000000000000000000000000000000000000000000000000815260040161042090612a7e565b60405180910390fd5b60005b82518110156104d9576004600083815260200190815260200160002060030183828151811061045e5761045d612a9e565b5b60200260200101519080600181540180825580915050600190039060005260206000200160009091909190916101000a81548173ffffffffffffffffffffffffffffffffffffffff021916908373ffffffffffffffffffffffffffffffffffffffff16021790555080806104d190612afc565b91505061042c565b505050565b60011515600760009054906101000a900473ffffffffffffffffffffffffffffffffffffffff1673ffffffffffffffffffffffffffffffffffffffff1663b5b90fd9336040518263ffffffff1660e01b815260040161053d9190612b53565b602060405180830381865afa15801561055a573d6000803e3d6000fd5b505050506040513d601f19601f8201168201806040525081019061057e9190612b83565b1515146105c0576040517f08c379a00000000000000000000000000000000000000000000000000000000081526004016105b790612c22565b60405180910390fd5b600115156105d8336000611a6690919063ffffffff16565b15151461061a576040517f08c379a000000000000000000000000000000000000000000000000000000000815260040161061190612cb4565b60405180910390fd5b3373ffffffffffffffffffffffffffffffffffffffff166004600083815260200190815260200160002060000160009054906101000a900473ffffffffffffffffffffffffffffffffffffffff1673ffffffffffffffffffffffffffffffffffffffff16036106be576040517f08c379a00000000000000000000000000000000000000000000000000000000081526004016106b590612d46565b60405180910390fd5b600015156106d4336106cf84610fe0565b611a96565b151514610716576040517f08c379a000000000000000000000000000000000000000000000000000000000815260040161070d90612dd8565b60405180910390fd5b600115156004600083815260200190815260200160002060020160019054906101000a900460ff16151514610780576040517f08c379a000000000000000000000000000000000000000000000000000000000815260040161077790612e6a565b60405180910390fd5b60013410156107c4576040517f08c379a00000000000000000000000000000000000000000000000000000000081526004016107bb90612efc565b60405180910390fd5b600015156004600083815260200190815260200160002060020160009054906101000a900460ff1615150361094f57600060046000838152602001908152602001600020600301805490501161084f576040517f08c379a000000000000000000000000000000000000000000000000000000000815260040161084690612f68565b60405180910390fd5b6000805b61085c83610fe0565b6080015151811015610905573373ffffffffffffffffffffffffffffffffffffffff166004600085815260200190815260200160002060030182815481106108a7576108a6612a9e565b5b9060005260206000200160009054906101000a900473ffffffffffffffffffffffffffffffffffffffff1673ffffffffffffffffffffffffffffffffffffffff16036108f257600191505b80806108fd90612afc565b915050610853565b50600115158115151461094d576040517f08c379a000000000000000000000000000000000000000000000000000000000815260040161094490612ffa565b60405180910390fd5b505b6060610959611c95565b83816000018190525081816020018190525033816040019073ffffffffffffffffffffffffffffffffffffffff16908173ffffffffffffffffffffffffffffffffffffffff16815250508060026000600354815260200190815260200160002060008201518160000190816109ce919061321c565b5060208201518160010190805190602001906109eb929190611ccc565b5060408201518160020160006101000a81548173ffffffffffffffffffffffffffffffffffffffff021916908373ffffffffffffffffffffffffffffffffffffffff160217905550905050600460008481526020019081526020016000206009016003549080600181540180825580915050600190039060005260206000200160009091909190915055600160036000828254610a8891906132ee565b9250508190555050505050565b600660009054906101000a900473ffffffffffffffffffffffffffffffffffffffff1673ffffffffffffffffffffffffffffffffffffffff163373ffffffffffffffffffffffffffffffffffffffff1614610b25576040517f08c379a0000000000000000000000000000000000000000000000000000000008152600401610b1c90613394565b60405180910390fd5b80600760006101000a81548173ffffffffffffffffffffffffffffffffffffffff021916908373ffffffffffffffffffffffffffffffffffffffff16021790555050565b606060046000838152602001908152602001600020600301805480602002602001604051908101604052809291908181526020018280548015610c0157602002820191906000526020600020905b8160009054906101000a900473ffffffffffffffffffffffffffffffffffffffff1673ffffffffffffffffffffffffffffffffffffffff1681526020019060010190808311610bb7575b50505050509050919050565b60011515600760009054906101000a900473ffffffffffffffffffffffffffffffffffffffff1673ffffffffffffffffffffffffffffffffffffffff1663b5b90fd9836040518263ffffffff1660e01b8152600401610c6c9190612b53565b602060405180830381865afa158015610c89573d6000803e3d6000fd5b505050506040513d601f19601f82011682018060405250810190610cad9190612b83565b151514610cef576040517f08c379a0000000000000000000000000000000000000000000000000000000008152600401610ce690612c22565b60405180910390fd5b60001515610d07826000611a6690919063ffffffff16565b151514610d49576040517f08c379a0000000000000000000000000000000000000000000000000000000008152600401610d4090613426565b60405180910390fd5b610d5d816000611b3390919063ffffffff16565b5050565b60011515600760009054906101000a900473ffffffffffffffffffffffffffffffffffffffff1673ffffffffffffffffffffffffffffffffffffffff1663b5b90fd9336040518263ffffffff1660e01b8152600401610dc09190612b53565b602060405180830381865afa158015610ddd573d6000803e3d6000fd5b505050506040513d601f19601f82011682018060405250810190610e019190612b83565b151514610e43576040517f08c379a0000000000000000000000000000000000000000000000000000000008152600401610e3a90612c22565b60405180910390fd5b60011515610e5b336000611a6690919063ffffffff16565b151514610e9d576040517f08c379a0000000000000000000000000000000000000000000000000000000008152600401610e9490612cb4565b60405180910390fd5b6001341015610ee1576040517f08c379a0000000000000000000000000000000000000000000000000000000008152600401610ed8906134b8565b60405180910390fd5b60006004600060055481526020019081526020016000209050338160000160006101000a81548173ffffffffffffffffffffffffffffffffffffffff021916908373ffffffffffffffffffffffffffffffffffffffff160217905550428160010181905550818160020160006101000a81548160ff021916908315150217905550600554816004018190555060008160020160016101000a81548160ff02191690831515021790555085816005018190555084816006018190555083816007019081610fad919061321c565b5082816008019081610fbf919061321c565b5060056000815480929190610fd390612afc565b9190505550505050505050565b610fe8611d56565b60046000838152602001908152602001600020604051806101600160405290816000820160009054906101000a900473ffffffffffffffffffffffffffffffffffffffff1673ffffffffffffffffffffffffffffffffffffffff1673ffffffffffffffffffffffffffffffffffffffff168152602001600182015481526020016002820160009054906101000a900460ff161515151581526020016002820160019054906101000a900460ff161515151581526020016003820180548060200260200160405190810160405280929190818152602001828054801561112257602002820191906000526020600020905b8160009054906101000a900473ffffffffffffffffffffffffffffffffffffffff1673ffffffffffffffffffffffffffffffffffffffff16815260200190600101908083116110d8575b5050505050815260200160048201548152602001600582015481526020016006820154815260200160078201805461115990613049565b80601f016020809104026020016040519081016040528092919081815260200182805461118590613049565b80156111d25780601f106111a7576101008083540402835291602001916111d2565b820191906000526020600020905b8154815290600101906020018083116111b557829003601f168201915b505050505081526020016008820180546111eb90613049565b80601f016020809104026020016040519081016040528092919081815260200182805461121790613049565b80156112645780601f1061123957610100808354040283529160200191611264565b820191906000526020600020905b81548152906001019060200180831161124757829003601f168201915b50505050508152602001600982018054806020026020016040519081016040528092919081815260200182805480156112bc57602002820191906000526020600020905b8154815260200190600101908083116112a8575b5050505050815250509050919050565b600080600090505b825181101561136c578373ffffffffffffffffffffffffffffffffffffffff1661131784838151811061130a57611309612a9e565b5b60200260200101516114a3565b6040015173ffffffffffffffffffffffffffffffffffffffff16036113595782818151811061134957611348612a9e565b5b602002602001015191505061136e565b808061136490612afc565b9150506112d4565b505b92915050565b600760009054906101000a900473ffffffffffffffffffffffffffffffffffffffff1681565b6113a381610fe0565b6000015173ffffffffffffffffffffffffffffffffffffffff163373ffffffffffffffffffffffffffffffffffffffff1614611414576040517f08c379a000000000000000000000000000000000000000000000000000000000815260040161140b9061354a565b60405180910390fd5b6000151561142182610fe0565b60600151151514611467576040517f08c379a000000000000000000000000000000000000000000000000000000000815260040161145e906135b6565b60405180910390fd5b60016004600083815260200190815260200160002060020160016101000a81548160ff02191690831515021790555050565b6000600354905090565b6114ab611c95565b600260008381526020019081526020016000206040518060600160405290816000820180546114d990613049565b80601f016020809104026020016040519081016040528092919081815260200182805461150590613049565b80156115525780601f1061152757610100808354040283529160200191611552565b820191906000526020600020905b81548152906001019060200180831161153557829003601f168201915b50505050508152602001600182018054806020026020016040519081016040528092919081815260200182805480156115e057602002820191906000526020600020905b8160009054906101000a900473ffffffffffffffffffffffffffffffffffffffff1673ffffffffffffffffffffffffffffffffffffffff1681526020019060010190808311611596575b505050505081526020016002820160009054906101000a900473ffffffffffffffffffffffffffffffffffffffff1673ffffffffffffffffffffffffffffffffffffffff1673ffffffffffffffffffffffffffffffffffffffff16815250509050919050565b60011515600760009054906101000a900473ffffffffffffffffffffffffffffffffffffffff1673ffffffffffffffffffffffffffffffffffffffff1663b5b90fd9336040518263ffffffff1660e01b81526004016116a59190612b53565b602060405180830381865afa1580156116c2573d6000803e3d6000fd5b505050506040513d601f19601f820116820180604052508101906116e69190612b83565b151514611728576040517f08c379a000000000000000000000000000000000000000000000000000000000815260040161171f90612c22565b60405180910390fd5b60011515611740336000611a6690919063ffffffff16565b151514611782576040517f08c379a000000000000000000000000000000000000000000000000000000000815260040161177990612cb4565b60405180910390fd5b61178b826114a3565b6040015173ffffffffffffffffffffffffffffffffffffffff163373ffffffffffffffffffffffffffffffffffffffff16036117fc576040517f08c379a00000000000000000000000000000000000000000000000000000000081526004016117f390613648565b60405180910390fd5b6001341015611840576040517f08c379a0000000000000000000000000000000000000000000000000000000008152600401611837906136da565b60405180910390fd5b6000151561184e3384611b63565b151514611890576040517f08c379a00000000000000000000000000000000000000000000000000000000081526004016118879061376c565b60405180910390fd5b60006004600083815260200190815260200160002060030180549050116118ec576040517f08c379a00000000000000000000000000000000000000000000000000000000081526004016118e390612f68565b60405180910390fd5b6000805b6118f983610fe0565b60800151518110156119a2573373ffffffffffffffffffffffffffffffffffffffff1660046000858152602001908152602001600020600301828154811061194457611943612a9e565b5b9060005260206000200160009054906101000a900473ffffffffffffffffffffffffffffffffffffffff1673ffffffffffffffffffffffffffffffffffffffff160361198f57600191505b808061199a90612afc565b9150506118f0565b5060011515811515146119ea576040517f08c379a00000000000000000000000000000000000000000000000000000000081526004016119e1906137fe565b60405180910390fd5b60026000848152602001908152602001600020600101339080600181540180825580915050600190039060005260206000200160009091909190916101000a81548173ffffffffffffffffffffffffffffffffffffffff021916908373ffffffffffffffffffffffffffffffffffffffff160217905550505050565b6000611a8e836000018373ffffffffffffffffffffffffffffffffffffffff1660001b611c02565b905092915050565b600080600090505b82610140015151811015611b27578373ffffffffffffffffffffffffffffffffffffffff16611aeb8461014001518381518110611ade57611add612a9e565b5b60200260200101516114a3565b6040015173ffffffffffffffffffffffffffffffffffffffff1603611b14576001915050611b2d565b8080611b1f90612afc565b915050611a9e565b50600090505b92915050565b6000611b5b836000018373ffffffffffffffffffffffffffffffffffffffff1660001b611c25565b905092915050565b600080600090505b611b74836114a3565b6020015151811015611bf6578373ffffffffffffffffffffffffffffffffffffffff16611ba0846114a3565b602001518281518110611bb657611bb5612a9e565b5b602002602001015173ffffffffffffffffffffffffffffffffffffffff1603611be3576001915050611bfc565b8080611bee90612afc565b915050611b6b565b50600090505b92915050565b600080836001016000848152602001908152602001600020541415905092915050565b6000611c318383611c02565b611c8a578260000182908060018154018082558091505060019003906000526020600020016000909190919091505582600001805490508360010160008481526020019081526020016000208190555060019050611c8f565b600090505b92915050565b60405180606001604052806060815260200160608152602001600073ffffffffffffffffffffffffffffffffffffffff1681525090565b828054828255906000526020600020908101928215611d45579160200282015b82811115611d445782518260006101000a81548173ffffffffffffffffffffffffffffffffffffffff021916908373ffffffffffffffffffffffffffffffffffffffff16021790555091602001919060010190611cec565b5b509050611d529190611dca565b5090565b604051806101600160405280600073ffffffffffffffffffffffffffffffffffffffff16815260200160008152602001600015158152602001600015158152602001606081526020016000815260200160008152602001600081526020016060815260200160608152602001606081525090565b5b80821115611de3576000816000905550600101611dcb565b5090565b6000604051905090565b600080fd5b600080fd5b600080fd5b6000601f19601f8301169050919050565b7f4e487b7100000000000000000000000000000000000000000000000000000000600052604160045260246000fd5b611e4982611e00565b810181811067ffffffffffffffff82111715611e6857611e67611e11565b5b80604052505050565b6000611e7b611de7565b9050611e878282611e40565b919050565b600067ffffffffffffffff821115611ea757611ea6611e11565b5b602082029050602081019050919050565b600080fd5b600073ffffffffffffffffffffffffffffffffffffffff82169050919050565b6000611ee882611ebd565b9050919050565b611ef881611edd565b8114611f0357600080fd5b50565b600081359050611f1581611eef565b92915050565b6000611f2e611f2984611e8c565b611e71565b90508083825260208201905060208402830185811115611f5157611f50611eb8565b5b835b81811015611f7a5780611f668882611f06565b845260208401935050602081019050611f53565b5050509392505050565b600082601f830112611f9957611f98611dfb565b5b8135611fa9848260208601611f1b565b91505092915050565b6000819050919050565b611fc581611fb2565b8114611fd057600080fd5b50565b600081359050611fe281611fbc565b92915050565b60008060408385031215611fff57611ffe611df1565b5b600083013567ffffffffffffffff81111561201d5761201c611df6565b5b61202985828601611f84565b925050602061203a85828601611fd3565b9150509250929050565b600080fd5b600067ffffffffffffffff82111561206457612063611e11565b5b61206d82611e00565b9050602081019050919050565b82818337600083830152505050565b600061209c61209784612049565b611e71565b9050828152602081018484840111156120b8576120b7612044565b5b6120c384828561207a565b509392505050565b600082601f8301126120e0576120df611dfb565b5b81356120f0848260208601612089565b91505092915050565b600080604083850312156121105761210f611df1565b5b600083013567ffffffffffffffff81111561212e5761212d611df6565b5b61213a858286016120cb565b925050602061214b85828601611fd3565b9150509250929050565b60006020828403121561216b5761216a611df1565b5b600061217984828501611f06565b91505092915050565b60006020828403121561219857612197611df1565b5b60006121a684828501611fd3565b91505092915050565b600081519050919050565b600082825260208201905092915050565b6000819050602082019050919050565b6121e481611edd565b82525050565b60006121f683836121db565b60208301905092915050565b6000602082019050919050565b600061221a826121af565b61222481856121ba565b935061222f836121cb565b8060005b8381101561226057815161224788826121ea565b975061225283612202565b925050600181019050612233565b5085935050505092915050565b60006020820190508181036000830152612287818461220f565b905092915050565b60008115159050919050565b6122a48161228f565b81146122af57600080fd5b50565b6000813590506122c18161229b565b92915050565b600080600080600060a086880312156122e3576122e2611df1565b5b60006122f188828901611fd3565b955050602061230288828901611fd3565b945050604086013567ffffffffffffffff81111561232357612322611df6565b5b61232f888289016120cb565b935050606086013567ffffffffffffffff8111156123505761234f611df6565b5b61235c888289016120cb565b925050608061236d888289016122b2565b9150509295509295909350565b61238381611fb2565b82525050565b6123928161228f565b82525050565b600082825260208201905092915050565b60006123b4826121af565b6123be8185612398565b93506123c9836121cb565b8060005b838110156123fa5781516123e188826121ea565b97506123ec83612202565b9250506001810190506123cd565b5085935050505092915050565b600081519050919050565b600082825260208201905092915050565b60005b83811015612441578082015181840152602081019050612426565b60008484015250505050565b600061245882612407565b6124628185612412565b9350612472818560208601612423565b61247b81611e00565b840191505092915050565b600081519050919050565b600082825260208201905092915050565b6000819050602082019050919050565b60006124be838361237a565b60208301905092915050565b6000602082019050919050565b60006124e282612486565b6124ec8185612491565b93506124f7836124a2565b8060005b8381101561252857815161250f88826124b2565b975061251a836124ca565b9250506001810190506124fb565b5085935050505092915050565b60006101608301600083015161254e60008601826121db565b506020830151612561602086018261237a565b5060408301516125746040860182612389565b5060608301516125876060860182612389565b506080830151848203608086015261259f82826123a9565b91505060a08301516125b460a086018261237a565b5060c08301516125c760c086018261237a565b5060e08301516125da60e086018261237a565b506101008301518482036101008601526125f4828261244d565b915050610120830151848203610120860152612610828261244d565b91505061014083015184820361014086015261262c82826124d7565b9150508091505092915050565b600060208201905081810360008301526126538184612535565b905092915050565b600067ffffffffffffffff82111561267657612675611e11565b5b602082029050602081019050919050565b600061269a6126958461265b565b611e71565b905080838252602082019050602084028301858111156126bd576126bc611eb8565b5b835b818110156126e657806126d28882611fd3565b8452602084019350506020810190506126bf565b5050509392505050565b600082601f83011261270557612704611dfb565b5b8135612715848260208601612687565b91505092915050565b6000806040838503121561273557612734611df1565b5b600061274385828601611f06565b925050602083013567ffffffffffffffff81111561276457612763611df6565b5b612770858286016126f0565b9150509250929050565b61278381611fb2565b82525050565b600060208201905061279e600083018461277a565b92915050565b6000819050919050565b60006127c96127c46127bf84611ebd565b6127a4565b611ebd565b9050919050565b60006127db826127ae565b9050919050565b60006127ed826127d0565b9050919050565b6127fd816127e2565b82525050565b600060208201905061281860008301846127f4565b92915050565b6000606083016000830151848203600086015261283b828261244d565b9150506020830151848203602086015261285582826123a9565b915050604083015161286a60408601826121db565b508091505092915050565b6000602082019050818103600083015261288f818461281e565b905092915050565b600080604083850312156128ae576128ad611df1565b5b60006128bc85828601611fd3565b92505060206128cd85828601611fd3565b9150509250929050565b600082825260208201905092915050565b7f596f75206d7573742062652063726561746f72206f662072656c6174696f6e2060008201527f746f206164642075736572730000000000000000000000000000000000000000602082015250565b6000612944602c836128d7565b915061294f826128e8565b604082019050919050565b6000602082019050818103600083015261297381612937565b9050919050565b7f596f752063616e20616464207573657273206f6e6c7920746f2070726976617460008201527f652072656c6174696f6e00000000000000000000000000000000000000000000602082015250565b60006129d6602a836128d7565b91506129e18261297a565b604082019050919050565b60006020820190508181036000830152612a05816129c9565b9050919050565b7f596f752063616e206e6f742061646420757365727320696e20766f746520706860008201527f6173650000000000000000000000000000000000000000000000000000000000602082015250565b6000612a686023836128d7565b9150612a7382612a0c565b604082019050919050565b60006020820190508181036000830152612a9781612a5b565b9050919050565b7f4e487b7100000000000000000000000000000000000000000000000000000000600052603260045260246000fd5b7f4e487b7100000000000000000000000000000000000000000000000000000000600052601160045260246000fd5b6000612b0782611fb2565b91507fffffffffffffffffffffffffffffffffffffffffffffffffffffffffffffffff8203612b3957612b38612acd565b5b600182019050919050565b612b4d81611edd565b82525050565b6000602082019050612b686000830184612b44565b92915050565b600081519050612b7d8161229b565b92915050565b600060208284031215612b9957612b98611df1565b5b6000612ba784828501612b6e565b91505092915050565b7f5573657220646f6573206e6f742068617665207665726966696564206964656e60008201527f7469747900000000000000000000000000000000000000000000000000000000602082015250565b6000612c0c6024836128d7565b9150612c1782612bb0565b604082019050919050565b60006020820190508181036000830152612c3b81612bff565b9050919050565b7f55736572206973206e6f7420616464656420746f20636f6e7472616374206c6960008201527f7374000000000000000000000000000000000000000000000000000000000000602082015250565b6000612c9e6022836128d7565b9150612ca982612c42565b604082019050919050565b60006020820190508181036000830152612ccd81612c91565b9050919050565b7f52656c6174696f6e20617574686f722063616e206e6f7420616464207175657360008201527f74696f6e7320746f206869732f686572206f776e2072656c6174696f6e730000602082015250565b6000612d30603e836128d7565b9150612d3b82612cd4565b604082019050919050565b60006020820190508181036000830152612d5f81612d23565b9050919050565b7f5573657220697320616c7265616479206164646564207175657374696f6e207460008201527f6f20746869732072656c6174696f6e0000000000000000000000000000000000602082015250565b6000612dc2602f836128d7565b9150612dcd82612d66565b604082019050919050565b60006020820190508181036000830152612df181612db5565b9050919050565b7f596f752063616e20616464207175657374696f6e73206f6e6c7920696e20766f60008201527f7465506861736500000000000000000000000000000000000000000000000000602082015250565b6000612e546027836128d7565b9150612e5f82612df8565b604082019050919050565b60006020820190508181036000830152612e8381612e47565b9050919050565b7f596f75206d75737420706179206174206c6561737420312045544820746f206160008201527f64645175657374696f6e00000000000000000000000000000000000000000000602082015250565b6000612ee6602a836128d7565b9150612ef182612e8a565b604082019050919050565b60006020820190508181036000830152612f1581612ed9565b9050919050565b7f52656c6174696f6e206c697374206f6620757365727320697320656d70747900600082015250565b6000612f52601f836128d7565b9150612f5d82612f1c565b602082019050919050565b60006020820190508181036000830152612f8181612f45565b9050919050565b7f53656e646572206d75737420626520616464656420746f20707269766174652060008201527f72656c6174696f6e000000000000000000000000000000000000000000000000602082015250565b6000612fe46028836128d7565b9150612fef82612f88565b604082019050919050565b6000602082019050818103600083015261301381612fd7565b9050919050565b7f4e487b7100000000000000000000000000000000000000000000000000000000600052602260045260246000fd5b6000600282049050600182168061306157607f821691505b6020821081036130745761307361301a565b5b50919050565b60008190508160005260206000209050919050565b60006020601f8301049050919050565b600082821b905092915050565b6000600883026130dc7fffffffffffffffffffffffffffffffffffffffffffffffffffffffffffffffff8261309f565b6130e6868361309f565b95508019841693508086168417925050509392505050565b600061311961311461310f84611fb2565b6127a4565b611fb2565b9050919050565b6000819050919050565b613133836130fe565b61314761313f82613120565b8484546130ac565b825550505050565b600090565b61315c61314f565b61316781848461312a565b505050565b5b8181101561318b57613180600082613154565b60018101905061316d565b5050565b601f8211156131d0576131a18161307a565b6131aa8461308f565b810160208510156131b9578190505b6131cd6131c58561308f565b83018261316c565b50505b505050565b600082821c905092915050565b60006131f3600019846008026131d5565b1980831691505092915050565b600061320c83836131e2565b9150826002028217905092915050565b61322582612407565b67ffffffffffffffff81111561323e5761323d611e11565b5b6132488254613049565b61325382828561318f565b600060209050601f8311600181146132865760008415613274578287015190505b61327e8582613200565b8655506132e6565b601f1984166132948661307a565b60005b828110156132bc57848901518255600182019150602085019450602081019050613297565b868310156132d957848901516132d5601f8916826131e2565b8355505b6001600288020188555050505b505050505050565b60006132f982611fb2565b915061330483611fb2565b925082820190508082111561331c5761331b612acd565b5b92915050565b7f4f6e6c792063726561746f72206f6620636f6e74726163742063616e2075706460008201527f617465204964656e746974795265676973747279000000000000000000000000602082015250565b600061337e6034836128d7565b915061338982613322565b604082019050919050565b600060208201905081810360008301526133ad81613371565b9050919050565b7f5573657220697320616c726561647920616464656420746f20636f6e7472616360008201527f74206c6973740000000000000000000000000000000000000000000000000000602082015250565b60006134106026836128d7565b915061341b826133b4565b604082019050919050565b6000602082019050818103600083015261343f81613403565b9050919050565b7f596f75206d75737420706179206174206c6561737420312045544820746f206160008201527f646452656c6174696f6e00000000000000000000000000000000000000000000602082015250565b60006134a2602a836128d7565b91506134ad82613446565b604082019050919050565b600060208201905081810360008301526134d181613495565b9050919050565b7f596f75206d7573742062652063726561746f72206f662072656c6174696f6e2060008201527f746f206368616e67652074686520706861736500000000000000000000000000602082015250565b60006135346033836128d7565b915061353f826134d8565b604082019050919050565b6000602082019050818103600083015261356381613527565b9050919050565b7f596f752063616e206368616e6765207068617365206f6e6c79206f6e63652100600082015250565b60006135a0601f836128d7565b91506135ab8261356a565b602082019050919050565b600060208201905081810360008301526135cf81613593565b9050919050565b7f596f752063616e206e6f7420766f746520666f7220796f7572206f776e20717560008201527f657374696f6e0000000000000000000000000000000000000000000000000000602082015250565b60006136326026836128d7565b915061363d826135d6565b604082019050919050565b6000602082019050818103600083015261366181613625565b9050919050565b7f596f75206d75737420706179206174206c6561737420312045544820746f207660008201527f6f74650000000000000000000000000000000000000000000000000000000000602082015250565b60006136c46023836128d7565b91506136cf82613668565b604082019050919050565b600060208201905081810360008301526136f3816136b7565b9050919050565b7f596f7520616c726561647920766f74656420666f72207468697320717565737460008201527f696f6e0000000000000000000000000000000000000000000000000000000000602082015250565b60006137566023836128d7565b9150613761826136fa565b604082019050919050565b6000602082019050818103600083015261378581613749565b9050919050565b7f53656e646572206d75737420626520616464656420746f20707269766174652060008201527f72656c6174696f6e20746f20766f746500000000000000000000000000000000602082015250565b60006137e86030836128d7565b91506137f38261378c565b604082019050919050565b60006020820190508181036000830152613817816137db565b905091905056fea26469706673582212203d9dfec334892be7b428b7d6c52f9677b60bde077c02874857969c378c9f644d64736f6c63430008110033",
  "immutableReferences": {},
  "source": "// SPDX-License-Identifier: MIT\r\npragma solidity ^0.8.17;\r\n\r\nimport \"./lib/IIdentityRegistry.sol\";\r\nimport \"./identityRegistry.sol\";\r\nimport \"@openzeppelin/contracts/utils/structs/EnumerableSet.sol\";\r\n\r\ncontract Queans {\r\n\r\n    using EnumerableSet for EnumerableSet.AddressSet;\r\n\r\n    EnumerableSet.AddressSet users;\r\n\r\n    mapping(uint=>Question) questions;\r\n    uint numQuestions;\r\n\r\n    mapping(uint=>Relation) relations;\r\n    uint numRelations;\r\n\r\n    address admin;\r\n\r\n    IIdentityRegistry public idm; \r\n\r\n    constructor() {  \r\n        admin = msg.sender;  \r\n    }\r\n\r\n    struct Question {\r\n        string text;\r\n        address[] votes;\r\n        address author;\r\n    }\r\n\r\n    struct Relation {\r\n        address author; //\r\n        uint creationTime; //\r\n        // odkaz na seznam pozvanch entit\r\n        bool isPublic; //\r\n        bool votePhase; //\r\n        address[] privateList; //\r\n        uint ID;\r\n        uint startOfRelation; \r\n        uint questionCloseTime; \r\n        string name; \r\n        string description;\r\n        uint[] questionsKeys; // question numbers\r\n    }\r\n\r\n    function update(address addr) public {\r\n        require(msg.sender == admin, \"Only creator of contract can update IdentityRegistry\");\r\n        idm = IdentityRegistry(address(addr));\r\n    }\r\n\r\n    function addUser(address walletAddress) public {\r\n        require(idm.verifyIdentity(walletAddress) == true, \"User does not have verified identity\");\r\n        require(users.contains(walletAddress) == false, \"User is already added to contract list\");\r\n        users.add(walletAddress);\r\n    }\r\n\r\n    // me hlasovat pouze pozvan do relace?\r\n     function voteForQuestion(uint questionKey, uint relationID) payable public {\r\n    //function voteForQuestion(uint questionKey) payable public {\r\n        require(idm.verifyIdentity(msg.sender) == true, \"User does not have verified identity\");\r\n        require(users.contains(msg.sender) == true, \"User is not added to contract list\");\r\n        require(msg.sender != getQuestion(questionKey).author, \"You can not vote for your own question\");\r\n        require(msg.value >= 1, \"You must pay at least 1 ETH to vote\");\r\n        require(getVoter(msg.sender, questionKey) == false, \"You already voted for this question\");\r\n        require(relations[relationID].privateList.length > 0, \"Relation list of users is empty\");\r\n                bool inList = false;\r\n                for(uint i = 0; i < getRelation(relationID).privateList.length; i++) {\r\n                    if (relations[relationID].privateList[i] == msg.sender) {\r\n                        inList = true;\r\n                    }\r\n                }\r\n                require(inList == true, \"Sender must be added to private relation to vote\");\r\n        questions[questionKey].votes.push(msg.sender);\r\n    }\r\n\r\n    function getVoter(address voter, uint questionKey) private view returns(bool response){\r\n        for(uint i = 0; i < getQuestion(questionKey).votes.length; i++) {\r\n            if (getQuestion(questionKey).votes[i] == voter) {\r\n                return true;\r\n            }\r\n        }\r\n        return false;\r\n    }\r\n\r\n    function addRelation(uint _startOfRelation, uint _questionCloseTime, string memory _name, string memory _description, bool _isPublic) payable public {\r\n        require(idm.verifyIdentity(msg.sender) == true, \"User does not have verified identity\");\r\n        require(users.contains(msg.sender) == true, \"User is not added to contract list\");\r\n        require(msg.value >= 1, \"You must pay at least 1 ETH to addRelation\");\r\n        Relation storage r = relations[numRelations];\r\n        r.author = msg.sender;\r\n        r.creationTime = block.timestamp;\r\n        r.isPublic = _isPublic;\r\n        r.ID = numRelations;\r\n        r.votePhase = false;\r\n        r.startOfRelation = _startOfRelation;\r\n        r.questionCloseTime = _questionCloseTime;\r\n        r.name = _name;\r\n        r.description = _description;\r\n        numRelations++;\r\n\r\n    }\r\n\r\n    function changeRelationPhase(uint relationID) public {\r\n        require(msg.sender == getRelation(relationID).author, \"You must be creator of relation to change the phase\");\r\n        require(getRelation(relationID).votePhase == false, \"You can change phase only once!\");\r\n        relations[relationID].votePhase = true;\r\n    }\r\n\r\n    function addUsersToRelation(address[] memory usersList, uint relationID) public {\r\n        require(msg.sender == getRelation(relationID).author, \"You must be creator of relation to add users\");\r\n        require(false == getRelation(relationID).isPublic, \"You can add users only to private relation\");\r\n        require(getRelation(relationID).votePhase == false, \"You can not add users in vote phase\");\r\n        for(uint i = 0; i < usersList.length; i++) {\r\n           // require(idm.verifyIdentity(usersList[i]) == true, \"User does not have verified identity\");\r\n           // require(users.contains(usersList[i]) == true, \"User must be added to contract users list\");\r\n           // for(uint j = 0; j < getRelation(relationID).privateList.length; j++) {\r\n           //     require(getRelation(relationID).privateList[j] != usersList[i], \"User is already added to contract list\");\r\n           // }\r\n            relations[relationID].privateList.push(usersList[i]);\r\n        }\r\n    }\r\n\r\n    function getRelation(uint id) public view returns(Relation memory relation) {\r\n        return relations[id];\r\n    }\r\n\r\n    function addQuestion(string memory _text, uint relationID) payable public {\r\n        require(idm.verifyIdentity(msg.sender) == true, \"User does not have verified identity\");\r\n        require(users.contains(msg.sender) == true, \"User is not added to contract list\");\r\n        require(relations[relationID].author != msg.sender, \"Relation author can not add questions to his/her own relations\");\r\n        require(checkUserQuestion(msg.sender, getRelation(relationID)) == false, \"User is already added question to this relation\");\r\n        require(relations[relationID].votePhase == true, \"You can add questions only in votePhase\");\r\n        require(msg.value >= 1, \"You must pay at least 1 ETH to addQuestion\");\r\n        if(relations[relationID].isPublic == false) {\r\n                require(relations[relationID].privateList.length > 0, \"Relation list of users is empty\");\r\n                bool inList = false;\r\n                for(uint i = 0; i < getRelation(relationID).privateList.length; i++) {\r\n                    if (relations[relationID].privateList[i] == msg.sender) {\r\n                        inList = true;\r\n                    }\r\n                }\r\n                require(inList == true, \"Sender must be added to private relation\");\r\n        }\r\n        address[] memory questionVotes;\r\n        Question memory que;\r\n        que.text = _text;\r\n        que.votes = questionVotes;\r\n        que.author = msg.sender;\r\n        questions[numQuestions] = que;\r\n        relations[relationID].questionsKeys.push(numQuestions);\r\n        numQuestions += 1;\r\n    }\r\n\r\n    function checkUserQuestion(address userAddr, Relation memory relation) private view returns(bool) {\r\n        for(uint i = 0; i < relation.questionsKeys.length; i++) {\r\n            if (getQuestion(relation.questionsKeys[i]).author == userAddr)\r\n                return true;\r\n        }\r\n        return false;\r\n    }\r\n\r\n    function getRelationQuestionByAuthor(address author, uint [] memory numbers) public view returns(uint questionID) {\r\n        for(uint i = 0; i < numbers.length; i++) { \r\n            if(getQuestion(numbers[i]).author == author) {\r\n                return numbers[i];\r\n            }\r\n        }\r\n    }\r\n\r\n    function getQuestion(uint id) public view returns(Question memory question) {\r\n        return questions[id];\r\n    }\r\n\r\n    function getQuestionsCount() public view returns(uint queLenght) {\r\n        return numQuestions;\r\n    }\r\n\r\n    function getPrivateRelationUserList(uint relationID) public view returns(address[] memory privateList) {\r\n        return relations[relationID].privateList;\r\n    }\r\n    \r\n}\r\n",
  "sourcePath": "C:\\Users\\Kuba\\Desktop\\IDM_app\\queans\\contracts\\Queans.sol",
  "compiler": {
    "name": "solc",
    "version": "0.8.17+commit.8df45f5f.Emscripten.clang"
  },
  "schemaVersion": "3.4.11",
  "updatedAt": "2023-04-08T09:06:18.491Z",
  "networkType": "ethereum",
  "devdoc": {
    "kind": "dev",
    "methods": {},
    "version": 1
  },
  "userdoc": {
    "kind": "user",
    "methods": {},
    "version": 1
  }
}