{
  "contractName": "MultisigActionMembers",
  "abi": [
    {
      "inputs": [
        {
          "internalType": "address[]",
          "name": "_members",
          "type": "address[]"
        },
        {
          "internalType": "string",
          "name": "_roleName",
          "type": "string"
        }
      ],
      "stateMutability": "nonpayable",
      "type": "constructor"
    },
    {
      "anonymous": false,
      "inputs": [
        {
          "indexed": false,
          "internalType": "bytes32",
          "name": "actionHash",
          "type": "bytes32"
        }
      ],
      "name": "ActionApproved",
      "type": "event"
    },
    {
      "anonymous": false,
      "inputs": [
        {
          "indexed": false,
          "internalType": "address",
          "name": "account",
          "type": "address"
        }
      ],
      "name": "MemberAdded",
      "type": "event"
    },
    {
      "anonymous": false,
      "inputs": [
        {
          "indexed": false,
          "internalType": "address",
          "name": "existingAccount",
          "type": "address"
        }
      ],
      "name": "MemberNotAdded",
      "type": "event"
    },
    {
      "anonymous": false,
      "inputs": [
        {
          "indexed": false,
          "internalType": "address",
          "name": "nonExistingAccount",
          "type": "address"
        }
      ],
      "name": "MemberNotRemoved",
      "type": "event"
    },
    {
      "anonymous": false,
      "inputs": [
        {
          "indexed": false,
          "internalType": "address",
          "name": "account",
          "type": "address"
        }
      ],
      "name": "MemberRemoved",
      "type": "event"
    },
    {
      "anonymous": false,
      "inputs": [
        {
          "indexed": true,
          "internalType": "address",
          "name": "previousOwner",
          "type": "address"
        },
        {
          "indexed": true,
          "internalType": "address",
          "name": "newOwner",
          "type": "address"
        }
      ],
      "name": "OwnershipTransferred",
      "type": "event"
    },
    {
      "anonymous": false,
      "inputs": [
        {
          "indexed": false,
          "internalType": "bytes32",
          "name": "actionHash",
          "type": "bytes32"
        }
      ],
      "name": "SignatureAdded",
      "type": "event"
    },
    {
      "anonymous": false,
      "inputs": [
        {
          "indexed": false,
          "internalType": "bytes32",
          "name": "actionHash",
          "type": "bytes32"
        }
      ],
      "name": "StaleActionApprovalDeleted",
      "type": "event"
    },
    {
      "anonymous": false,
      "inputs": [
        {
          "indexed": false,
          "internalType": "address",
          "name": "member",
          "type": "address"
        }
      ],
      "name": "StaleApprovalCleaned",
      "type": "event"
    },
    {
      "inputs": [
        {
          "internalType": "bytes32",
          "name": "",
          "type": "bytes32"
        }
      ],
      "name": "actionParams",
      "outputs": [
        {
          "internalType": "bytes",
          "name": "",
          "type": "bytes"
        }
      ],
      "stateMutability": "view",
      "type": "function"
    },
    {
      "inputs": [
        {
          "internalType": "address",
          "name": "account",
          "type": "address"
        }
      ],
      "name": "addMember",
      "outputs": [],
      "stateMutability": "nonpayable",
      "type": "function"
    },
    {
      "inputs": [
        {
          "internalType": "address",
          "name": "account",
          "type": "address"
        }
      ],
      "name": "delStaleMemberApproval",
      "outputs": [
        {
          "internalType": "bool",
          "name": "",
          "type": "bool"
        }
      ],
      "stateMutability": "nonpayable",
      "type": "function"
    },
    {
      "inputs": [
        {
          "internalType": "address",
          "name": "member",
          "type": "address"
        }
      ],
      "name": "getAddApprovals",
      "outputs": [
        {
          "internalType": "address[]",
          "name": "",
          "type": "address[]"
        }
      ],
      "stateMutability": "view",
      "type": "function"
    },
    {
      "inputs": [
        {
          "internalType": "address",
          "name": "member",
          "type": "address"
        }
      ],
      "name": "getCleanupApprovals",
      "outputs": [
        {
          "internalType": "address[]",
          "name": "",
          "type": "address[]"
        }
      ],
      "stateMutability": "view",
      "type": "function"
    },
    {
      "inputs": [
        {
          "internalType": "address",
          "name": "member",
          "type": "address"
        }
      ],
      "name": "getDelApprovals",
      "outputs": [
        {
          "internalType": "address[]",
          "name": "",
          "type": "address[]"
        }
      ],
      "stateMutability": "view",
      "type": "function"
    },
    {
      "inputs": [],
      "name": "getMembers",
      "outputs": [
        {
          "internalType": "address[]",
          "name": "",
          "type": "address[]"
        }
      ],
      "stateMutability": "view",
      "type": "function"
    },
    {
      "inputs": [
        {
          "internalType": "address",
          "name": "account",
          "type": "address"
        }
      ],
      "name": "isMember",
      "outputs": [
        {
          "internalType": "bool",
          "name": "",
          "type": "bool"
        }
      ],
      "stateMutability": "view",
      "type": "function"
    },
    {
      "inputs": [],
      "name": "owner",
      "outputs": [
        {
          "internalType": "address",
          "name": "",
          "type": "address"
        }
      ],
      "stateMutability": "view",
      "type": "function"
    },
    {
      "inputs": [
        {
          "internalType": "address",
          "name": "account",
          "type": "address"
        }
      ],
      "name": "removeMember",
      "outputs": [],
      "stateMutability": "nonpayable",
      "type": "function"
    },
    {
      "inputs": [],
      "name": "renounceOwnership",
      "outputs": [],
      "stateMutability": "nonpayable",
      "type": "function"
    },
    {
      "inputs": [],
      "name": "roleName",
      "outputs": [
        {
          "internalType": "string",
          "name": "",
          "type": "string"
        }
      ],
      "stateMutability": "view",
      "type": "function"
    },
    {
      "inputs": [
        {
          "internalType": "address",
          "name": "newOwner",
          "type": "address"
        }
      ],
      "name": "transferOwnership",
      "outputs": [],
      "stateMutability": "nonpayable",
      "type": "function"
    },
    {
      "inputs": [
        {
          "internalType": "bytes",
          "name": "_actionParams",
          "type": "bytes"
        },
        {
          "internalType": "address",
          "name": "sender",
          "type": "address"
        }
      ],
      "name": "approveAction",
      "outputs": [
        {
          "internalType": "bool",
          "name": "",
          "type": "bool"
        }
      ],
      "stateMutability": "nonpayable",
      "type": "function"
    },
    {
      "inputs": [
        {
          "internalType": "bytes32",
          "name": "actionHash",
          "type": "bytes32"
        }
      ],
      "name": "getActionApprovals",
      "outputs": [
        {
          "internalType": "address[]",
          "name": "",
          "type": "address[]"
        }
      ],
      "stateMutability": "view",
      "type": "function"
    },
    {
      "inputs": [],
      "name": "getActionsInProgress",
      "outputs": [
        {
          "internalType": "bytes32[]",
          "name": "",
          "type": "bytes32[]"
        }
      ],
      "stateMutability": "view",
      "type": "function"
    },
    {
      "inputs": [
        {
          "internalType": "bytes32",
          "name": "actionHash",
          "type": "bytes32"
        }
      ],
      "name": "getCleanupActionApprovals",
      "outputs": [
        {
          "internalType": "address[]",
          "name": "",
          "type": "address[]"
        }
      ],
      "stateMutability": "view",
      "type": "function"
    },
    {
      "inputs": [
        {
          "internalType": "bytes32",
          "name": "action_hash",
          "type": "bytes32"
        }
      ],
      "name": "delStaleActionApproval",
      "outputs": [
        {
          "internalType": "bool",
          "name": "",
          "type": "bool"
        }
      ],
      "stateMutability": "nonpayable",
      "type": "function"
    }
  ],
  "bytecode": "0x60806040523480156200001157600080fd5b5060405162003388380380620033888339818101604052810190620000379190620005d5565b8181620000596200004d6200016160201b60201c565b6200016960201b60201c565b80600390816200006a9190620008a5565b5060005b825181101562000156578281815181106200008e576200008d6200098c565b5b602002602001015173ffffffffffffffffffffffffffffffffffffffff16600073ffffffffffffffffffffffffffffffffffffffff160362000107576040517f08c379a0000000000000000000000000000000000000000000000000000000008152600401620000fe9062000a1c565b60405180910390fd5b6200013f8382815181106200012157620001206200098c565b5b602002602001015160016200022d60201b620016ed1790919060201c565b5080806200014d9062000a6d565b9150506200006e565b505050505062000aba565b600033905090565b60008060009054906101000a900473ffffffffffffffffffffffffffffffffffffffff169050816000806101000a81548173ffffffffffffffffffffffffffffffffffffffff021916908373ffffffffffffffffffffffffffffffffffffffff1602179055508173ffffffffffffffffffffffffffffffffffffffff168173ffffffffffffffffffffffffffffffffffffffff167f8be0079c531659141344cd1fd0a4f28419497f9722a3daafe3b4186f6b6457e060405160405180910390a35050565b60006200025d836000018373ffffffffffffffffffffffffffffffffffffffff1660001b6200026560201b60201c565b905092915050565b6000620002798383620002df60201b60201c565b620002d4578260000182908060018154018082558091505060019003906000526020600020016000909190919091505582600001805490508360010160008481526020019081526020016000208190555060019050620002d9565b600090505b92915050565b600080836001016000848152602001908152602001600020541415905092915050565b6000604051905090565b600080fd5b600080fd5b600080fd5b6000601f19601f8301169050919050565b7f4e487b7100000000000000000000000000000000000000000000000000000000600052604160045260246000fd5b62000366826200031b565b810181811067ffffffffffffffff821117156200038857620003876200032c565b5b80604052505050565b60006200039d62000302565b9050620003ab82826200035b565b919050565b600067ffffffffffffffff821115620003ce57620003cd6200032c565b5b602082029050602081019050919050565b600080fd5b600073ffffffffffffffffffffffffffffffffffffffff82169050919050565b60006200041182620003e4565b9050919050565b620004238162000404565b81146200042f57600080fd5b50565b600081519050620004438162000418565b92915050565b6000620004606200045a84620003b0565b62000391565b90508083825260208201905060208402830185811115620004865762000485620003df565b5b835b81811015620004b357806200049e888262000432565b84526020840193505060208101905062000488565b5050509392505050565b600082601f830112620004d557620004d462000316565b5b8151620004e784826020860162000449565b91505092915050565b600080fd5b600067ffffffffffffffff8211156200051357620005126200032c565b5b6200051e826200031b565b9050602081019050919050565b60005b838110156200054b5780820151818401526020810190506200052e565b60008484015250505050565b60006200056e6200056884620004f5565b62000391565b9050828152602081018484840111156200058d576200058c620004f0565b5b6200059a8482856200052b565b509392505050565b600082601f830112620005ba57620005b962000316565b5b8151620005cc84826020860162000557565b91505092915050565b60008060408385031215620005ef57620005ee6200030c565b5b600083015167ffffffffffffffff81111562000610576200060f62000311565b5b6200061e85828601620004bd565b925050602083015167ffffffffffffffff81111562000642576200064162000311565b5b6200065085828601620005a2565b9150509250929050565b600081519050919050565b7f4e487b7100000000000000000000000000000000000000000000000000000000600052602260045260246000fd5b60006002820490506001821680620006ad57607f821691505b602082108103620006c357620006c262000665565b5b50919050565b60008190508160005260206000209050919050565b60006020601f8301049050919050565b600082821b905092915050565b6000600883026200072d7fffffffffffffffffffffffffffffffffffffffffffffffffffffffffffffffff82620006ee565b620007398683620006ee565b95508019841693508086168417925050509392505050565b6000819050919050565b6000819050919050565b600062000786620007806200077a8462000751565b6200075b565b62000751565b9050919050565b6000819050919050565b620007a28362000765565b620007ba620007b1826200078d565b848454620006fb565b825550505050565b600090565b620007d1620007c2565b620007de81848462000797565b505050565b5b818110156200080657620007fa600082620007c7565b600181019050620007e4565b5050565b601f82111562000855576200081f81620006c9565b6200082a84620006de565b810160208510156200083a578190505b620008526200084985620006de565b830182620007e3565b50505b505050565b600082821c905092915050565b60006200087a600019846008026200085a565b1980831691505092915050565b600062000895838362000867565b9150826002028217905092915050565b620008b0826200065a565b67ffffffffffffffff811115620008cc57620008cb6200032c565b5b620008d8825462000694565b620008e58282856200080a565b600060209050601f8311600181146200091d576000841562000908578287015190505b62000914858262000887565b86555062000984565b601f1984166200092d86620006c9565b60005b82811015620009575784890151825560018201915060208501945060208101905062000930565b8683101562000977578489015162000973601f89168262000867565b8355505b6001600288020188555050505b505050505050565b7f4e487b7100000000000000000000000000000000000000000000000000000000600052603260045260246000fd5b600082825260208201905092915050565b7f5a65726f2061646472657373207061737365642e000000000000000000000000600082015250565b600062000a04601483620009bb565b915062000a1182620009cc565b602082019050919050565b6000602082019050818103600083015262000a3781620009f5565b9050919050565b7f4e487b7100000000000000000000000000000000000000000000000000000000600052601160045260246000fd5b600062000a7a8262000751565b91507fffffffffffffffffffffffffffffffffffffffffffffffffffffffffffffffff820362000aaf5762000aae62000a3e565b5b600182019050919050565b6128be8062000aca6000396000f3fe608060405234801561001057600080fd5b50600436106101165760003560e01c80637e3ff48d116100a2578063a230c52411610071578063a230c52414610309578063ca6d56dc14610339578063d218e60c14610355578063f2fde38b14610385578063f32d30a7146103a157610116565b80637e3ff48d1461027f57806381b89421146102af5780638da5cb5b146102cd5780639eab5253146102eb57610116565b80635569e65f116100e95780635569e65f146101c7578063609f3993146101f7578063659667d714610215578063715018a614610245578063729018a51461024f57610116565b806309905afe1461011b5780630b1ca49a1461014b57806320e7a940146101675780632c80177e14610197575b600080fd5b61013560048036038101906101309190611cf3565b6103d1565b6040516101429190611d3b565b60405180910390f35b61016560048036038101906101609190611db4565b6104db565b005b610181600480360381019061017c9190611db4565b6106a1565b60405161018e9190611e9f565b60405180910390f35b6101b160048036038101906101ac9190611cf3565b610842565b6040516101be9190611f51565b60405180910390f35b6101e160048036038101906101dc9190611cf3565b6108e2565b6040516101ee9190611e9f565b60405180910390f35b6101ff6109ff565b60405161020c9190611fc8565b60405180910390f35b61022f600480360381019061022a9190611cf3565b610a8d565b60405161023c9190611e9f565b60405180910390f35b61024d610baa565b005b61026960048036038101906102649190611db4565b610bbe565b6040516102769190611e9f565b60405180910390f35b6102996004803603810190610294919061204f565b610d5f565b6040516102a69190611d3b565b60405180910390f35b6102b7610f08565b6040516102c4919061216d565b60405180910390f35b6102d5610fc2565b6040516102e2919061219e565b60405180910390f35b6102f3610feb565b6040516103009190611e9f565b60405180910390f35b610323600480360381019061031e9190611db4565b6110d3565b6040516103309190611d3b565b60405180910390f35b610353600480360381019061034e9190611db4565b6110f0565b005b61036f600480360381019061036a9190611db4565b6112b6565b60405161037c9190611e9f565b60405180910390f35b61039f600480360381019061039a9190611db4565b611457565b005b6103bb60048036038101906103b69190611db4565b6114da565b6040516103c89190611d3b565b60405180910390f35b60006103dc336110d3565b61041b576040517f08c379a00000000000000000000000000000000000000000000000000000000081526004016104129061222b565b60405180910390fd5b61044033600b60008581526020019081526020016000206116ed90919063ffffffff16565b5061046861045f600b600085815260200190815260200160002061171d565b61ffff16611732565b156104d157610476826117c3565b610491600b6000848152602001908152602001600020611815565b7fe9ce83cfa6d68ebf6fd914cf4c019bfe4b01414791d0705ebbb67445e6cfabf0826040516104c0919061225a565b60405180910390a1600190506104d6565b600090505b919050565b6104e4336110d3565b610523576040517f08c379a000000000000000000000000000000000000000000000000000000000815260040161051a9061222b565b60405180910390fd5b61057433600560008473ffffffffffffffffffffffffffffffffffffffff1673ffffffffffffffffffffffffffffffffffffffff1681526020019081526020016000206116ed90919063ffffffff16565b506105c46105bf600560008473ffffffffffffffffffffffffffffffffffffffff1673ffffffffffffffffffffffffffffffffffffffff16815260200190815260200160002061171d565b611732565b1561069e576105dd81600161185590919063ffffffff16565b1561061e577f6e76fb4c77256006d9c38ec7d82b45a8c8f3c27b1d6766fffc42dfb8de68449281604051610611919061219e565b60405180910390a1610656565b7fa64ad4db878396be678e69ce4a12a7e9d176a72de6fe6654328fbcd4c594e3e18160405161064d919061219e565b60405180910390a15b61069d600560008373ffffffffffffffffffffffffffffffffffffffff1673ffffffffffffffffffffffffffffffffffffffff168152602001908152602001600020611815565b5b50565b606060006106ec600560008573ffffffffffffffffffffffffffffffffffffffff1673ffffffffffffffffffffffffffffffffffffffff16815260200190815260200160002061171d565b67ffffffffffffffff81111561070557610704612275565b5b6040519080825280602002602001820160405280156107335781602001602082028036833780820191505090505b50905060005b610780600560008673ffffffffffffffffffffffffffffffffffffffff1673ffffffffffffffffffffffffffffffffffffffff16815260200190815260200160002061171d565b811015610838576107d881600560008773ffffffffffffffffffffffffffffffffffffffff1673ffffffffffffffffffffffffffffffffffffffff16815260200190815260200160002061188590919063ffffffff16565b8282815181106107eb576107ea6122a4565b5b602002602001019073ffffffffffffffffffffffffffffffffffffffff16908173ffffffffffffffffffffffffffffffffffffffff168152505080806108309061230c565b915050610739565b5080915050919050565b600a602052806000526040600020600091509050805461086190612383565b80601f016020809104026020016040519081016040528092919081815260200182805461088d90612383565b80156108da5780601f106108af576101008083540402835291602001916108da565b820191906000526020600020905b8154815290600101906020018083116108bd57829003601f168201915b505050505081565b60606000610901600b600085815260200190815260200160002061171d565b67ffffffffffffffff81111561091a57610919612275565b5b6040519080825280602002602001820160405280156109485781602001602082028036833780820191505090505b50905060005b610969600b600086815260200190815260200160002061171d565b8110156109f55761099581600b600087815260200190815260200160002061188590919063ffffffff16565b8282815181106109a8576109a76122a4565b5b602002602001019073ffffffffffffffffffffffffffffffffffffffff16908173ffffffffffffffffffffffffffffffffffffffff168152505080806109ed9061230c565b91505061094e565b5080915050919050565b60038054610a0c90612383565b80601f0160208091040260200160405190810160405280929190818152602001828054610a3890612383565b8015610a855780601f10610a5a57610100808354040283529160200191610a85565b820191906000526020600020905b815481529060010190602001808311610a6857829003601f168201915b505050505081565b60606000610aac6007600085815260200190815260200160002061171d565b67ffffffffffffffff811115610ac557610ac4612275565b5b604051908082528060200260200182016040528015610af35781602001602082028036833780820191505090505b50905060005b610b146007600086815260200190815260200160002061171d565b811015610ba057610b40816007600087815260200190815260200160002061188590919063ffffffff16565b828281518110610b5357610b526122a4565b5b602002602001019073ffffffffffffffffffffffffffffffffffffffff16908173ffffffffffffffffffffffffffffffffffffffff16815250508080610b989061230c565b915050610af9565b5080915050919050565b610bb261189f565b610bbc600061191d565b565b60606000610c09600660008573ffffffffffffffffffffffffffffffffffffffff1673ffffffffffffffffffffffffffffffffffffffff16815260200190815260200160002061171d565b67ffffffffffffffff811115610c2257610c21612275565b5b604051908082528060200260200182016040528015610c505781602001602082028036833780820191505090505b50905060005b610c9d600660008673ffffffffffffffffffffffffffffffffffffffff1673ffffffffffffffffffffffffffffffffffffffff16815260200190815260200160002061171d565b811015610d5557610cf581600660008773ffffffffffffffffffffffffffffffffffffffff1673ffffffffffffffffffffffffffffffffffffffff16815260200190815260200160002061188590919063ffffffff16565b828281518110610d0857610d076122a4565b5b602002602001019073ffffffffffffffffffffffffffffffffffffffff16908173ffffffffffffffffffffffffffffffffffffffff16815250508080610d4d9061230c565b915050610c56565b5080915050919050565b6000610d6961189f565b610d72826110d3565b610db1576040517f08c379a0000000000000000000000000000000000000000000000000000000008152600401610da89061222b565b60405180910390fd5b60008484604051610dc39291906123f3565b60405180910390209050610de86007600083815260200190815260200160002061171d565b600003610e2857610e038160086119e190919063ffffffff16565b508484600a60008481526020019081526020016000209182610e269291906125c3565b505b610e4d83600760008481526020019081526020016000206116ed90919063ffffffff16565b507f795bfb891c75f9bcffdcac584f35e744ba9b15466c398433de8f6785a6b6e45181604051610e7d919061225a565b60405180910390a1610eac610ea36007600084815260200190815260200160002061171d565b61ffff16611732565b15610efb57610eba816117c3565b7f2f0d996ad85185c5122ef0a1d66e1fe4200b53669c11a14a881853ee57e2e78781604051610ee9919061225a565b60405180910390a16001915050610f01565b60009150505b9392505050565b60606000610f1660086119f8565b67ffffffffffffffff811115610f2f57610f2e612275565b5b604051908082528060200260200182016040528015610f5d5781602001602082028036833780820191505090505b50905060005b610f6d60086119f8565b811015610fba57610f88816008611a0d90919063ffffffff16565b828281518110610f9b57610f9a6122a4565b5b6020026020010181815250508080610fb29061230c565b915050610f63565b508091505090565b60008060009054906101000a900473ffffffffffffffffffffffffffffffffffffffff16905090565b60606000610ff9600161171d565b67ffffffffffffffff81111561101257611011612275565b5b6040519080825280602002602001820160405280156110405781602001602082028036833780820191505090505b50905060005b611050600161171d565b8110156110cb5761106b81600161188590919063ffffffff16565b82828151811061107e5761107d6122a4565b5b602002602001019073ffffffffffffffffffffffffffffffffffffffff16908173ffffffffffffffffffffffffffffffffffffffff168152505080806110c39061230c565b915050611046565b508091505090565b60006110e9826001611a2490919063ffffffff16565b9050919050565b6110f9336110d3565b611138576040517f08c379a000000000000000000000000000000000000000000000000000000000815260040161112f9061222b565b60405180910390fd5b61118933600460008473ffffffffffffffffffffffffffffffffffffffff1673ffffffffffffffffffffffffffffffffffffffff1681526020019081526020016000206116ed90919063ffffffff16565b506111d96111d4600460008473ffffffffffffffffffffffffffffffffffffffff1673ffffffffffffffffffffffffffffffffffffffff16815260200190815260200160002061171d565b611732565b156112b3576111f28160016116ed90919063ffffffff16565b15611233577fb251eb052afc73ffd02ffe85ad79990a8b3fed60d76dbc2fa2fdd7123dffd91481604051611226919061219e565b60405180910390a161126b565b7f7d4732c82306ef43f491dc73eb3bf3771d63c00f52f1da3df1408a5a46186deb81604051611262919061219e565b60405180910390a15b6112b2600460008373ffffffffffffffffffffffffffffffffffffffff1673ffffffffffffffffffffffffffffffffffffffff168152602001908152602001600020611815565b5b50565b60606000611301600460008573ffffffffffffffffffffffffffffffffffffffff1673ffffffffffffffffffffffffffffffffffffffff16815260200190815260200160002061171d565b67ffffffffffffffff81111561131a57611319612275565b5b6040519080825280602002602001820160405280156113485781602001602082028036833780820191505090505b50905060005b611395600460008673ffffffffffffffffffffffffffffffffffffffff1673ffffffffffffffffffffffffffffffffffffffff16815260200190815260200160002061171d565b81101561144d576113ed81600460008773ffffffffffffffffffffffffffffffffffffffff1673ffffffffffffffffffffffffffffffffffffffff16815260200190815260200160002061188590919063ffffffff16565b828281518110611400576113ff6122a4565b5b602002602001019073ffffffffffffffffffffffffffffffffffffffff16908173ffffffffffffffffffffffffffffffffffffffff168152505080806114459061230c565b91505061134e565b5080915050919050565b61145f61189f565b600073ffffffffffffffffffffffffffffffffffffffff168173ffffffffffffffffffffffffffffffffffffffff16036114ce576040517f08c379a00000000000000000000000000000000000000000000000000000000081526004016114c590612705565b60405180910390fd5b6114d78161191d565b50565b60006114e5336110d3565b611524576040517f08c379a000000000000000000000000000000000000000000000000000000000815260040161151b9061222b565b60405180910390fd5b61157533600660008573ffffffffffffffffffffffffffffffffffffffff1673ffffffffffffffffffffffffffffffffffffffff1681526020019081526020016000206116ed90919063ffffffff16565b506115c96115c0600660008573ffffffffffffffffffffffffffffffffffffffff1673ffffffffffffffffffffffffffffffffffffffff16815260200190815260200160002061171d565b61ffff16611732565b156116e357611615600560008473ffffffffffffffffffffffffffffffffffffffff1673ffffffffffffffffffffffffffffffffffffffff168152602001908152602001600020611815565b61165c600460008473ffffffffffffffffffffffffffffffffffffffff1673ffffffffffffffffffffffffffffffffffffffff168152602001908152602001600020611815565b6116a3600660008473ffffffffffffffffffffffffffffffffffffffff1673ffffffffffffffffffffffffffffffffffffffff168152602001908152602001600020611815565b7fef161b07968a19b6c6185c1da97cd9a7832348adee88af313aaa93c4363ec583826040516116d2919061219e565b60405180910390a1600190506116e8565b600090505b919050565b6000611715836000018373ffffffffffffffffffffffffffffffffffffffff1660001b611a54565b905092915050565b600061172b82600001611ac4565b9050919050565b60008061173f600161171d565b9050600181148015611752575060018310155b156117615760019150506117be565b600281148015611772575060028310155b156117815760019150506117be565b6002811180156117a95750600160028261179b9190612754565b6117a59190612785565b8310155b156117b85760019150506117be565b60009150505b919050565b6117de60076000838152602001908152602001600020611815565b600a600082815260200190815260200160002060006117fd9190611c56565b611811816008611ad590919063ffffffff16565b5050565b5b61181f8161171d565b6000146118525761184c61183d60008361188590919063ffffffff16565b8261185590919063ffffffff16565b50611816565b50565b600061187d836000018373ffffffffffffffffffffffffffffffffffffffff1660001b611aec565b905092915050565b60006118948360000183611c00565b60001c905092915050565b6118a7611c2b565b73ffffffffffffffffffffffffffffffffffffffff166118c5610fc2565b73ffffffffffffffffffffffffffffffffffffffff161461191b576040517f08c379a000000000000000000000000000000000000000000000000000000000815260040161191290612805565b60405180910390fd5b565b60008060009054906101000a900473ffffffffffffffffffffffffffffffffffffffff169050816000806101000a81548173ffffffffffffffffffffffffffffffffffffffff021916908373ffffffffffffffffffffffffffffffffffffffff1602179055508173ffffffffffffffffffffffffffffffffffffffff168173ffffffffffffffffffffffffffffffffffffffff167f8be0079c531659141344cd1fd0a4f28419497f9722a3daafe3b4186f6b6457e060405160405180910390a35050565b60006119f08360000183611a54565b905092915050565b6000611a0682600001611ac4565b9050919050565b6000611a1c8360000183611c00565b905092915050565b6000611a4c836000018373ffffffffffffffffffffffffffffffffffffffff1660001b611c33565b905092915050565b6000611a608383611c33565b611ab9578260000182908060018154018082558091505060019003906000526020600020016000909190919091505582600001805490508360010160008481526020019081526020016000208190555060019050611abe565b600090505b92915050565b600081600001805490509050919050565b6000611ae48360000183611aec565b905092915050565b60008083600101600084815260200190815260200160002054905060008114611bf4576000600182611b1e9190612825565b9050600060018660000180549050611b369190612825565b9050818114611ba5576000866000018281548110611b5757611b566122a4565b5b9060005260206000200154905080876000018481548110611b7b57611b7a6122a4565b5b90600052602060002001819055508387600101600083815260200190815260200160002081905550505b85600001805480611bb957611bb8612859565b5b600190038181906000526020600020016000905590558560010160008681526020019081526020016000206000905560019350505050611bfa565b60009150505b92915050565b6000826000018281548110611c1857611c176122a4565b5b9060005260206000200154905092915050565b600033905090565b600080836001016000848152602001908152602001600020541415905092915050565b508054611c6290612383565b6000825580601f10611c745750611c93565b601f016020900490600052602060002090810190611c929190611c96565b5b50565b5b80821115611caf576000816000905550600101611c97565b5090565b600080fd5b600080fd5b6000819050919050565b611cd081611cbd565b8114611cdb57600080fd5b50565b600081359050611ced81611cc7565b92915050565b600060208284031215611d0957611d08611cb3565b5b6000611d1784828501611cde565b91505092915050565b60008115159050919050565b611d3581611d20565b82525050565b6000602082019050611d506000830184611d2c565b92915050565b600073ffffffffffffffffffffffffffffffffffffffff82169050919050565b6000611d8182611d56565b9050919050565b611d9181611d76565b8114611d9c57600080fd5b50565b600081359050611dae81611d88565b92915050565b600060208284031215611dca57611dc9611cb3565b5b6000611dd884828501611d9f565b91505092915050565b600081519050919050565b600082825260208201905092915050565b6000819050602082019050919050565b611e1681611d76565b82525050565b6000611e288383611e0d565b60208301905092915050565b6000602082019050919050565b6000611e4c82611de1565b611e568185611dec565b9350611e6183611dfd565b8060005b83811015611e92578151611e798882611e1c565b9750611e8483611e34565b925050600181019050611e65565b5085935050505092915050565b60006020820190508181036000830152611eb98184611e41565b905092915050565b600081519050919050565b600082825260208201905092915050565b60005b83811015611efb578082015181840152602081019050611ee0565b60008484015250505050565b6000601f19601f8301169050919050565b6000611f2382611ec1565b611f2d8185611ecc565b9350611f3d818560208601611edd565b611f4681611f07565b840191505092915050565b60006020820190508181036000830152611f6b8184611f18565b905092915050565b600081519050919050565b600082825260208201905092915050565b6000611f9a82611f73565b611fa48185611f7e565b9350611fb4818560208601611edd565b611fbd81611f07565b840191505092915050565b60006020820190508181036000830152611fe28184611f8f565b905092915050565b600080fd5b600080fd5b600080fd5b60008083601f84011261200f5761200e611fea565b5b8235905067ffffffffffffffff81111561202c5761202b611fef565b5b60208301915083600182028301111561204857612047611ff4565b5b9250929050565b60008060006040848603121561206857612067611cb3565b5b600084013567ffffffffffffffff81111561208657612085611cb8565b5b61209286828701611ff9565b935093505060206120a586828701611d9f565b9150509250925092565b600081519050919050565b600082825260208201905092915050565b6000819050602082019050919050565b6120e481611cbd565b82525050565b60006120f683836120db565b60208301905092915050565b6000602082019050919050565b600061211a826120af565b61212481856120ba565b935061212f836120cb565b8060005b8381101561216057815161214788826120ea565b975061215283612102565b925050600181019050612133565b5085935050505092915050565b60006020820190508181036000830152612187818461210f565b905092915050565b61219881611d76565b82525050565b60006020820190506121b3600083018461218f565b92915050565b7f43616e2062652063616c6c6564206f6e6c792062792061206d656d626572206f60008201527f662074686520726f6c652e000000000000000000000000000000000000000000602082015250565b6000612215602b83611f7e565b9150612220826121b9565b604082019050919050565b6000602082019050818103600083015261224481612208565b9050919050565b61225481611cbd565b82525050565b600060208201905061226f600083018461224b565b92915050565b7f4e487b7100000000000000000000000000000000000000000000000000000000600052604160045260246000fd5b7f4e487b7100000000000000000000000000000000000000000000000000000000600052603260045260246000fd5b7f4e487b7100000000000000000000000000000000000000000000000000000000600052601160045260246000fd5b6000819050919050565b600061231782612302565b91507fffffffffffffffffffffffffffffffffffffffffffffffffffffffffffffffff8203612349576123486122d3565b5b600182019050919050565b7f4e487b7100000000000000000000000000000000000000000000000000000000600052602260045260246000fd5b6000600282049050600182168061239b57607f821691505b6020821081036123ae576123ad612354565b5b50919050565b600081905092915050565b82818337600083830152505050565b60006123da83856123b4565b93506123e78385846123bf565b82840190509392505050565b60006124008284866123ce565b91508190509392505050565b600082905092915050565b60008190508160005260206000209050919050565b60006020601f8301049050919050565b600082821b905092915050565b6000600883026124797fffffffffffffffffffffffffffffffffffffffffffffffffffffffffffffffff8261243c565b612483868361243c565b95508019841693508086168417925050509392505050565b6000819050919050565b60006124c06124bb6124b684612302565b61249b565b612302565b9050919050565b6000819050919050565b6124da836124a5565b6124ee6124e6826124c7565b848454612449565b825550505050565b600090565b6125036124f6565b61250e8184846124d1565b505050565b5b81811015612532576125276000826124fb565b600181019050612514565b5050565b601f8211156125775761254881612417565b6125518461242c565b81016020851015612560578190505b61257461256c8561242c565b830182612513565b50505b505050565b600082821c905092915050565b600061259a6000198460080261257c565b1980831691505092915050565b60006125b38383612589565b9150826002028217905092915050565b6125cd838361240c565b67ffffffffffffffff8111156125e6576125e5612275565b5b6125f08254612383565b6125fb828285612536565b6000601f83116001811461262a5760008415612618578287013590505b61262285826125a7565b86555061268a565b601f19841661263886612417565b60005b828110156126605784890135825560018201915060208501945060208101905061263b565b8683101561267d5784890135612679601f891682612589565b8355505b6001600288020188555050505b50505050505050565b7f4f776e61626c653a206e6577206f776e657220697320746865207a65726f206160008201527f6464726573730000000000000000000000000000000000000000000000000000602082015250565b60006126ef602683611f7e565b91506126fa82612693565b604082019050919050565b6000602082019050818103600083015261271e816126e2565b9050919050565b7f4e487b7100000000000000000000000000000000000000000000000000000000600052601260045260246000fd5b600061275f82612302565b915061276a83612302565b92508261277a57612779612725565b5b828204905092915050565b600061279082612302565b915061279b83612302565b92508282019050808211156127b3576127b26122d3565b5b92915050565b7f4f776e61626c653a2063616c6c6572206973206e6f7420746865206f776e6572600082015250565b60006127ef602083611f7e565b91506127fa826127b9565b602082019050919050565b6000602082019050818103600083015261281e816127e2565b9050919050565b600061283082612302565b915061283b83612302565b9250828203905081811115612853576128526122d3565b5b92915050565b7f4e487b7100000000000000000000000000000000000000000000000000000000600052603160045260246000fdfea264697066735822122018242e81d08a4e76e34c2a0f8ea8030cc0e42eaae7a83c44cca3017a769bfd4b64736f6c63430008110033",
  "immutableReferences": {},
  "source": "// SPDX-License-Identifier: MIT\r\npragma solidity ^0.8.0;\r\n\r\nimport \"@openzeppelin/contracts/utils/structs/EnumerableSet.sol\";\r\nimport \"./MultisigMembers.sol\";\r\n\r\n\r\n/**\r\n * The role object encapsulating multiple users, enabling to vote on arbitrary actions (represented by their hash).\r\n *\r\n * The main method of this contract (approveAction) cannot be called directly by members but\r\n * requires a call through the owner contract (relying one).\r\n *\r\n * Clean-up method for stale approvals can be called directly by members.\r\n */\r\ncontract MultisigActionMembers is MultisigMembers {\r\n    using EnumerableSet for EnumerableSet.AddressSet;\r\n    using EnumerableSet for EnumerableSet.Bytes32Set;\r\n\r\n\r\n    // Encapsulation of actions and their approval state\r\n    mapping(bytes32 => EnumerableSet.AddressSet) actionApprovals; // maps hashes (of actions with parameters) to signature sets made by members\r\n    EnumerableSet.Bytes32Set actionHashes; // hashes of actions being approved (required for easier iteration by DAPPs)\r\n    mapping(bytes32 => bytes) public actionParams; // maps hashes to parameters of actions encoded as bytes[] (hashes can be taken from the previous)\r\n\r\n    // Serves for clean-up of stale unapproved actions.\r\n    mapping(bytes32 => EnumerableSet.AddressSet) cleanupActionApprovals;\r\n\r\n    event ActionApproved(bytes32 actionHash);\r\n    event SignatureAdded(bytes32 actionHash);\r\n    event StaleActionApprovalDeleted(bytes32 actionHash);\r\n\r\n    ////////////////////\r\n\r\n    constructor (address[] memory _members, string memory _roleName)\r\n        MultisigMembers(_members, _roleName)\r\n    {}\r\n\r\n    /**\r\n     * Method for approving actions by members.\r\n     *\r\n     * Note: we check the ownership by a contract utilizing this functionality by msg.sender\r\n     * since we want to avoid using tx.origin for the multisig signer (sender) due to security concerns (such as delegated calls).\r\n     */\r\n    function approveAction(bytes calldata _actionParams, address sender) external\r\n        onlyOwner() // must be called through Relying contract\r\n        returns (bool)\r\n    {\r\n        require(isMember(sender), \"Can be called only by a member of the role.\");\r\n\r\n        bytes32 action_hash = keccak256(_actionParams);\r\n        if(0 == actionApprovals[action_hash].length()) { // the 1st approval request creates aux objects representing the action (parsable by DAPPs)\r\n            actionHashes.add(action_hash);\r\n            actionParams[action_hash] = _actionParams;\r\n        }\r\n\r\n        // add the signer and execute action if we have enough signatures\r\n        actionApprovals[action_hash].add(sender);\r\n        emit SignatureAdded(action_hash);\r\n        \r\n        if (_thresholdOfSignersMet(uint16(actionApprovals[action_hash].length()))){\r\n            _deleteAction(action_hash);\r\n            emit ActionApproved(action_hash);\r\n            return true;\r\n        }\r\n        return false;\r\n    }\r\n\r\n\r\n    ////////////////////////////\r\n    ///// Public Getters   /////\r\n    ////////////////////////////    \r\n\r\n    function getActionApprovals(bytes32 actionHash) external view returns (address [] memory) {\r\n        address[] memory approvals = new address[](actionApprovals[actionHash].length());\r\n        for (uint256 i = 0; i < actionApprovals[actionHash].length(); i++) {\r\n            approvals[i] = actionApprovals[actionHash].at(i);\r\n        }\r\n        return approvals;\r\n    }\r\n\r\n    function getActionsInProgress() external view returns (bytes32 [] memory) {\r\n        bytes32[] memory allHashes = new bytes32[](actionHashes.length());\r\n        for (uint256 i = 0; i < actionHashes.length(); i++) {\r\n            allHashes[i] = actionHashes.at(i);\r\n        }\r\n        return allHashes;\r\n    }\r\n\r\n    function getCleanupActionApprovals(bytes32 actionHash) external view returns (address [] memory) {\r\n        address[] memory approvals = new address[](cleanupActionApprovals[actionHash].length());\r\n        for (uint256 i = 0; i < cleanupActionApprovals[actionHash].length(); i++) {\r\n            approvals[i] = cleanupActionApprovals[actionHash].at(i);\r\n        }\r\n        return approvals;\r\n    }\r\n\r\n    ////////////////////////////\r\n    ///// Clean Up Methods /////\r\n    ////////////////////////////\r\n\r\n    /**\r\n     * Clearing method for actionApprovals.\r\n     * It might be useful to drop unapproved stale actions since the number of members might decrease\r\n     * and such actions might become eligible for execution later (should be handled by DAPP + timeouts).\r\n     *\r\n     * Should be called directly by a member of the role.\r\n     */\r\n    function delStaleActionApproval(bytes32 action_hash) public returns (bool){\r\n        require(isMember(msg.sender), \"Can be called only by a member of the role.\");\r\n\r\n        cleanupActionApprovals[action_hash].add(msg.sender);\r\n        if (_thresholdOfSignersMet(uint16(cleanupActionApprovals[action_hash].length()))){\r\n            _deleteAction(action_hash);\r\n                        \r\n            deleteEnumerableAddrSet(cleanupActionApprovals[action_hash]);            \r\n            emit StaleActionApprovalDeleted(action_hash);\r\n            return true;\r\n        }\r\n        return false;\r\n    }\r\n\r\n    ////////////////////////////////////////////////////\r\n    /////////// Private & internal functions ///////////\r\n    ////////////////////////////////////////////////////\r\n\r\n    function _deleteAction(bytes32 action_hash) internal {\r\n\r\n        deleteEnumerableAddrSet(actionApprovals[action_hash]);                \r\n        delete actionParams[action_hash];\r\n        actionHashes.remove(action_hash);\r\n    }\r\n}\r\n",
  "sourcePath": "C:\\Users\\Kuba\\Desktop\\project_test\\queans\\contracts\\lib\\MultisigActionMembers.sol",
  "compiler": {
    "name": "solc",
    "version": "0.8.17+commit.8df45f5f.Emscripten.clang"
  },
  "schemaVersion": "3.4.11",
  "updatedAt": "2023-04-01T08:42:48.769Z",
  "devdoc": {
    "kind": "dev",
    "methods": {
      "owner()": {
        "details": "Returns the address of the current owner."
      },
      "renounceOwnership()": {
        "details": "Leaves the contract without owner. It will not be possible to call `onlyOwner` functions anymore. Can only be called by the current owner. NOTE: Renouncing ownership will leave the contract without an owner, thereby removing any functionality that is only available to the owner."
      },
      "transferOwnership(address)": {
        "details": "Transfers ownership of the contract to a new account (`newOwner`). Can only be called by the current owner."
      }
    },
    "version": 1
  },
  "userdoc": {
    "kind": "user",
    "methods": {
      "approveAction(bytes,address)": {
        "notice": "Method for approving actions by members. Note: we check the ownership by a contract utilizing this functionality by msg.sender since we want to avoid using tx.origin for the multisig signer (sender) due to security concerns (such as delegated calls)."
      },
      "delStaleActionApproval(bytes32)": {
        "notice": "Clearing method for actionApprovals. It might be useful to drop unapproved stale actions since the number of members might decrease and such actions might become eligible for execution later (should be handled by DAPP + timeouts). Should be called directly by a member of the role."
      },
      "delStaleMemberApproval(address)": {
        "notice": "Should be called from time to time to clean up not approved members. NOTE: the number of members might decrease and previously unapproved additions/deletions of members might become eligible."
      }
    },
    "notice": "The role object encapsulating multiple users, enabling to vote on arbitrary actions (represented by their hash). The main method of this contract (approveAction) cannot be called directly by members but requires a call through the owner contract (relying one). Clean-up method for stale approvals can be called directly by members.",
    "version": 1
  }
}