{
  "contractName": "Queans",
  "abi": [
    {
      "inputs": [],
      "stateMutability": "nonpayable",
      "type": "constructor"
    },
    {
      "inputs": [],
      "name": "idm",
      "outputs": [
        {
          "internalType": "contract IIdentityRegistry",
          "name": "",
          "type": "address"
        }
      ],
      "stateMutability": "view",
      "type": "function",
      "constant": true
    },
    {
      "inputs": [
        {
          "internalType": "address",
          "name": "addr",
          "type": "address"
        }
      ],
      "name": "update",
      "outputs": [],
      "stateMutability": "nonpayable",
      "type": "function"
    },
    {
      "inputs": [
        {
          "internalType": "address",
          "name": "walletAddress",
          "type": "address"
        }
      ],
      "name": "addUser",
      "outputs": [],
      "stateMutability": "nonpayable",
      "type": "function"
    },
    {
      "inputs": [
        {
          "internalType": "uint256",
          "name": "questionKey",
          "type": "uint256"
        }
      ],
      "name": "voteForQuestion",
      "outputs": [],
      "stateMutability": "payable",
      "type": "function",
      "payable": true
    },
    {
      "inputs": [
        {
          "internalType": "address",
          "name": "voter",
          "type": "address"
        },
        {
          "internalType": "uint256",
          "name": "questionKey",
          "type": "uint256"
        }
      ],
      "name": "getVoter",
      "outputs": [
        {
          "internalType": "bool",
          "name": "response",
          "type": "bool"
        }
      ],
      "stateMutability": "view",
      "type": "function",
      "constant": true
    },
    {
      "inputs": [
        {
          "internalType": "uint256",
          "name": "_startOfRelation",
          "type": "uint256"
        },
        {
          "internalType": "uint256",
          "name": "_questionCloseTime",
          "type": "uint256"
        },
        {
          "internalType": "string",
          "name": "_name",
          "type": "string"
        },
        {
          "internalType": "string",
          "name": "_description",
          "type": "string"
        }
      ],
      "name": "addRelation",
      "outputs": [],
      "stateMutability": "payable",
      "type": "function",
      "payable": true
    },
    {
      "inputs": [
        {
          "internalType": "uint256",
          "name": "id",
          "type": "uint256"
        }
      ],
      "name": "getRelation",
      "outputs": [
        {
          "components": [
            {
              "internalType": "uint256",
              "name": "ID",
              "type": "uint256"
            },
            {
              "internalType": "uint256",
              "name": "startOfRelation",
              "type": "uint256"
            },
            {
              "internalType": "uint256",
              "name": "questionCloseTime",
              "type": "uint256"
            },
            {
              "internalType": "string",
              "name": "name",
              "type": "string"
            },
            {
              "internalType": "string",
              "name": "description",
              "type": "string"
            },
            {
              "internalType": "uint256[]",
              "name": "questionsKeys",
              "type": "uint256[]"
            }
          ],
          "internalType": "struct Queans.Relation",
          "name": "relation",
          "type": "tuple"
        }
      ],
      "stateMutability": "view",
      "type": "function",
      "constant": true
    },
    {
      "inputs": [],
      "name": "getAllRelations",
      "outputs": [
        {
          "components": [
            {
              "internalType": "uint256",
              "name": "ID",
              "type": "uint256"
            },
            {
              "internalType": "uint256",
              "name": "startOfRelation",
              "type": "uint256"
            },
            {
              "internalType": "uint256",
              "name": "questionCloseTime",
              "type": "uint256"
            },
            {
              "internalType": "string",
              "name": "name",
              "type": "string"
            },
            {
              "internalType": "string",
              "name": "description",
              "type": "string"
            },
            {
              "internalType": "uint256[]",
              "name": "questionsKeys",
              "type": "uint256[]"
            }
          ],
          "internalType": "struct Queans.Relation[]",
          "name": "",
          "type": "tuple[]"
        }
      ],
      "stateMutability": "view",
      "type": "function",
      "constant": true
    },
    {
      "inputs": [],
      "name": "getRelationsCount",
      "outputs": [
        {
          "internalType": "uint256",
          "name": "relLenght",
          "type": "uint256"
        }
      ],
      "stateMutability": "view",
      "type": "function",
      "constant": true
    },
    {
      "inputs": [
        {
          "internalType": "string",
          "name": "_text",
          "type": "string"
        },
        {
          "internalType": "uint256",
          "name": "relationID",
          "type": "uint256"
        }
      ],
      "name": "addQuestion",
      "outputs": [],
      "stateMutability": "payable",
      "type": "function",
      "payable": true
    },
    {
      "inputs": [
        {
          "internalType": "address",
          "name": "userAddr",
          "type": "address"
        },
        {
          "components": [
            {
              "internalType": "uint256",
              "name": "ID",
              "type": "uint256"
            },
            {
              "internalType": "uint256",
              "name": "startOfRelation",
              "type": "uint256"
            },
            {
              "internalType": "uint256",
              "name": "questionCloseTime",
              "type": "uint256"
            },
            {
              "internalType": "string",
              "name": "name",
              "type": "string"
            },
            {
              "internalType": "string",
              "name": "description",
              "type": "string"
            },
            {
              "internalType": "uint256[]",
              "name": "questionsKeys",
              "type": "uint256[]"
            }
          ],
          "internalType": "struct Queans.Relation",
          "name": "relation",
          "type": "tuple"
        }
      ],
      "name": "checkUserQuestion",
      "outputs": [
        {
          "internalType": "bool",
          "name": "",
          "type": "bool"
        }
      ],
      "stateMutability": "view",
      "type": "function",
      "constant": true
    },
    {
      "inputs": [
        {
          "internalType": "uint256",
          "name": "id",
          "type": "uint256"
        }
      ],
      "name": "getQuestion",
      "outputs": [
        {
          "components": [
            {
              "internalType": "string",
              "name": "text",
              "type": "string"
            },
            {
              "internalType": "address[]",
              "name": "votes",
              "type": "address[]"
            },
            {
              "internalType": "address",
              "name": "author",
              "type": "address"
            }
          ],
          "internalType": "struct Queans.Question",
          "name": "question",
          "type": "tuple"
        }
      ],
      "stateMutability": "view",
      "type": "function",
      "constant": true
    },
    {
      "inputs": [],
      "name": "getQuestionsCount",
      "outputs": [
        {
          "internalType": "uint256",
          "name": "queLenght",
          "type": "uint256"
        }
      ],
      "stateMutability": "view",
      "type": "function",
      "constant": true
    }
  ],
  "bytecode": "0x608060405234801561001057600080fd5b50612459806100206000396000f3fe6080604052600436106100c25760003560e01c80635d25d8701161007f578063bbf0396311610059578063bbf039631461023d578063c2e112d214610268578063d453f9e514610293578063db88176f146102d0576100c2565b80635d25d870146101aa578063758cb363146101d55780638ffe634314610200576100c2565b806302556643146100c7578063027c94ad146100e3578063129cd33e146101205780631c1b87721461013c57806325021cb914610165578063421b2d8b14610181575b600080fd5b6100e160048036038101906100dc91906113ad565b61030d565b005b3480156100ef57600080fd5b5061010a60048036038101906101059190611670565b610442565b60405161011791906116e7565b60405180910390f35b61013a60048036038101906101359190611702565b6104dd565b005b34801561014857600080fd5b50610163600480360381019061015e919061175e565b6106e4565b005b61017f600480360381019061017a919061178b565b610728565b005b34801561018d57600080fd5b506101a860048036038101906101a3919061175e565b61090a565b005b3480156101b657600080fd5b506101bf61097c565b6040516101cc9190611a4e565b60405180910390f35b3480156101e157600080fd5b506101ea610b75565b6040516101f79190611a7f565b60405180910390f35b34801561020c57600080fd5b506102276004803603810190610222919061178b565b610b81565b6040516102349190611b31565b60405180910390f35b34801561024957600080fd5b50610252610d57565b60405161025f9190611bb2565b60405180910390f35b34801561027457600080fd5b5061027d610d7d565b60405161028a9190611a7f565b60405180910390f35b34801561029f57600080fd5b506102ba60048036038101906102b59190611bcd565b610d87565b6040516102c791906116e7565b60405180910390f35b3480156102dc57600080fd5b506102f760048036038101906102f2919061178b565b610e26565b6040516103049190611d22565b60405180910390f35b60011515610325336001610fc990919063ffffffff16565b151514610367576040517f08c379a000000000000000000000000000000000000000000000000000000000815260040161035e90611da1565b60405180910390fd5b61036f6110bc565b610377610b75565b8160000181815250508481602001818152505083816040018181525050828160600181905250818160800181905250600081908060018154018082558091505060019003906000526020600020906006020160009091909190915060008201518160000155602082015181600101556040820151816002015560608201518160030190816104059190611fc3565b50608082015181600401908161041b9190611fc3565b5060a08201518160050190805190602001906104389291906110f2565b5050505050505050565b600080600090505b8260a00151518110156104d1578373ffffffffffffffffffffffffffffffffffffffff166104958460a00151838151811061048857610487612095565b5b6020026020010151610e26565b6040015173ffffffffffffffffffffffffffffffffffffffff16036104be5760019150506104d7565b80806104c9906120f3565b91505061044a565b50600090505b92915050565b600115156104f5336001610fc990919063ffffffff16565b151514610537576040517f08c379a000000000000000000000000000000000000000000000000000000000815260040161052e90611da1565b60405180910390fd5b6000151561054d3361054884610b81565b610442565b15151461058f576040517f08c379a0000000000000000000000000000000000000000000000000000000008152600401610586906121ad565b60405180910390fd5b606061059961113f565b83816000018190525081816020018190525033816040019073ffffffffffffffffffffffffffffffffffffffff16908173ffffffffffffffffffffffffffffffffffffffff168152505080600360006004548152602001908152602001600020600082015181600001908161060e9190611fc3565b50602082015181600101908051906020019061062b929190611176565b5060408201518160020160006101000a81548173ffffffffffffffffffffffffffffffffffffffff021916908373ffffffffffffffffffffffffffffffffffffffff1602179055509050506000838154811061068a57610689612095565b5b906000526020600020906006020160050160045490806001815401808255809150506001900390600052602060002001600090919091909150556001600460008282546106d791906121cd565b9250508190555050505050565b80600560006101000a81548173ffffffffffffffffffffffffffffffffffffffff021916908373ffffffffffffffffffffffffffffffffffffffff16021790555050565b60011515610740336001610fc990919063ffffffff16565b151514610782576040517f08c379a000000000000000000000000000000000000000000000000000000000815260040161077990611da1565b60405180910390fd5b61078b81610e26565b6040015173ffffffffffffffffffffffffffffffffffffffff163373ffffffffffffffffffffffffffffffffffffffff16036107fc576040517f08c379a00000000000000000000000000000000000000000000000000000000081526004016107f390612273565b60405180910390fd5b6001341015610840576040517f08c379a000000000000000000000000000000000000000000000000000000000815260040161083790612305565b60405180910390fd5b6000151561084e3383610d87565b151514610890576040517f08c379a000000000000000000000000000000000000000000000000000000000815260040161088790612397565b60405180910390fd5b60036000828152602001908152602001600020600101339080600181540180825580915050600190039060005260206000200160009091909190916101000a81548173ffffffffffffffffffffffffffffffffffffffff021916908373ffffffffffffffffffffffffffffffffffffffff16021790555050565b60001515610922826001610fc990919063ffffffff16565b151514610964576040517f08c379a000000000000000000000000000000000000000000000000000000000815260040161095b90612403565b60405180910390fd5b610978816001610ff990919063ffffffff16565b5050565b60606000805480602002602001604051908101604052809291908181526020016000905b82821015610b6c57838290600052602060002090600602016040518060c00160405290816000820154815260200160018201548152602001600282015481526020016003820180546109f190611df0565b80601f0160208091040260200160405190810160405280929190818152602001828054610a1d90611df0565b8015610a6a5780601f10610a3f57610100808354040283529160200191610a6a565b820191906000526020600020905b815481529060010190602001808311610a4d57829003601f168201915b50505050508152602001600482018054610a8390611df0565b80601f0160208091040260200160405190810160405280929190818152602001828054610aaf90611df0565b8015610afc5780601f10610ad157610100808354040283529160200191610afc565b820191906000526020600020905b815481529060010190602001808311610adf57829003601f168201915b5050505050815260200160058201805480602002602001604051908101604052809291908181526020018280548015610b5457602002820191906000526020600020905b815481526020019060010190808311610b40575b505050505081525050815260200190600101906109a0565b50505050905090565b60008080549050905090565b610b896110bc565b60008281548110610b9d57610b9c612095565b5b90600052602060002090600602016040518060c0016040529081600082015481526020016001820154815260200160028201548152602001600382018054610be490611df0565b80601f0160208091040260200160405190810160405280929190818152602001828054610c1090611df0565b8015610c5d5780601f10610c3257610100808354040283529160200191610c5d565b820191906000526020600020905b815481529060010190602001808311610c4057829003601f168201915b50505050508152602001600482018054610c7690611df0565b80601f0160208091040260200160405190810160405280929190818152602001828054610ca290611df0565b8015610cef5780601f10610cc457610100808354040283529160200191610cef565b820191906000526020600020905b815481529060010190602001808311610cd257829003601f168201915b5050505050815260200160058201805480602002602001604051908101604052809291908181526020018280548015610d4757602002820191906000526020600020905b815481526020019060010190808311610d33575b5050505050815250509050919050565b600560009054906101000a900473ffffffffffffffffffffffffffffffffffffffff1681565b6000600454905090565b600080600090505b610d9883610e26565b6020015151811015610e1a578373ffffffffffffffffffffffffffffffffffffffff16610dc484610e26565b602001518281518110610dda57610dd9612095565b5b602002602001015173ffffffffffffffffffffffffffffffffffffffff1603610e07576001915050610e20565b8080610e12906120f3565b915050610d8f565b50600090505b92915050565b610e2e61113f565b60036000838152602001908152602001600020604051806060016040529081600082018054610e5c90611df0565b80601f0160208091040260200160405190810160405280929190818152602001828054610e8890611df0565b8015610ed55780601f10610eaa57610100808354040283529160200191610ed5565b820191906000526020600020905b815481529060010190602001808311610eb857829003601f168201915b5050505050815260200160018201805480602002602001604051908101604052809291908181526020018280548015610f6357602002820191906000526020600020905b8160009054906101000a900473ffffffffffffffffffffffffffffffffffffffff1673ffffffffffffffffffffffffffffffffffffffff1681526020019060010190808311610f19575b505050505081526020016002820160009054906101000a900473ffffffffffffffffffffffffffffffffffffffff1673ffffffffffffffffffffffffffffffffffffffff1673ffffffffffffffffffffffffffffffffffffffff16815250509050919050565b6000610ff1836000018373ffffffffffffffffffffffffffffffffffffffff1660001b611029565b905092915050565b6000611021836000018373ffffffffffffffffffffffffffffffffffffffff1660001b61104c565b905092915050565b600080836001016000848152602001908152602001600020541415905092915050565b60006110588383611029565b6110b15782600001829080600181540180825580915050600190039060005260206000200160009091909190915055826000018054905083600101600084815260200190815260200160002081905550600190506110b6565b600090505b92915050565b6040518060c001604052806000815260200160008152602001600081526020016060815260200160608152602001606081525090565b82805482825590600052602060002090810192821561112e579160200282015b8281111561112d578251825591602001919060010190611112565b5b50905061113b9190611200565b5090565b60405180606001604052806060815260200160608152602001600073ffffffffffffffffffffffffffffffffffffffff1681525090565b8280548282559060005260206000209081019282156111ef579160200282015b828111156111ee5782518260006101000a81548173ffffffffffffffffffffffffffffffffffffffff021916908373ffffffffffffffffffffffffffffffffffffffff16021790555091602001919060010190611196565b5b5090506111fc9190611200565b5090565b5b80821115611219576000816000905550600101611201565b5090565b6000604051905090565b600080fd5b600080fd5b6000819050919050565b61124481611231565b811461124f57600080fd5b50565b6000813590506112618161123b565b92915050565b600080fd5b600080fd5b6000601f19601f8301169050919050565b7f4e487b7100000000000000000000000000000000000000000000000000000000600052604160045260246000fd5b6112ba82611271565b810181811067ffffffffffffffff821117156112d9576112d8611282565b5b80604052505050565b60006112ec61121d565b90506112f882826112b1565b919050565b600067ffffffffffffffff82111561131857611317611282565b5b61132182611271565b9050602081019050919050565b82818337600083830152505050565b600061135061134b846112fd565b6112e2565b90508281526020810184848401111561136c5761136b61126c565b5b61137784828561132e565b509392505050565b600082601f83011261139457611393611267565b5b81356113a484826020860161133d565b91505092915050565b600080600080608085870312156113c7576113c6611227565b5b60006113d587828801611252565b94505060206113e687828801611252565b935050604085013567ffffffffffffffff8111156114075761140661122c565b5b6114138782880161137f565b925050606085013567ffffffffffffffff8111156114345761143361122c565b5b6114408782880161137f565b91505092959194509250565b600073ffffffffffffffffffffffffffffffffffffffff82169050919050565b60006114778261144c565b9050919050565b6114878161146c565b811461149257600080fd5b50565b6000813590506114a48161147e565b92915050565b600080fd5b600080fd5b600067ffffffffffffffff8211156114cf576114ce611282565b5b602082029050602081019050919050565b600080fd5b60006114f86114f3846114b4565b6112e2565b9050808382526020820190506020840283018581111561151b5761151a6114e0565b5b835b8181101561154457806115308882611252565b84526020840193505060208101905061151d565b5050509392505050565b600082601f83011261156357611562611267565b5b81356115738482602086016114e5565b91505092915050565b600060c08284031215611592576115916114aa565b5b61159c60c06112e2565b905060006115ac84828501611252565b60008301525060206115c084828501611252565b60208301525060406115d484828501611252565b604083015250606082013567ffffffffffffffff8111156115f8576115f76114af565b5b6116048482850161137f565b606083015250608082013567ffffffffffffffff811115611628576116276114af565b5b6116348482850161137f565b60808301525060a082013567ffffffffffffffff811115611658576116576114af565b5b6116648482850161154e565b60a08301525092915050565b6000806040838503121561168757611686611227565b5b600061169585828601611495565b925050602083013567ffffffffffffffff8111156116b6576116b561122c565b5b6116c28582860161157c565b9150509250929050565b60008115159050919050565b6116e1816116cc565b82525050565b60006020820190506116fc60008301846116d8565b92915050565b6000806040838503121561171957611718611227565b5b600083013567ffffffffffffffff8111156117375761173661122c565b5b6117438582860161137f565b925050602061175485828601611252565b9150509250929050565b60006020828403121561177457611773611227565b5b600061178284828501611495565b91505092915050565b6000602082840312156117a1576117a0611227565b5b60006117af84828501611252565b91505092915050565b600081519050919050565b600082825260208201905092915050565b6000819050602082019050919050565b6117ed81611231565b82525050565b600081519050919050565b600082825260208201905092915050565b60005b8381101561182d578082015181840152602081019050611812565b60008484015250505050565b6000611844826117f3565b61184e81856117fe565b935061185e81856020860161180f565b61186781611271565b840191505092915050565b600081519050919050565b600082825260208201905092915050565b6000819050602082019050919050565b60006118aa83836117e4565b60208301905092915050565b6000602082019050919050565b60006118ce82611872565b6118d8818561187d565b93506118e38361188e565b8060005b838110156119145781516118fb888261189e565b9750611906836118b6565b9250506001810190506118e7565b5085935050505092915050565b600060c08301600083015161193960008601826117e4565b50602083015161194c60208601826117e4565b50604083015161195f60408601826117e4565b50606083015184820360608601526119778282611839565b915050608083015184820360808601526119918282611839565b91505060a083015184820360a08601526119ab82826118c3565b9150508091505092915050565b60006119c48383611921565b905092915050565b6000602082019050919050565b60006119e4826117b8565b6119ee81856117c3565b935083602082028501611a00856117d4565b8060005b85811015611a3c5784840389528151611a1d85826119b8565b9450611a28836119cc565b925060208a01995050600181019050611a04565b50829750879550505050505092915050565b60006020820190508181036000830152611a6881846119d9565b905092915050565b611a7981611231565b82525050565b6000602082019050611a946000830184611a70565b92915050565b600060c083016000830151611ab260008601826117e4565b506020830151611ac560208601826117e4565b506040830151611ad860408601826117e4565b5060608301518482036060860152611af08282611839565b91505060808301518482036080860152611b0a8282611839565b91505060a083015184820360a0860152611b2482826118c3565b9150508091505092915050565b60006020820190508181036000830152611b4b8184611a9a565b905092915050565b6000819050919050565b6000611b78611b73611b6e8461144c565b611b53565b61144c565b9050919050565b6000611b8a82611b5d565b9050919050565b6000611b9c82611b7f565b9050919050565b611bac81611b91565b82525050565b6000602082019050611bc76000830184611ba3565b92915050565b60008060408385031215611be457611be3611227565b5b6000611bf285828601611495565b9250506020611c0385828601611252565b9150509250929050565b600081519050919050565b600082825260208201905092915050565b6000819050602082019050919050565b611c428161146c565b82525050565b6000611c548383611c39565b60208301905092915050565b6000602082019050919050565b6000611c7882611c0d565b611c828185611c18565b9350611c8d83611c29565b8060005b83811015611cbe578151611ca58882611c48565b9750611cb083611c60565b925050600181019050611c91565b5085935050505092915050565b60006060830160008301518482036000860152611ce88282611839565b91505060208301518482036020860152611d028282611c6d565b9150506040830151611d176040860182611c39565b508091505092915050565b60006020820190508181036000830152611d3c8184611ccb565b905092915050565b600082825260208201905092915050565b7f55736572206973206e6f74206164646564000000000000000000000000000000600082015250565b6000611d8b601183611d44565b9150611d9682611d55565b602082019050919050565b60006020820190508181036000830152611dba81611d7e565b9050919050565b7f4e487b7100000000000000000000000000000000000000000000000000000000600052602260045260246000fd5b60006002820490506001821680611e0857607f821691505b602082108103611e1b57611e1a611dc1565b5b50919050565b60008190508160005260206000209050919050565b60006020601f8301049050919050565b600082821b905092915050565b600060088302611e837fffffffffffffffffffffffffffffffffffffffffffffffffffffffffffffffff82611e46565b611e8d8683611e46565b95508019841693508086168417925050509392505050565b6000611ec0611ebb611eb684611231565b611b53565b611231565b9050919050565b6000819050919050565b611eda83611ea5565b611eee611ee682611ec7565b848454611e53565b825550505050565b600090565b611f03611ef6565b611f0e818484611ed1565b505050565b5b81811015611f3257611f27600082611efb565b600181019050611f14565b5050565b601f821115611f7757611f4881611e21565b611f5184611e36565b81016020851015611f60578190505b611f74611f6c85611e36565b830182611f13565b50505b505050565b600082821c905092915050565b6000611f9a60001984600802611f7c565b1980831691505092915050565b6000611fb38383611f89565b9150826002028217905092915050565b611fcc826117f3565b67ffffffffffffffff811115611fe557611fe4611282565b5b611fef8254611df0565b611ffa828285611f36565b600060209050601f83116001811461202d576000841561201b578287015190505b6120258582611fa7565b86555061208d565b601f19841661203b86611e21565b60005b828110156120635784890151825560018201915060208501945060208101905061203e565b86831015612080578489015161207c601f891682611f89565b8355505b6001600288020188555050505b505050505050565b7f4e487b7100000000000000000000000000000000000000000000000000000000600052603260045260246000fd5b7f4e487b7100000000000000000000000000000000000000000000000000000000600052601160045260246000fd5b60006120fe82611231565b91507fffffffffffffffffffffffffffffffffffffffffffffffffffffffffffffffff82036121305761212f6120c4565b5b600182019050919050565b7f7573657220616c7265616479206164646564207175657374696f6e20696e746f60008201527f20746869732072656c6174696f6e000000000000000000000000000000000000602082015250565b6000612197602e83611d44565b91506121a28261213b565b604082019050919050565b600060208201905081810360008301526121c68161218a565b9050919050565b60006121d882611231565b91506121e383611231565b92508282019050808211156121fb576121fa6120c4565b5b92915050565b7f596f752063616e206e6f7420766f746520666f7220796f7572206f776e20717560008201527f657374696f6e0000000000000000000000000000000000000000000000000000602082015250565b600061225d602683611d44565b915061226882612201565b604082019050919050565b6000602082019050818103600083015261228c81612250565b9050919050565b7f596f75206d75737420706179206174206c6561737420312045544820746f207660008201527f6f74650000000000000000000000000000000000000000000000000000000000602082015250565b60006122ef602383611d44565b91506122fa82612293565b604082019050919050565b6000602082019050818103600083015261231e816122e2565b9050919050565b7f596f7520616c726561647920766f74656420666f72207468697320717565737460008201527f696f6e0000000000000000000000000000000000000000000000000000000000602082015250565b6000612381602383611d44565b915061238c82612325565b604082019050919050565b600060208201905081810360008301526123b081612374565b9050919050565b7f5573657220697320616c72656164792061646465640000000000000000000000600082015250565b60006123ed601583611d44565b91506123f8826123b7565b602082019050919050565b6000602082019050818103600083015261241c816123e0565b905091905056fea26469706673582212204f9fbc5fecc320f33b880ce412c9164d86b84409b2d48d63c03d35c5bd25448e64736f6c63430008110033",
  "immutableReferences": {},
  "source": "// SPDX-License-Identifier: MIT\r\npragma solidity ^0.8.17;\r\n\r\nimport \"./lib/IIdentityRegistry.sol\";\r\nimport \"./identityRegistry.sol\";\r\nimport \"@openzeppelin/contracts/utils/structs/EnumerableSet.sol\";\r\n\r\ncontract Queans {\r\n\r\n    using EnumerableSet for EnumerableSet.AddressSet;\r\n\r\n    Relation[] relationList;\r\n    EnumerableSet.AddressSet users;\r\n\r\n    mapping(uint=>Question) questions;\r\n    uint numQuestions;\r\n\r\n    IIdentityRegistry public idm; \r\n\r\n    constructor() {  \r\n    }\r\n\r\n    struct Question {\r\n        string text;\r\n        address[] votes;\r\n        address author;\r\n    }\r\n\r\n    struct Relation {\r\n        uint ID;\r\n        uint startOfRelation; //time when the relation starts, e.g. 18.3.2023 20:00\r\n        uint questionCloseTime; //after this time you can not ask questions e.g. 18.3.2023 21:00\r\n        string name; // e.g. CNN Covid Discussion\r\n        string description;\r\n        uint[] questionsKeys; // question numbers\r\n    }\r\n\r\n    function update(address addr) public {\r\n        idm = IdentityRegistry(address(addr));\r\n    }\r\n\r\n    // bude external, volat ji bude druhy SC\r\n    // verifiableCredentials = {walletAddress, signature_IDM_Provider}\r\n\r\n    function addUser(address walletAddress) public {\r\n        //require(idm.verifyIdentity(walletAddress) == true, \"User does not have verified identity\");\r\n        require(users.contains(walletAddress) == false, \"User is already added\");\r\n        users.add(walletAddress);\r\n    }\r\n\r\n    function voteForQuestion(uint questionKey) payable public {\r\n        //require(idm.verifyIdentity(msg.sender) == true, \"User does not have verified identity\");\r\n        require(users.contains(msg.sender) == true, \"User is not added\");\r\n        require(msg.sender != getQuestion(questionKey).author, \"You can not vote for your own question\");\r\n        require(msg.value >= 1, \"You must pay at least 1 ETH to vote\");\r\n        require(getVoter(msg.sender, questionKey) == false, \"You already voted for this question\");\r\n        questions[questionKey].votes.push(msg.sender);\r\n    }\r\n\r\n    function getVoter(address voter, uint questionKey) public view returns(bool response){\r\n        for(uint i = 0; i < getQuestion(questionKey).votes.length; i++) {\r\n            if (getQuestion(questionKey).votes[i] == voter) {\r\n                return true;\r\n            }\r\n        }\r\n        return false;\r\n    }\r\n\r\n    // bude payable? \r\n    // me ji volat kdokoliv nebo jen poven osoby?\r\n    function addRelation(uint _startOfRelation, uint _questionCloseTime, string memory _name, string memory _description) payable public {\r\n        //require(idm.verifyIdentity(msg.sender) == true, \"User does not have verified identity\");\r\n        require(users.contains(msg.sender) == true, \"User is not added\");\r\n        Relation memory r;\r\n        r.ID = getRelationsCount();\r\n        r.startOfRelation = _startOfRelation;\r\n        r.questionCloseTime = _questionCloseTime;\r\n        r.name = _name;\r\n        r.description = _description;\r\n        relationList.push(r);\r\n    }\r\n\r\n    function getRelation(uint id) public view returns(Relation memory relation) {\r\n        return relationList[id];\r\n    }\r\n\r\n    function getAllRelations() public view returns(Relation [] memory) {\r\n        return relationList;\r\n    }\r\n\r\n    function getRelationsCount() public view returns(uint relLenght) {\r\n        return relationList.length;\r\n    }\r\n\r\n    function addQuestion(string memory _text, uint relationID) payable public {\r\n        //require(idm.verifyIdentity(msg.sender) == true, \"User does not have verified identity\");\r\n        require(users.contains(msg.sender) == true, \"User is not added\");\r\n        require(checkUserQuestion(msg.sender, getRelation(relationID)) == false, \"user already added question into this relation\");\r\n        address[] memory questionVotes;\r\n        Question memory que;\r\n        que.text = _text;\r\n        que.votes = questionVotes;\r\n        que.author = msg.sender;\r\n        questions[numQuestions] = que;\r\n        relationList[relationID].questionsKeys.push(numQuestions);\r\n        numQuestions += 1;\r\n    }\r\n\r\n    function checkUserQuestion(address userAddr, Relation memory relation) public view returns(bool) {\r\n        for(uint i = 0; i < relation.questionsKeys.length; i++) {\r\n            if (getQuestion(relation.questionsKeys[i]).author == userAddr)\r\n                return true;\r\n        }\r\n        return false;\r\n    }\r\n\r\n    function getQuestion(uint id) public view returns(Question memory question) {\r\n        return questions[id];\r\n    }\r\n\r\n    function getQuestionsCount() public view returns(uint queLenght) {\r\n        return numQuestions;\r\n    }\r\n    \r\n}\r\n",
  "sourcePath": "C:\\Users\\Kuba\\Desktop\\project_test\\queans\\contracts\\Queans.sol",
  "compiler": {
    "name": "solc",
    "version": "0.8.17+commit.8df45f5f.Emscripten.clang"
  },
  "schemaVersion": "3.4.11",
  "updatedAt": "2023-04-01T08:43:20.826Z",
  "networkType": "ethereum",
  "devdoc": {
    "kind": "dev",
    "methods": {},
    "version": 1
  },
  "userdoc": {
    "kind": "user",
    "methods": {},
    "version": 1
  }
}